:020000040800F2
:10000000A004002001010008B1120008950E0008AC
:10001000AD120008CD0A00086D20000800000000A5
:10002000000000000000000000000000891A000825
:10003000610D00080000000015170008011C0008F1
:100040001B0100081B0100081B0100081B01000820
:100050001B0100081B0100081B0100081B01000810
:100060001B0100081B0100081B0100081B01000800
:100070001B0100081B0100081B0100081B010008F0
:100080001B0100081B0100081B0100081B010008E0
:100090001B0100081B0100081B0100081B010008D0
:1000A0001B0100081B0100081B0100081B010008C0
:1000B000651C00081B0100081B0100081B0100084B
:1000C0001B0100081B0100081B0100081B010008A0
:1000D0001B0100081B0100081B0100081B01000890
:1000E0001B0100081B0100081B010008DFF80CD0F1
:1000F00000F058FC0048004729450008A0040020F3
:100100000648804706480047FEE7FEE7FEE7FEE7B1
:10011000FEE7FEE7FEE7FEE7FEE7FEE7051C000858
:10012000ED0000082DE9F0410024061B254671F181
:10013000000605DA01240027D0EB070067EB010178
:10014000161E73F1000605DA0027D2EB070201251F
:1001500067EB030300F004FA86460E4617469C46FA
:10016000AC4204D00025D0EB050E65EB010624B1AE
:100170000020D2EB000760EB030C704631463A4694
:100180006346BDE8F081D2B201E000F8012B491EC0
:10019000FBD270470022F6E710B513460A46044624
:1001A0001946FFF7F0FF204610BD30B50446002089
:1001B000034600E05B1C934203D2E05CCD5C401B35
:1001C000F8D030BDF0B480EA0102D40F4200B2EBA7
:1001D000410F02D20246084611464A0042D0C30DE2
:1001E000DDB2C1F3C752AD1A202D35DAC1F31601C5
:1001F00041F4000204B15242C5F1200602FA06F1B0
:100200002A411044B3EBD05F23D0C4B1012DA0EB41
:10021000C35009DCF0BC4FF0004202EAC352DBB22B
:1002200000F5000000F0D6B9400000F1807000EB4E
:10023000C350A0F1807040EAD170490009E049083C
:1002400041EAC071A0EBC35000F50000400800EB8C
:10025000C350F0BC00F0B5B96142012202EB41018C
:10026000001BF6E7F0BC704781F00041AAE780F080
:100270000040A7E780EA010210B502F00043400009
:1002800022D04A001FD0010E01EB1261C0F35600CC
:10029000C2F3560240F4000042F40002A0FB022028
:1002A00000047F39140400D0401C50EA124001D4ED
:1002B0004000491EC2B20C0604EBD010401C40089E
:1002C000802A02D003E0002010BD20F001000029A8
:1002D00000DA0020184310BD30B480EA010202F0B9
:1002E000004530F0004221F0004013D090B1C30D22
:1002F000D40DC2F31601C0F31600E41A41F4000154
:1003000040F400027D34914201D3641C00E04900B6
:10031000002C02DA30BC002070474FF400000023AC
:10032000914201D3891A034340084FEA4101F7D1B2
:1003300051B1914202D14FF0004105E002D24FF09D
:10034000010101E06FF0010103EBC450284430BC0F
:1003500000F037B92DE9FE4F81EA030404F00044B0
:1003600021F0004100944FF0000B23F0004350EACD
:1003700001045ED052EA03045BD0C3F30A54C1F314
:100380000A552C44A4F2F3340194A0FB0254C1F3A7
:10039000130141F48011C3F3130343F4801301FBF1
:1003A000024400FB034E840A970A44EA815447EA58
:1003B0008357A4FB076802958D0A05FB07854FEA62
:1003C000932C04FB0C542705029D4FEA065847EA7C
:1003D0001637B5EB08056EEB070C870E920E47EA51
:1003E000811742EA8312A7FB0201B6EB0B0164EB13
:1003F00000042B0D43EA0C335E1844EB1C50DA4624
:100400005146E7FB0201C5F313044FEA0B3343EAFD
:1004100014534FEA0432019C43EA0603A4F10C048E
:100420000294009CCDE900B400F011F903B0BDE8DE
:10043000F08F00200146F9E7C10F80EAE070084420
:10044000CA079623002100F0C5B896230022114662
:1004500000F0C0B800F0004220F00040C10DC0F331
:10046000160040F400007F2901DA00207047962929
:1004700003DCC1F19601C84001E096398840002AAA
:10048000F4D04042704720F00040C10DC0F3160088
:1004900040F400007F2901DA00207047962903DC30
:1004A000C1F19601C840704796398840704700F006
:1004B000004230F000400AD0C10D01F56071C0F378
:1004C000160042EA0151C20840071143704700205C
:1004D0000146704701F0004330B421F0004150EA7A
:1004E000010206D00A0DA2F56072C1F31301002AC1
:1004F00002DC30BC00207047440F44EAC104C10054
:10050000E01830BC00EBC25000F05BB8002801DB03
:10051000C0F10040002901DBC1F100418142704778
:10052000002801DBC0F10040002901DBC1F10041DE
:100530008842704730B50B46014600202022012436
:1005400009E021FA02F59D4205D303FA02F5491BA1
:1005500004FA02F52844151EA2F10102F1DC30BDB7
:100560002DE9F05F0546002092469B4688460646E8
:10057000814640241BE0284641464746224600F07B
:1005800032FA53465A46C01A914110D311461846C2
:10059000224600F019FA2D1A67EB01084F46224651
:1005A0000120002100F010FA17EB00094E41201E37
:1005B000A4F10104DFDC484631462A464346BDE843
:1005C000F09F0029A8BF7047401C490008BF20F0D9
:1005D0000100704710B4B0FA80FC00FA0CF050EA49
:1005E000010404BF10BC704749B1CCF1200421FACA
:1005F00004F411FA0CF118BF012121430843A3EBC5
:100600000C01CB1D4FEA00614FEA102042BF0020D1
:1006100010BC704700EBC35010440029A4BF10BCAD
:100620007047401C490008BF20F0010010BC704713
:1006300010B5141E73F1000408DA401C41F10001EA
:1006400092185B411A4301D120F0010010BD2DE941
:10065000F04D92469B4611B1B1FA81F202E0B0FA38
:1006600080F22032904600F0AFF904460F4640EA8F
:100670000A0041EA0B0153465A46084313D011467B
:1006800053EA010019D0C8F14002504600F0ABF91E
:1006900005460E4650465946424600F095F9084335
:1006A00005D0012004E020463946BDE8F08D002049
:1006B000054346EAE0762C4337430A986305E40A8B
:1006C000A0EB08000022FD0A44EA47540A3002D594
:1006D00000200146E9E7010510196941DDE90845F7
:1006E00000196941BDE8F04DA2E72DE9FE4F8046B3
:1006F00081EA0300C00F0C46009021F0004123F076
:100700000045B8EB0200A94105D24046214690467B
:100710001C460B46024623F00040104347D0270DED
:10072000C7F30A00C3F30A510290401A019040280F
:100730006BDAC3F3130040F4801B0098924620B19B
:100740000023D2EB030A63EB0B0B01985946C0F16F
:100750004002504600F038F906460D4650465946CC
:10076000019A00F050F910EB08006141002487EA7B
:10077000115284EAE7731A4340D0009A62B3019A97
:10078000012A4FEA075215DC001B61EB02014FF012
:10079000004202EA0752CDE90042001C41F58011F7
:1007A00032462B46FFF753FF03B0BDE8F08F4046BB
:1007B0002146F9E7001B61EB0201001C41F58013A3
:1007C00000185B412018A2F5001747EB030140EA2F
:1007D000D570B6196D4111E06D084FEA360645EA4D
:1007E000C0754FEA0752001B61EB0201001C41F586
:1007F000801149084FEA30000019514132462B461A
:1008000003B0BDE8F04FFFF713BF0098012240008E
:100810000023D0EB020263EBE073009821464FEA1D
:10082000E074B8EB000061EB0401E9E783F00043FA
:100830005BE781F0004158E72DE9F04D81EA0304C0
:1008400004F0004B21F0004514464FF0000A23F05D
:10085000004150EA050220D054EA01021DD0C5F340
:100860000A570246C5F31303C1F31300C1F30A5636
:1008700040F4801543F48013A7EB0608101BD646FE
:1008800008F2FD3873EB050002D308F1010801E01E
:1008900092185B41B8F1000F03DA00200146BDE871
:1008A000F08D00204FF48011064684460EE0171BA1
:1008B00073EB050705D3121B63EB050306434CEAF4
:1008C000010C49084FEA300092185B4150EA0107D9
:1008D000EDD152EA030012D082EA040083EA050156
:1008E000084305D0101BAB4106D20122002306E0CD
:1008F00000224FF0004302E06FF0010253101AEBA8
:1009000006004CEB085110EB0A0041EB0B01BDE86F
:10091000F04DFFF78DBE70B521F0004303430CD0BE
:10092000C1F30A550024D5EB040564EB0403D61784
:10093000AD1AB34102DB0020014670BD201841EB27
:10094000025170BDC1F30A52C1F3130140F2FF33EB
:1009500041F480119A4202DA00200146704740F2C9
:1009600033439A42A2F2334202DC524200F03BB8D7
:1009700000F02AB830B5041E71F1000404DB4FF01A
:100980000044404264EB0101141E73F1000405DBD6
:100990001C464FF00043524263EB0403994208BFE8
:1009A000904230BD064C074D06E0E06840F0010380
:1009B00094E8070098471034AC42F6D3FFF79AFB4F
:1009C000406A0008606A0008202A04DB203A00FA26
:1009D00002F1002070479140C2F1200320FA03F396
:1009E000194390407047202A04DB203A21FA02F094
:1009F0000021704721FA02F3D040C2F12002914059
:100A0000084319467047202A06DBCB17203A41FAE3
:100A100002F043EAE07306E041FA02F3D040C2F18B
:100A2000200291400843194670472DE9F04D0023FC
:100A30001A461B1A8A4103DB00200146BDE8F08DEF
:100A4000C1F30A52C1F3130141F480154FF0000BBA
:100A5000D10702D100186D41521E0027044640F212
:100A6000FF11384601EB620A3E46804602460020EE
:100A70004FF48011FFF7B7FFC2197141BB1846EB65
:100A80000100B4EB030C75EB000C04D3E41A65EB26
:100A9000000517460E46241908F101006D418046F5
:100AA0003428E3DDF91946EB0600091BA84103D2FF
:100AB0004FF0FF32134601E0002213461BEB070004
:100AC00046EB0A51BDE8F04DFFF7B2BD00BFFEE7AF
:100AD00000B585B00121042000F02EFE4FF4007017
:100AE000ADF8100018208DF8130003208DF81200C7
:100AF00004A9154800F035F94FF48060ADF81000F6
:100B000004208DF8130004A90F4800F02AF90121F0
:100B1000880300F011FE4FF4E13000900020ADF8A2
:100B20000400ADF80600ADF80800ADF80C000C208C
:100B3000ADF80A006946054801F028FA012103488A
:100B400001F00AFA05B000BD00080140003801407C
:100B500038B5002000906B4601227521682003F013
:100B600043FC2CA001F084FA9DF8000068280ED008
:100B700000BF3148006800F4E06030490843001DC0
:100B80002D490860BFF3408F00BF00BFFEE703F0B0
:100B900019FE00283CD1782004F01EFC10B91DA0DD
:100BA00001F066FA782003F0FBFC10B924A001F0F4
:100BB0005FFAC82004F0C2FB10B92BA001F058FA6C
:100BC00002F082FC10B932A001F052FA3D4803F065
:100BD00070FC044602F0D2FE10B93BA001F048FAC6
:100BE00040F2731002F018FB10B941A001F040FA76
:100BF000C82002F0F3FD10B947A001F039FA04F063
:100C000095FC012004F096FA10B94CA001F030FADE
:100C100038BD00006D70755F7365745F73656E73CA
:100C20006F7220636F6D706C657465202E2E2E2E92
:100C30002E2E0D0A000000000CED00E00000FA0569
:100C40006D70755F636F6E6669677572655F666903
:100C5000666F20636F6D706C657465202E2E2E2E6E
:100C60002E2E0D0A000000006D70755F7365745FB5
:100C700073616D706C655F7261746520636F6D7018
:100C80006C657465202E2E2E2E2E2E0D0A0000006F
:100C9000646D705F6C6F61645F6D6F74696F6E5FC0
:100CA0006472697665725F6669726D7761726520DC
:100CB000636F6D706C657465202E2E2E2E2E2E0D9A
:100CC0000A00000074000020646D705F7365745F3B
:100CD0006F7269656E746174696F6E20636F6D7099
:100CE0006C657465202E2E2E2E2E2E0D0A0000000F
:100CF000646D705F656E61626C655F666561747579
:100D0000726520636F6D706C657465202E2E2E2EBB
:100D10002E2E0D0A00000000646D705F7365745F15
:100D20006669666F5F7261746520636F6D706C6574
:100D30007465202E2E2E2E2E2E0D0A006D70755FDE
:100D40007365745F646D705F737461746520636F45
:100D50006D706C657465202E2E2E2E2E2E0D0A00C1
:100D600070472DE9F04102460025002600200023AF
:100D70000024002791F803C00CF00F0591F803C080
:100D80000CF0100CBCF1000F03D091F802C04CEA3B
:100D9000050591F800C0BCF1000F31D014680020A7
:100DA0002BE04FF0010C0CFA00F3B1F800C00CEA94
:100DB00003069E4220D183004FF00F0C0CFA03F77C
:100DC000BC4305FA03FC4CEA040491F803C0BCF1EF
:100DD000280F06D14FF0010C0CFA00FCC2F814C029
:100DE0000AE091F803C0BCF1480F05D14FF0010CA7
:100DF0000CFA00FCC2F810C0401C0828D1D31460C3
:100E0000B1F800C0BCF1FF0F34DD546800202EE0C3
:100E100000F1080C4FF0010808FA0CF3B1F800C01B
:100E20000CEA03069E4221D183004FF00F0C0CFA0E
:100E300003F7BC4305FA03FC4CEA040491F803C031
:100E4000BCF1280F05D100F1080C08FA0CF8C2F823
:100E5000148091F803C0BCF1480F07D100F1080CD1
:100E60004FF0010808FA0CF8C2F81080401C08285E
:100E7000CED35460BDE8F0810246002093680B4059
:100E80000BB1012000E0002070470AB1016100E0D1
:100E90004161704700BFFEE770B505460E4600246D
:100EA00000F0CEF8284600F0ABF8641C00F0FCF827
:100EB000304600F0A5F8641C00F0F6F800F0C0F829
:100EC000691CC8B200F09CF8641C00F0EDF800202A
:100ED00000F068F8044600F0CDF8204670BD000030
:100EE00010B500224FF480610A48FFF7CEFF0022C0
:100EF0004FF400610748FFF7C8FF0122910205483F
:100F0000FFF7C3FF00224FF480610248FFF7BDFFE7
:100F100010BD0000000C014008B50121082000F0C0
:100F20000BFC4FF48060ADF8000014208DF8030036
:100F300003208DF8020069460C48FFF712FF4FF4BA
:100F40000060ADF8000014208DF8030069460748E2
:100F5000FFF707FF012291020448FFF796FF0122E5
:100F6000D1020248FFF791FF08BD0000000C0140CC
:100F700010B500224FF480610948FFF786FF012277
:100F8000D1020748FFF781FF012291020448FFF7D1
:100F90007CFF00224FF480610148FFF776FF10BD0F
:100FA000000C014070B5054600260122D10213480D
:100FB000FFF76BFF002416E0012291020F48FFF7B4
:100FC00064FF4FF400610D48FFF756FF012802D17E
:100FD00080202041064300224FF480610748FFF73C
:100FE00054FF601CC4B2082CE6DB15B1FFF778FF94
:100FF00001E0FFF7BDFF304670BD0000000C01406E
:1010000070B50546002415E08020204100EA050265
:101010004FF400610948FFF738FF012291020748A9
:10102000FFF733FF00224FF480610448FFF72DFFE4
:10103000601C44B2082CE7DB70BD0000000C0140CE
:1010400010B50122D1020A48FFF71FFF01229102C9
:101050000748FFF71AFF00224FF400610448FFF72A
:1010600014FF00224FF480610148FFF70EFF10BD0E
:10107000000C014010B500224FF480610948FFF7D1
:1010800004FF00224FF400610648FFF7FEFE012234
:1010900091020448FFF7F9FE0122D1020148FFF74F
:1010A000F4FE10BD000C014010B500240122D10255
:1010B0000F48FFF7EAFE012291020D48FFF7E5FE17
:1010C00007E0601CC4B2322C03DDFFF7D3FF002021
:1010D00010BD4FF400610648FFF7CEFE0028F0D1A6
:1010E00000224FF480610248FFF7CFFE0120EFE7B6
:1010F000000C014070B505460E46144631462846A0
:10110000FFF7CAFE2070012070BDF8B506460F46F5
:1011100014461D466A4639463046FFF7EBFF2DB1AF
:101120000120A0409DF80010084305E00120A040E8
:101130009DF8001021EA0000C0B200909DF8002048
:101140003946304600F036F8F8BD2DE9F843074639
:10115000884614461D46089E6A4641463846FFF7B3
:10116000C9FF28B3601CFF2101FA00F0C4F1080197
:101170002944491EFF220A41104300F0FF09C5F12E
:10118000080006FA00F0C6B2C4F1070006419DF857
:10119000000000EA090000909DF800003043009034
:1011A0009DF800204146384600F004F8BDE8F88379
:1011B0000020FBE737B504460D4602AB0122294665
:1011C000204600F001F83EBD2DE9F04180460D4675
:1011D00016461F460024FFF733FF4046FFF710FF77
:1011E000FFF762FF2846FFF70BFFFFF75DFF00BF29
:1011F00006E0385DFFF704FFFFF756FF601CC4B23E
:10120000B442F6DBFFF736FF0120BDE8F08110B5F0
:10121000FFF782FE022000F010F8032000F021F812
:10122000002000F014F8002000F037F8002000F053
:101230002BF8002000F01FF810BD38B5044603233A
:1012400002226B21D0200094FFF77FFF38BD38B514
:101250000446022304221C21D0200094FFF775FFCE
:1012600038BD38B50446022304221B21D020009447
:10127000FFF76BFF38BD10B5044623460122372126
:10128000D020FFF742FF10BD10B5044623460522CB
:101290006A21D020FFF739FF10BD10B50446234660
:1012A00006226B21D020FFF730FF10BD00BFFEE704
:1012B0007047000070B5002100230F22C47804B3EA
:1012C000154C246804F4E064C4F5E064210AC1F11B
:1012D0000403CA40447804FA03F18478144021439B
:1012E00009010E4C0678A155047804F01F0501246D
:1012F000AC4005786D11AD0005F1E025C5F8004161
:1013000009E0047804F01F050124AC40044D067880
:10131000761145F8264070BD0CED00E000E400E0D9
:1013200080E100E002490143024A11607047000079
:101330000000FA050CED00E070B500240EE000217D
:10134000204600F0E6F8002504E0002000F06AF9ED
:10135000681CC5B2802DF8DB601CC4B2082CEEDB23
:1013600070BD000008B50121082000F0E5F94FF438
:101370008070ADF8000014208DF8030003208DF874
:10138000020069460A48FFF7ECFC4FF40070ADF824
:10139000000069460648FFF7E4FC012211020448F8
:1013A000FFF773FD012251020148FFF76EFD08BDF2
:1013B000000C014070B50546002415E08020204156
:1013C00000EA05024FF400710E48FFF75EFD0122AE
:1013D00011020C48FFF759FD00224FF480710948B3
:1013E000FFF753FD601CC4B2082CE7DB0122110299
:1013F0000448FFF74AFD00224FF480710148FFF7CF
:1014000044FD70BD000C014010B5012251020A4894
:10141000FFF73BFD012211020748FFF736FD0022CE
:101420004FF400710448FFF730FD00224FF4807143
:101430000148FFF72AFD10BD000C014010B5002245
:101440004FF400710648FFF720FD01221102044805
:10145000FFF71BFD012251020148FFF716FD10BDE9
:10146000000C014070B5002406E0002500E06D1C72
:10147000B5F57A7FFBD3641CB4F57A7FF5D3FFF71B
:1014800071FFAE2000F0BEF8D52000F0BBF8802040
:1014900000F0B8F8A82000F0B5F83F2000F0B2F84E
:1014A000D32000F0AFF8002000F0ACF8402000F0AE
:1014B000A9F8A12000F0A6F8C82000F0A3F8DA20CF
:1014C00000F0A0F8122000F09DF8812000F09AF8BA
:1014D000CF2000F097F8D92000F094F8F12000F028
:1014E00091F8DB2000F08EF8302000F08BF8A4207B
:1014F00000F088F8A62000F085F88D2000F082F832
:10150000142000F07FF8AF2000F07CF8FFF714FF04
:1015100070BD70B505460C4645F0B00000F072F89D
:10152000102141EA141000F06DF804F00F0000F0F3
:1015300069F870BD2DE9F04105460E461746721E4A
:10154000D206110E6A1E5206100EFFF7E2FF0024AB
:1015500009E0A7F12001134A02EB0111085D00F038
:1015600061F8601CC4B2082CF3DB721ED206110EA7
:101570006A1E012303EB4202D0B2FFF7CAFF002428
:101580000BE0A7F12001074A02EB011204F1080168
:10159000505C00F047F8601CC4B2082CF1DBBDE8D9
:1015A000F08100000A6300082DE9F04107460E466D
:1015B0001546002407E02A5D3019C1B23846FFF70E
:1015C000B9FF601CC4B2285D0028F4D1BDE8F081E9
:1015D0002DE9F8430546884614462046FEF767FF86
:1015E000064632460B4605A1684600F051FD6A46A4
:1015F00041462846FFF7D8FFBDE8F883252E31661F
:101600002020200010B50446FFF7FEFE7820FFF7EB
:10161000D1FE0020FFF7CEFE2046FFF7CBFEFFF7FE
:101620000DFF10BD10B50446FFF7EEFE7820FFF762
:10163000C1FE4020FFF7BEFE2046FFF7BBFEFFF7CE
:10164000FDFE10BD08B50121042000F075F8012150
:10165000042000F071F8C020ADF8000018208DF8CB
:10166000030003208DF8020069460248FFF779FB6A
:1016700008BD00000008014010B5FFF7E3FF00F0CF
:1016800001F810BD00B587B00121022000F044F838
:101690000020ADF8160044F61F60ADF81400472096
:1016A000ADF810000020ADF8120004A90E4800F0BB
:1016B000C9FB6020ADF800000020ADF80800012053
:1016C000ADF802000020ADF806006946064800F0BB
:1016D00017FB6946044800F05FFB0121024800F057
:1016E000E9FA07B000BD00000004004010B5044650
:1016F0002146024800F0A2FB10BD0000000400409B
:1017000010B504462146024800F09AFB10BD0000C7
:10171000000400407047000029B1064AD269024324
:10172000044BDA6104E0034AD2698243014BDA6177
:10173000704700000010024029B1064A9269024336
:10174000044B9A6104E0034A92698243014B9A6117
:10175000704700000010024030B500210022002434
:1017600000232D4D6D6805F00C0121B1042905D031
:10177000082923D105E0294D056022E0274D0560A9
:101780001FE0254D6D6805F47012234D6D6805F45A
:101790008034022505EB92421CB9214D554305606A
:1017A0000BE01D4D6D6805F400351DB11C4D554312
:1017B000056002E0194D5543056002E0174D0560D4
:1017C00000BF00BF144D6D6805F0F0010909154D0B
:1017D0006B5C0568DD4045600F4D6D6805F4E061A8
:1017E000090A104D6B5C4568DD4085600A4D6D68E7
:1017F00005F46051C90A0B4D6B5C4568DD40C5605E
:10180000054D6D6805F44041890B074D6B5CC5685B
:10181000B5FBF3F5056130BD0010024000127A00FF
:1018200000093D0000000020100000202DE9F04FCD
:101830008FB00CA889490DAB08AACDE900108849E2
:10184000884801F04DFE8548008800F4807000282B
:101850007ED00898FEF7F0FD04464FF09D41FEF75C
:101860003BFD814908600998FEF7E6FD04464FF00C
:101870009D41FEF731FD7D4908600A98FEF7DCFDC9
:1018800004464FF09D41FEF727FD794908600B980B
:10189000FEF7D2FD04464FF09D41FEF71DFD754950
:1018A0000860714801684FF08040FEF7E3FC069045
:1018B0006F4801680698FEF7DDFC82466B480168B8
:1018C0004FF04040FEF7D6FC06906A480168069843
:1018D000FEF7D0FC83465146FEF774FC0790FEF7F6
:1018E000E6FD804601F01CF906464FF06632624B79
:1018F000FEF730FD0446FEF7EDFD604908605C48E8
:1019000001684FF08040FEF7B5FC0390584801682D
:101910000398FEF7AFFC8246544801684FF0404000
:10192000FEF7A8FC0390514801680398FEF7A2FC5B
:1019300083465146FEF798FC81464FF07E51FEF7F4
:1019400041FC0446FEF7B3FDCDE90401464800E042
:1019500081E001684FF08040FEF78CFC83464348ED
:1019600001685846FEF786FC8146414801684FF001
:101970008040FEF77FFC83463E4801685846FEF7EC
:1019800079FC82464946FEF71DFC0446FEF78FFDB2
:101990000746DDE9042301F00BFB4FF06632364BBE
:1019A000CDE90601FEF7D6FC0546FEF793FD344966
:1019B0000860304801680068FEF75CFC03902C4822
:1019C00001680068FEF756FC02902848016800682C
:1019D000FEF750FC8346244801680068FEF74AFC85
:1019E00059460190FEF7EEFB82460299FEF73CFC59
:1019F00081460399FEF738FC0446FEF758FDCDE911
:101A000004011C48016818480068FEF733FC824650
:101A10001748016815480068FEF72CFC83465146BC
:101A2000FEF7D0FB81464FF08041FEF723FC0446D1
:101A3000FEF73DFD0746DDE9042301F0B9FA4FF05A
:101A400066320D4BCDE90601FEF784FC0546FEF734
:101A500041FD0C4908600FB0BDE8F08F5400002034
:101A60004E00002048000020640000206800002094
:101A70006C0000207000002066A64C40580000203A
:101A80005C00002060000020704710B5FFF7F4FDF7
:101A9000FFF7BDFBFFF75CF800F026FA10BD000071
:101AA0002DE9F04104460A492046FEF715FC804620
:101AB0000849FEF7DFFB07460749FEF783FB0646AA
:101AC000FEF7E1FC85B22846FFF710FEBDE8F08185
:101AD000000034430000FA440080BB442DE9F0418B
:101AE00004460A492046FEF7F7FB80460849FEF700
:101AF000C1FB07460749FEF765FB0646FEF7C3FC38
:101B000085B22846FFF7FCFDBDE8F08100003443B4
:101B10000000FA440080BB4410B500F001F810BD8D
:101B20000CB50020019000903348006840F48030EC
:101B30003149086000BF3048006800F40030009070
:101B40000198401C0190009818B90198B0F5A06F59
:101B5000F1D12948006800F4003010B10120009054
:101B600001E0002000900098012843D1234800683C
:101B700040F01000214908600846006820F003008A
:101B800008600846006840F0020008601A48406893
:101B9000194948600846406848600846406840F473
:101BA000806048600846406820F47C104860084621
:101BB000406840F4E81048600846006840F08070D3
:101BC000086000BF0C48006800F000700028F9D0E1
:101BD0000948406820F0030007494860084640680B
:101BE00040F00200486000BF0348406800F00C006D
:101BF0000828F9D10CBD000000100240002002406E
:101C00007047000010B51348006840F0010011490A
:101C1000086008464068104908400E494860084678
:101C200000680E4908400B4908600846006820F427
:101C3000802008600846406820F4FE0048604FF4A9
:101C40001F008860FFF768FF4FF0006004490860DC
:101C500010BD0000001002400000FFF8FFFFF6FE7C
:101C600008ED00E010B50121880700F02FF80128E9
:101C700015D10B48007870B90A480078401C094912
:101C8000087008460078042805DB01200449087024
:101C90000020044908700121880700F008F810BDF1
:101CA0001400002084000020CA4302827047CA4307
:101CB0000282704721B1028842F00102028004E0F2
:101CC00002884FF6FE731A400280704730B5024614
:101CD000002000230024158A05EA0103958905EAFE
:101CE000010413B10CB1012000E0002030BD1AB195
:101CF00083890B43838102E083898B43838170470F
:101D000070B5002400220023058C4FF6FE76354086
:101D10000584028C8388048B4FF68F752C40B51E8A
:101D20002C400D882C43751E2A400D892A434D886E
:101D30002A43144DA8420BD0134DA84208D0134D8E
:101D4000A84205D0124DA84202D0124DA84213D18C
:101D50004FF6F7752A404D892A434FF6FB752A4006
:101D60008D882A434FF6FF652B404FF6FF552B40D9
:101D70008D892B43CD892B4383800483CD88858631
:101D8000028470BD002C014000340140004001403D
:101D9000004401400048014070B5002400220023A7
:101DA000058C4FF6EF7635400584028C8388048BD2
:101DB00048F6FF752C404FF6FF452C400D884FF636
:101DC000FF7606EA05252C434FF6DF752A400D897C
:101DD00006EA05152A434D8806EA05152A43154DDE
:101DE000A84202D0144DA8421DD14FF67F752A405B
:101DF0004D894FF6FF7606EA05152A434FF6BF7563
:101E00002A408D8806EA05152A434FF6FF352B40F8
:101E10004FF2FF752B408D8906EA85052B43CD894E
:101E200006EA85052B4383800483CD8805870284D9
:101E300070BD0000002C01400034014081867047D5
:101E400001877047002202881D4B98420ED01D4B1F
:101E500098420BD0B0F1804F08D01B4B984205D070
:101E60001A4B984202D01A4B984204D14FF68F7306
:101E70001A404B881A43174B984207D0164B98428A
:101E800004D04FF6FF431A40CB881A4302808B8858
:101E900083850B8803850A4B98420BD0094B9842E7
:101EA00008D00E4B984205D00D4B984202D00D4BF6
:101EB000984201D10B7A0386012383827047000088
:101EC000002C0140003401400004004000080040A4
:101ED000000C004000100040001400400040014091
:101EE00000440140004801401FB501210846FFF7AA
:101EF00013FC0020ADF80600ADF80A0040F26710B0
:101F0000ADF8080040F2E730ADF8040001A94FF049
:101F10008040FFF797FF01218807FFF7C5FE0122E8
:101F200011469007FFF7E3FE4FF4A060FFF7FAF9C0
:101F30001C208DF8000001208DF8030002208DF890
:101F4000010001208DF802006846FFF7B3F9012176
:101F50008807FFF7AFFE1FBD21B1828942F400520E
:101F6000828104E082894DF6FF731A4082817047B6
:101F700002460020B1F5007F00D100BF13880B405E
:101F80000BB1012000E00020704700002DE9F04770
:101F900086B005460E460024A24600BFA146002793
:101FA000B08900B100BF2F462C8A4CF6FF70044068
:101FB000F08804432C82AC894EF6F3100440B088BC
:101FC00031890843718908430443AC81AC8A4FF6D8
:101FD000FF400440B0890443AC8201A8FFF7BCFB7A
:101FE0001F48874202D1DDF810A001E0DDF80CA007
:101FF000A88900F4004040B10AEBCA0000EB0A10C7
:1020000031684900B0FBF1F807E00AEBCA0000EBC9
:102010000A1031688900B0FBF1F86420B8FBF0F0D9
:1020200004012009642101FB1089A88900F4004003
:1020300040B1322000EBC900B0FBF1F000F0070026
:10204000044308E0322000EB09106421B0FBF1F0FA
:1020500000F00F0004432C8106B0BDE8F0870000BB
:1020600000380140C1F308028280704700BFFEE7DC
:102070000FB4054B10B503A9044A029800F060F9AB
:1020800010BC5DF814FB0000913D000888000020A2
:102090000FB4084B10B504A902AA039800F050F938
:1020A000044602A9002000F0E2FC204610BC5DF8C6
:1020B00014FB00006F2A0008490050EAC12018BF35
:1020C00004204A0D18BF40F0010040F2FF72B2EB4D
:1020D000515F08BF40F00200012808BF052070478B
:1020E0002DE9F0414F1E00EBC7010446D1E9000184
:1020F00015461E4637F006020DD02A463346FEF737
:1021000029F97F1E04EBC703D3E90023FEF7EDFA9C
:1021100037F00602F1D1022F25D0042F13D0062F5D
:1021200018BFBDE8F0812A463346FEF713F9D4E91B
:102130000A23FEF7DAFA2A463346FEF70BF9D4E90A
:102140000823FEF7D2FA2A463346FEF703F9D4E90C
:102150000623FEF7CAFA2A463346FEF7FBF8D4E90F
:102160000423FEF7C2FA2A463346FEF7F3F8D4E911
:102170000223FEF7BAFA2A463346FEF7EBF8D4E913
:102180000023BDE8F041FEF7B0BA0122FEF7C3BB61
:10219000FEF7ABBA0022134610461146FEF74CBBC1
:1021A000024A00201107FEF7B6BB000001FDFFFF49
:1021B00002E008C8121F08C1002AFAD17047704710
:1021C000002001E001C1121F002AFBD1704700006E
:1021D00001490860704700008C0000202DE9FF5F76
:1021E000DDE90220010DDDF838B0024318D044F6D5
:1021F0001050A1F2FF3141430D140F98012820D057
:10220000A5EB0B00401C5FEA000A4FF00004474EAC
:10221000DFF81C91A046504616D5CAF1000728E009
:102220000F98012443A2012808D0002100980F9B99
:10223000C0E90021C0E90243BDE8FF9F6FEA0B013E
:10224000F4E7CBF10000DEE7074612E0F80707D01D
:102250002246334640464946FEF77CF8804689468A
:102260002246334610461946FEF774F804460E46D9
:102270007F10002FEAD1DDE90201BAF1000F4246DA
:102280004B4602DAFEF766F801E0FEF7D5FA04469F
:102290000E460022284BFEF76DFB03D84FF0FF30AF
:1022A000014607E00022254B20463146FEF71DFA85
:1022B000FEF748FB102409E0002C0ADB0A22002369
:1022C000FEF74EF9019B30321A55641E50EA0102A6
:1022D000F2D1641C019AC4F1110314440F9A012A2B
:1022E00003D0012208430DD10AE0084304D00020A6
:1022F0004FF0110B0F9080E7A3EB0B056D1E0DE067
:102300005B4504DD4FF0000205F1010504E003DA4E
:102310004FF00002A5F10105002AECD000980F99BA
:10232000C0E90231C0E9004586E700000000244012
:102330000000F03F300000000000F0430000E03FEC
:102340002DE9FF4F95B09B468946064600250FE2D2
:10235000252877D100242746F84A0121059400E07A
:10236000044316F8013F203B01FA03F01042F7D175
:1023700030782A2811D06FF02F033078A0F1300286
:10238000092A16D8059A44F0020402EB820203EBF4
:1023900042021044761C0590EFE759F8042B059291
:1023A000002A03DA504244F40054059044F0020439
:1023B000761C30782E2816D116F8010F44F004044C
:1023C0002A280DD06FF02F023078A0F13003092BAE
:1023D00009D807EB870302EB4303C718761CF3E722
:1023E00059F8047B761C30786C280FD006DC4C281A
:1023F00017D068280DD06A2814D104E0742810D0B2
:102400007A280FD10DE044F400140AE044F480145B
:1024100001E044F440147278824202D104F5801441
:10242000761C761C307866280BD013DC582877D0C1
:1024300009DC002875D04528F6D04628F4D0472876
:102440001AD19DE118E0632835D0642879D0652839
:1024500012D195E1702873D008DC6728F1D0692883
:102460006FD06E280DD06F2806D1B5E073282CD020
:10247000752875D0782874D05A46179990476D1CE6
:1024800075E1C4F30250022809D003280DD0D9F811
:10249000001004280DD00D6009F1040967E1D9F896
:1024A0000010EA17C1E90052F6E7D9F800100D80D4
:1024B000F2E70D70F0E719F8041B8DF8001000200A
:1024C0008DF80100EA46012003E059F804AB4FF013
:1024D000FF3061074FF0000102D40DE008F1010167
:1024E0008846B9420FDA8045F8DB1AF8081000294F
:1024F000F4D108E008F1010188468142FADB1AF8BC
:1025000008100029F6D105985B46A0EB0807214684
:102510003846179A00F094FA284400EB080507E0C3
:102520004DE029E10DE01AF8010B5A461799904742
:10253000B8F10108F7D25B4621463846179A13E1F5
:1025400042E00A220092C4F302524FF0000A022A2B
:1025500008D059F804CB032A4FEAEC710AD00DE0F9
:1025600029E02AE009F1070121F00702F2E802C19F
:10257000914609E00FFA8CFC4FEAEC71042A03D172
:102580004FFA8CFC4FEAEC71002907DA0A46002169
:10259000DCF1000C61EB02012D2202E0220504D5E2
:1025A0002B228DF80420012203E0E20701D0202233
:1025B000F7E7904659E00A2102E010220DE01021D1
:1025C0004FF0000A00910BE010224FF0000A44F097
:1025D00004040827009203E008224FF0000A00924A
:1025E000C4F30252022A05D059F804CB0021032A71
:1025F00008D009E009F1070121F00702F2E802C161
:10260000914605E01FFA8CFC042A01D10CF0FF0C66
:102610004FF00008220728D5702806D0009B83F0D1
:10262000100353EA0A0305D00EE040228DF804207F
:10263000012208E05CEA010206D030228DF8042075
:102640008DF8050002229046009B83F0080353EAB0
:102650000A030AD15CEA010201D1620705D53022E2
:102660008DF804204FF001087F1E582804D034A0B4
:1026700003900EA802900DE036A0F9E7534660469D
:10268000009AFDF76DFF84460398825C0298401E15
:10269000029002705CEA0100F0D1029806A9081AC3
:1026A00000F1200A600702D524F4803400E00127FD
:1026B000574502DDA7EB0A0000E0002000EB0A010D
:1026C000009005984144401A0590E00306D45B460B
:1026D0002146179A059800F0B3F90544002706E053
:1026E00001A85A46C05D179990476D1C7F1C47454D
:1026F000F6DBE0030CD55B462146179A059800F0FF
:102700009FF9054404E030205A46179990476D1C04
:102710000099481E00900029F5DC08E00298029913
:102720005A460078491C0291179990476D1CBAF1DE
:102730000001AAF1010AF1DC65E1000009280100AD
:102740003031323334353637383961626364656627
:1027500000000000303132333435363738394142E9
:10276000434445460000000000F058F90544761C3B
:10277000307800287FF4ECAD19B02846BDE8F08F22
:10278000620700D4062709F1070222F0070CFCE8D3
:102790000223E14603F000485FEA080C02D00FF282
:1027A000702C0DE05FEA045C02D50FF2682C07E0A4
:1027B0005FEAC47C02D00FF2602C01E0AFF2700C33
:1027C0004FF0FF3823F00043CDF850C065280CD0FF
:1027D00006DC452809D046281DD047283DD13DE0DC
:1027E000662818D067287ED138E00021112F01DB40
:1027F000112000E0781CCDE9000106A90EA8FFF722
:10280000EDFCDDE90F010E9A03910021009207F122
:10281000010A04914DE04FF000400097CDE901100E
:1028200006A90EA8FFF7DAFCDDE90F0203920E9B62
:1028300011990022DDF80CA00093049211B9791CC3
:1028400000EB010AB7EB0A0004D4C0F1FF3007F136
:10285000010A0490AAEB0700019044E0012F00DA7E
:1028600001270021112F01DD112000E03846CDE9BC
:10287000000106A90EA8FFF7B1FCDDE90F010E9AD1
:102880000391002104910092BA4621070CD40399C8
:10289000514500DA8A46BAF1010F05DD009AAAF126
:1028A0000101515C302908D0B84202DA10F1040F5E
:1028B00006DA0121CDE9011015E0AAF10101E9E7ED
:1028C000002805DC049901440491AAEB000102E010
:1028D000411C514500DD8A460499401A401C019074
:1028E0004FF000400290200704D40198504501DBCE
:1028F000CDF8048000208DF84F0002980DF14F07AD
:10290000B0F1004F25D02B200E9002984FF0020816
:1029100000280CDA404202902D200E9007E00A2198
:102920000298FDF707FE3031029007F8011DB8F15B
:102930000001A8F10108F2DC02980028EFD1791E0D
:102940000E980870307800F0200040F0450007F83D
:10295000020D12A8C01B00F107081498007800B1FE
:10296000012000EB0A01019801EBE0710598414458
:10297000401A401E0590E00306D45B462146179A94
:10298000059800F05DF805441498007818B15A468F
:10299000179990476D1CE00324D55B462146179A92
:1029A000059800F04DF805441CE00498002807DB6A
:1029B000DDE90301884203DD0098405C179901E0DE
:1029C000179930205A469047049805F10105401C9C
:1029D00004900198401E019004D12E205A46179968
:1029E00090476D1CBAF10001AAF1010ADDDC05E097
:1029F00017F8010B5A46179990476D1CB8F1000162
:102A0000A8F10108F4DC5B462146179A0598ABE66D
:102A10002D0000002B000000200000002DE9F041F7
:102A2000044600251E461746880404D405E03946AE
:102A30002020B0476D1C641EF9D52846BDE8F08102
:102A40002DE9F041044600251E469046C80301D5F5
:102A5000302700E02027880404D505E041463846A9
:102A6000B0476D1C641EF9D52846BDE8F0810A68A0
:102A7000531C0B60107070472DE9FE4F06460F4641
:102A80000025684601F096F9002442E056F824003B
:102A900057F82410A0EB010ABAF1000F01DB5146F0
:102AA00001E0CAF100010846FDF7C6FC83464FF07D
:102AB0008F41FDF711FC80465DF824000021FDF7F1
:102AC00025FD16D05DF824104046FDF705FC824632
:102AD0004FF07E51FDF7C8FB814629F0004A0F48B0
:102AE000416A5046FDF71CFD12D20120A04005436B
:102AF0000EE00A48C1694046FDF708FD05D30748C6
:102B0000016A4046FDF70CFD02D20120A0400543BA
:102B1000641C032CBADB2846BDE8FE8FEC56000887
:102B20002DE9F04D8D4F21F0004A86B005460C4648
:102B3000BA452ADBAAEB070028430AD08848824519
:102B400001DC1AD1CDB106B02846BDE8F04DFFF743
:102B50001CBB844A844B2846FDF7FCFB07460E4607
:102B6000824A834B28462146FDF7F4FB06B03A46DD
:102B70003346BDE8F04DFDF7B8BD0120FFF728FB57
:102B800006B0BDE8F04DFFF705BB7A48824542DA52
:102B9000BAF1795F0BDA2846FFF78EFA042808BFEE
:102BA000FFF7FEFA284606B02146BDE8F08D2A461A
:102BB0000B461046FDF7CEFB834602466E480E4696
:102BC0000B4606217844FFF78BFA5A463346FDF749
:102BD000C1FB804669488A465A46334604217844F8
:102BE000FFF77EFA5A463346FDF7B4FB00223B4618
:102BF000FDF77BFD02460B4640465146FDF71CFEA5
:102C00002A462346FDF7A6FB06B02A462346BDE822
:102C1000F04DFDF76ABD284624F0004100223D46F4
:102C20003B46FDF706FE4FF0FF32FDF774FE064609
:102C3000024653480F460B4606217844FFF750FAE8
:102C400032463B46FDF786FBCDE900014D48324652
:102C50003B4604217844FFF743FA32463B46FDF7F2
:102C600079FB00222B46FDF740FD8346029130465A
:102C7000394602F001FD804643480D46504517DCB9
:102C8000DDE900015A46029BFDF7D6FD42462B4680
:102C9000FDF760FB42462B46FDF727FD0122FDF7BD
:102CA0003AFE304A304BFDF7C1FD304A304B4CE024
:102CB0004FF0000A52460B464046FDF716FDCDE99F
:102CC000031052462B4610461946FDF743FB324689
:102CD0003B46FDF7AEFDDDE90332FDF7ADFD0646EF
:102CE0000F46DDE900015A46029BFDF7A5FD83462C
:102CF0000091012230463946FDF70DFE194A1A4B64
:102D0000FDF797FD06460F46012240462946FDF78E
:102D100002FE5A46009BFDF71DFB32463B46FDF77F
:102D200085FD06460F46012250462946FDF7F3FD74
:102D30000E4DDFF858802A464346FDF77AFD3246AD
:102D40003B46FDF776FD2A464346FDF772FD002C13
:102D5000D8BF81F0004106B0BDE8F08D0000F03F23
:102D60000000F07F075C143326A6913C182D4454D4
:102D7000FB21F93F0000E03F383D00004E3D0000E0
:102D8000C23C0000D83C00003333EF3FFB21E93F59
:102D90002DE9F84F04460D4621F00040009173499B
:102DA000814211DC7249884201DC06D12CB12046F7
:102DB0002946BDE8F84FFFF7E8B96E48002DCCBFB3
:102DC0006D496E49BDE8F88F6D49814211DD6D494D
:102DD0008142D8BF4FF0FF366DDD20462946FFF710
:102DE0006BF9042808BFFFF7DBF920462946BDE848
:102DF000F88F6549654F25F00045814233DD644910
:102E0000814219DD002632464FF080432046294694
:102E1000FDF76BFC80468A46012220462946FDF7D5
:102E20007AFD00223B46FDF701FD42465346FDF781
:102E300003FD04460D463EE001260022BA463B460D
:102E400020462946FDF751FC80460F460022534696
:102E500020462946FDF7EAFC42463B46FDF7ECFCDE
:102E600004460D4627E04B4981421BDDDFF828A1CF
:102E700002260022534620462946FDF76BFA00221F
:102E80003B46FDF732FC80460F4600225346204663
:102E90002946FDF7CBFC42463B46FDF7CDFC0446F8
:102EA0000D4608E0032622462B4600203B49FDF74D
:102EB000C3FC04460D4622462B4610461946FDF734
:102EC00049FA8B46824602460B46FDF743FA07460F
:102ED0000246334888460B4606217844FFF700F93E
:102EE00052465B46FDF736FA82462E488B463A46F6
:102EF000434605217844FFF7F3F83A464346FDF789
:102F000029FA02460B46002E504659460CDAFDF7C8
:102F1000ECFB22462B46FDF71DFA01B022462B465C
:102F2000BDE8F04FFDF785BCFDF7DFFB22462B46E1
:102F3000FDF710FA1C4A7A4402EBC603D3E90023DA
:102F4000FDF774FC22462B46FDF770FC174A7A44C5
:102F500002EBC603D3E90023FDF76BFC009A002ABD
:102F6000B8BF81F00041BDE8F88F000000001044B8
:102F70000000F07F182D4454FB21F93FFB21F9BFDD
:102F80000000DC3F0000203E0000F33F0000F03F67
:102F90000000E63F008003400000F83F0000F0BF63
:102FA000DA3A0000983A0000363A0000FE39000094
:102FB0002DE9F04D9446CCF1000423F000464CEA94
:102FC0000404524F46EAD4749A46884621F00042DF
:102FD000BC4206D8454240EA050442EAD474BC42E9
:102FE00004D9BDE8F04D6246FFF7D2B8AAF14055CA
:102FF000A5F17F6555EA0C040BD0022404EAAA74FB
:10300000434DDFF810E144EAD87452EA000B04D0D3
:103010000CE0BDE8F04DFFF7BBBE002C14BF012C47
:10302000BDE8F08D022C30D0032C32D056EA0C0BC8
:103030000AD0BE4220D1BA4209D126F0804622F001
:1030400080423346114617E000291ADB25E0DFF8FD
:10305000C8B0FB44002C04BFDBE90001BDE8F08DE3
:10306000012C02BFDBE9000181F00041BDE8F08DD9
:10307000022C0AD0032C0CD0BA4212D1B8F1000FA6
:103080000BDA23482549BDE8F08D28462449BDE8E0
:10309000F08D28467146BDE8F08D1D482149BDE8F8
:1030A000F08D921B12153C2AC4BF19481D490EDC35
:1030B000BAF1000FBEBF12F13C0F0020014606DB43
:1030C0006246FDF7B9FB21F00041FFF761FE002CDD
:1030D00008BFBDE8F08D012C04BF81F00041BDE8C0
:1030E000F08D114A114B022C07D0FDF79FFB2A46A9
:1030F000BDE8F04D0A4BFDF799BBFDF797FB2A465B
:10310000BDE8F04D064BFDF794BB00000000F07FDA
:10311000182D4454FB2109C092390000FB21F9BF4E
:10312000FB210940FB21F93F075C143326A6A13C93
:103130002DE9F0410446E07800F0C006E07800F0A8
:103140003F05607800F0010098B1EF102846E917BC
:1031500005EB5171C910A5EBC101491C01F0FF0835
:103160000B48006820B10A4841460268384690473B
:1031700000BF607800F0080030B10548406818B121
:10318000B011034A516888470020BDE8F081000073
:103190009000002000B5034603E04FF47A7000F081
:1031A00005F81800A3F10103F7D100BD00EBC00141
:1031B000C9004FF0E02251610021916105211161A8
:1031C00000BF4FF0E021096901F480310029F8D0F7
:1031D00004214FF0E0221161704738B5044664B114
:1031E00020208DF8000028208DF8010030208DF877
:1031F000020038208DF8030004E0A3220421684671
:10320000FCF7C1FF6A46042140F69E2002F04CF90B
:1032100001F03CFD38BD00003EB5044602208DF8AB
:103220000000CA208DF80100E3208DF8020009207B
:103230008DF803006A460421682002F035F9A320C6
:103240008DF8000004F0400048B1C0208DF8010066
:10325000C8208DF80200C2208DF8030006E0A320EC
:103260008DF801008DF802008DF8030004F4C070A1
:1032700048B1C4208DF80400CC208DF80500C6208C
:103280008DF8060006E0A3208DF804008DF80500F7
:103290008DF80600A3208DF807008DF808008DF842
:1032A00009006A460A2140F6A72002F0FDF804F062
:1032B000030018B120208DF8000002E0D8208DF81E
:1032C00000006A46012140F6B62002F0EDF804F055
:1032D000200018B1012000F0ADF802E0002000F05D
:1032E000A9F804F4C07008B304F4807060B1B2208F
:1032F0008DF800008B208DF80100B6208DF80200BB
:103300009B208DF803000BE0B0208DF8000080209A
:103310008DF80100B4208DF8020090208DF8030094
:103320006A46042140F6A22002F0BEF804F0010033
:1033300020B3F8208DF800006A4601214FF40B609D
:1033400002F0B2F8FA21072000F02CFC072000F070
:10335000F3FB012000F013FC642000F0F3FC4FF4B9
:10336000FA7000F002FDC821304800F0A3FB2820CD
:1033700000F0BCFB0A2000F0CCFB08E0D8208DF860
:1033800000006A4601214FF40B6002F08DF804F052
:10339000020018B1D9208DF8000002E0D8208DF885
:1033A00000006A46012140F23D7002F07DF804F011
:1033B000040018B1012000F069F802E0002000F0DC
:1033C00065F804F0100018B10120FFF706FF02E0D5
:1033D0000020FFF702FF44F008001549488101F082
:1033E00055FC00201249887304F0400018B10846CB
:1033F000807B801D887304F4C07020B10C48807BF2
:10340000801D0B49887304F0140020B10848807BAC
:1034100010300749887304F0030020B10448807B12
:10342000001D0349887300203EBD000009E3CA0265
:10343000900000203EB504466CB10EA1D1E90020F9
:103440008968CDE9002002916A4609214FF497600E
:1034500002F02AF83EBD0AA2D2E900109268CDE936
:10346000010200916A4609214FF4976002F01CF8AE
:10347000F0E70000B8AAB38DB4980D355D000000E8
:10348000B8AAAAAAB088C3C5C700000038B50446C8
:1034900064B1C0208DF80000C2208DF80100C42066
:1034A0008DF80200C6208DF8030004E08B22042171
:1034B0006846FCF768FE6A46042140F6982001F051
:1034C000F3FF01F0E3FB38BD10B5C8234FF4806271
:1034D000024940F6F63001F06DFA10BD14570008AD
:1034E0002DE9F04F8DB00746884615469946DDE92F
:1034F000166B0024002030806B49887B5A4605A952
:1035000001F024FB18B1601E0DB0BDE8F08F6648D5
:10351000807A00F01400002867D09DF8140000069F
:103520009DF8151040EA01409DF8161040EA012070
:103530009DF81710084328609DF8180000069DF8B4
:10354000191040EA01409DF81A1040EA01209DF848
:103550001B10084368609DF81C0000069DF81D10B4
:1035600040EA01409DF81E1040EA01209DF81F101E
:103570000843A8609DF8200000069DF8211040EA4D
:1035800001409DF8221040EA01209DF823100843D5
:10359000E86004F11000C4B2286800140190686863
:1035A00000140290A86800140390E86800140490C6
:1035B00001984043029901FB0100039901FB0100BE
:1035C000049901FB010ABAF1706F02DBBAF1885F5E
:1035D00005DD01F05BFB00203080401E94E7B6F96A
:1035E000000040F48070308000BF2F48807A00F0E7
:1035F000400020B305A9601C085C095D40EA012079
:1036000000B2A8F8000005A9E01C095C05AAA01CEE
:10361000105C41EA002000B2A8F8020005A9601D74
:10362000095C201D105C41EA002000B2A8F80400EB
:10363000A01DC4B2B6F9000040F0080030801A485E
:10364000408900F4C07008B305A9601C085C095DDE
:1036500040EA012000B2388005A9E01C095C05AAF7
:10366000A01C105C41EA002000B2788005A9601D12
:10367000095C201D105C41EA002000B2B880A01D4A
:10368000C4B2B6F9000040F0700030800648807A7D
:1036900000F0030018B105A90819FFF749FD4846D5
:1036A00001F042FF00202FE79000002070B588B0A5
:1036B000064601A800F0D2FFBDF804000021C903AE
:1036C00041EA5045C4034448007A00F0030056F82C
:1036D000200005904048007A00F0040010B10598E1
:1036E000404205903C48007AC0F3C10056F82000E3
:1036F00006903948007A00F0200010B10698404248
:1037000006903548007AC0F3811056F820000790E3
:103710003148008900F4807010B10798404207904A
:103720000598C117A0FB042301FB043100FB051021
:10373000810041EA927005900698C117A0FB04230E
:1037400001FB043100FB0510810041EA92700690F4
:103750000798C117A0FB042301FB043100FB0510EF
:10376000810041EA927007900598000E8DF80800DC
:103770000598000C8DF809000598000A8DF80A00DC
:103780000598C0B28DF80B000698000E8DF80C005D
:103790000698000C8DF80D000698000A8DF80E00B2
:1037A0000698C0B28DF80F000798000E8DF8100033
:1037B0000798000C8DF811000798000A8DF8120088
:1037C0000798C0B28DF8130002AA0C214FF425709F
:1037D00001F06AFE08B070BD9000002030B585B0E1
:1037E000044616A207CA02AB07C3C82C03DD4FF07C
:1037F000FF3005B030BDC82090FBF4F0401E85B20C
:10380000280A8DF80000E8B28DF801006A4602210E
:1038100040F2162001F048FE10B14FF0FF30E8E70B
:1038200002AA0C2140F6C12001F03EFE10B14FF07B
:10383000FF30DEE7044884810020DAE7FEF2ABC403
:10384000AAF1DFDFBBAFDFDF900000201FB5044629
:103850004848007A00F0030054F8200001904548E1
:10386000007A00F0040010B10198404201904148F4
:10387000007AC0F3C10054F8200002903D48007A5D
:1038800000F0200010B10298404202903948007ABE
:10389000C0F3811054F8200003903648008900F4EA
:1038A000807010B10398404203903349019880FB27
:1038B0000101800F40EA810001902F49029880FBAE
:1038C0000110820042EA917002902B49039880FB1C
:1038D0000110820042EA917003900198000E8DF869
:1038E00000000198000C8DF801000198000A8DF885
:1038F00002000198C0B28DF803006A4604214FF41B
:10390000747001F0D1FD18B14FF0FF3004B010BD5C
:103910000298000E8DF800000298000C8DF801004E
:103920000298000A8DF802000298C0B28DF80300D8
:103930006A4604214FF4757001F0B6FD10B14FF0E6
:10394000FF30E3E70398000E8DF800000398000CA9
:103950008DF801000398000A8DF802000398C0B2A8
:103960008DF803006A4604214FF4767001F09CFD47
:10397000CCE700009000002009E3CA0210B586B031
:10398000044647A00068039046A00068029046A045
:103990000068019045A00068009004F0030003A9AE
:1039A000085C8DF8140003A8C4F3C101405C8DF8D5
:1039B000150003A8C4F38111405C8DF8160004F0D3
:1039C000030002A9085C8DF8100002A8C4F3C1012D
:1039D000405C8DF8110002A8C4F38111405C8DF8A1
:1039E000120005AA032140F2264001F05DFD18B146
:1039F0004FF0FF3006B010BD04AA032140F22A4068
:103A000001F052FD10B14FF0FF30F3E7019805903F
:103A10000098049004F0040058B19DF8140040F0A0
:103A200001008DF814009DF8100040F001008DF8A1
:103A3000100004F0200058B19DF8150040F001007E
:103A40008DF815009DF8110040F001008DF811006F
:103A500004F4807058B19DF8160040F001008DF814
:103A600016009DF8120040F001008DF8120005AA22
:103A700003214FF4886001F017FD10B14FF0FF30C3
:103A8000B8E704AA032140F2314001F00DFD10B166
:103A90004FF0FF30AEE7064804810020AAE700009F
:103AA0004CCD6C000CC92C003656760026466600BC
:103AB00090000020F8B505460E464FF47A7095FB4D
:103AC000F0F000FB06F4200E8DF80000200C8DF8BD
:103AD0000100200A8DF80200E0B28DF803006A466A
:103AE00004214FF4AE7001F0DFFCF8BD38B5044698
:103AF000052094FBF0F084B220128DF80000E0B2B3
:103B00008DF801006A4602214FF4AD7001F0CCFC43
:103B100038BD38B50446052094FBF0F084B220127D
:103B20008DF80000E0B28DF801006A4602214FF4E2
:103B3000AC7001F0B9FC38BD38B5044600200090E7
:103B400004F0010020B19DF8000040F0300000902A
:103B500004F0020020B19DF8000040F00C0000903D
:103B600004F0040020B19DF8000040F00300009034
:103B70006A4601214FF4A47001F096FC38BD38B5B7
:103B80000446012C01DA012402E0042C00DD0424A7
:103B9000601EC0B200906A46012140F24F1001F051
:103BA00083FC38BD2DE9FC4706460F4606F00700AA
:103BB00010B1B7F5C86F03DD4FF0FF30BDE8FC87EB
:103BC0003846FCF742FC81465949FCF785FB8046A4
:103BD000684600F01DFD9DF80000022806D004286C
:103BE00016D0082826D0102848D135E04FF08D4156
:103BF0004046FCF73FFB8146FCF745FC84B24D494B
:103C00004046FCF737FB8146FCF73DFC85B238E0C7
:103C10004FF08C414046FCF72DFB8146FCF733FC0E
:103C200084B245494046FCF725FB8146FCF72BFC56
:103C300085B226E04FF08B414046FCF71BFB8146E6
:103C4000FCF721FC84B23D494046FCF713FB81465A
:103C5000FCF719FC85B214E04FF08A414046FCF7AE
:103C600009FB8146FCF70FFC84B235494046FCF75E
:103C700001FB8146FCF707FC85B202E04FF0FF3004
:103C80009CE700BF20128DF80400E0B28DF805001B
:103C900028128DF80600E8B28DF8070006F0010042
:103CA000A0B101AA02214FF4EA7001F0FDFB10B1AE
:103CB0004FF0FF3082E70DF1060202214FF49270BF
:103CC00001F0F2FB10B14FF0FF3077E706F0020091
:103CD000A0B101AA02214FF4EC7001F0E5FB10B194
:103CE0004FF0FF306AE70DF1060202214FF49470A5
:103CF00001F0DAFB10B14FF0FF305FE706F004008F
:103D0000A0B101AA02214FF4EE7001F0CDFB10B179
:103D10004FF0FF3052E70DF1060202214FF496708A
:103D200001F0C2FB10B14FF0FF3047E7002045E73C
:103D300000004843000040460000C04500004045E8
:103D40000000C04438B50446052094FBF0F085B26D
:103D500028128DF80000E8B28DF801006A460221B1
:103D60004FF4EF7001F0A0FB38BD38B504460520D4
:103D700094FBF0F085B228128DF80000E8B28DF8BF
:103D800001006A4602214FF4ED7001F08DFB38BD51
:103D900070B504460D46E1B20548FEF763F900BF71
:103DA00080210348FEF7E4F80028F9D0204670BDD2
:103DB000003801407CB5054628494968087801ABC0
:103DC00004220D2100F010FB08B107207CBD9DF8F6
:103DD0000700C0F301109DF8041001F0E00140EA73
:103DE000E1008DF800009DF80700C0F381009DF808
:103DF000051001F0E00140EAE1008DF801009DF8B6
:103E0000070000F003009DF8061001F0E00140EA11
:103E1000E1008DF8020000241CE01DF8040018B930
:103E2000002045F8240013E00D4845F8240006E082
:103E300055F824000B49FCF71DFA45F824001DF83D
:103E40000400401EC0B20DF804000028F0D100BFED
:103E5000601CC4B2032CE0DB0020B7E71C0000208C
:103E60007B14AE3E1D5A843F2DE9F04F87B00546C6
:103E70000C46914601208DF8100000208DF81100AD
:103E8000FE4A1268917CFD4A5268107804AB022207
:103E900000F0E2FA20B14FF0FF3007B0BDE8F08F3C
:103EA000C820FFF777F900208DF81000F34A126858
:103EB000D17BF24A5268107804AB012200F0CCFAB0
:103EC00010B14FF0FF30E8E7EC4A12685179EB4A45
:103ED0005268107804AB012200F0BEFA10B14FF026
:103EE000FF30DAE7E54A1268917CE44A52681078BC
:103EF00004AB012200F0B0FA10B14FF0FF30CCE774
:103F0000DE4A1268D17DDD4A5268107804AB012286
:103F100000F0A2FA10B14FF0FF30BEE7D74A1268A6
:103F20001179D64A5268107804AB012200F094FA55
:103F300010B14FF0FF30B0E70C208DF81000CF4AE1
:103F400012681179CD4A5268107804AB012200F052
:103F500083FA10B14FF0FF309FE70F20FFF71AF9F7
:103F6000C648806A407A8DF81000C44A1268917879
:103F7000C24A5268107804AB012200F06DFA10B109
:103F80004FF0FF3089E7BD48806A007A8DF8100055
:103F9000BA4A12685178B94A5268107804AB0122C3
:103FA00000F05AFA10B14FF0FF3076E7B9F1000F88
:103FB00007D0B248806A807A40F0E0008DF81000A7
:103FC00004E0AE48806A807A8DF81000AB4A12682F
:103FD0009179AA4A5268107804AB012200F03CFAA9
:103FE00010B14FF0FF3058E7B9F1000F07D0A348E8
:103FF000806AC07A40F0E0008DF8100003E0A0482D
:10400000C07A8DF810009D4A1268D1799B4A526897
:10401000107804AB012200F01FFA10B14FF0FF300E
:104020003BE7B9F1000F02D0C820FFF7B3F84020FA
:104030008DF81000914A12681179904A52681078F0
:1040400004AB012200F008FA10B14FF0FF3024E772
:1040500078208DF81000894A12685179874A526891
:10406000107804AB012200F0F7F910B14FF0FF30E7
:1040700013E783498889FFF78DF800208DF8100039
:104080007E4A126851797D4A5268107804AB012249
:1040900000F0E2F910B14FF0FF30FEE6774A126807
:1040A000917A764A5268107804AB022200F09CF9AB
:1040B00010B14FF0FF30F0E69DF811009DF81010A0
:1040C00040EA012B0C209BFBF0F0C6B20020A86058
:1040D00068602860A06060602060824665E0674A92
:1040E0001268D17A654A5268107804AB0C2200F04D
:1040F0007BF910B14FF0FF30CFE69DF811009DF82D
:10410000101040EA012000B2ADF808009DF813003D
:104110009DF8121040EA012000B2ADF80A009DF8A7
:1041200015009DF8141040EA012000B2ADF80C0013
:10413000BDF90810206808442060BDF90A106068C5
:1041400008446060BDF90C10A0680844A0609DF8A8
:1041500017009DF8161040EA012000B2ADF80000EB
:104160009DF819009DF8181040EA012000B2ADF842
:1041700002009DF81B009DF81A1040EA012000B2D1
:10418000ADF80400BDF90010286808442860BDF9A6
:104190000210686808446860BDF90410A868084403
:1041A000A8600AF1010000F0FF0AB24597DB34482D
:1041B000D0F800C02868C117090441EA104107047B
:1041C000624600233846FBF7ADFF32460023CDE9B7
:1041D0000201FBF7A7FF28602948D0F800C06868F3
:1041E000C117090441EA104107046246002338461A
:1041F000FBF798FF32460023CDE90201FBF792FF5F
:1042000068601F48D0F800C0A868C117090441EAD7
:1042100010410704624600233846FBF783FF32460D
:104220000023CDE90201FBF77DFFA8601448D0F818
:1042300004C02168C817000440EA11480F04624610
:10424000002338464146FBF76DFF32460023CDE997
:104250000201FBF767FF20600948D0F804C06068DE
:10426000C117090441EA1041070462460023384699
:10427000FBF758FF3246002304E000001C0000203A
:10428000EC560008CDE90201FBF74CFF60601148D5
:10429000D0F804C0A068C117090441EA104107041E
:1042A000624600233846FBF73DFF32460023CDE946
:1042B0000201FBF737FFA060A068002804DDA068BA
:1042C000A0F58030A06003E0A06800F58030A06019
:1042D0000020E2E5EC5600082DE9FC5F06460F469B
:1042E00000253D494968087801AB03220D2100F003
:1042F0007BF810B10720BDE8FC9F9DF8040000F09A
:104300001F008DF804009DF8050000F01F008DF8D7
:1043100005009DF8060000F01F008DF8060000243F
:1043200056E056F8240057F82410A0EB010BBBF11F
:10433000000F01DB594601E0CBF100010846FCF714
:104340007BF84FF08F410090FBF7C6FF814601A834
:10435000005D68B321490868FCF777F88346594641
:104360001F48FBF7B9FF804604E01E494046FBF7B3
:1043700081FF804601A8005D401EC0B201A908551A
:104380000028F2D141464846FBF7A6FF83464FF08E
:104390007E51FBF769FF82462AF0004B0F48816986
:1043A0005846FCF7BDF812D20120A04005430EE0AC
:1043B0000A4801694846FCF7A9F805D3074841694E
:1043C0004846FCF7ADF802D20120A0400543641C2A
:1043D000032CA6DB28468EE71C000020EC560008C4
:1043E00000B04C4554E3853F2DE9F04106460F46A9
:1043F00014461D46FCF724FE7106080EFCF700FE6D
:10440000FCF752FE20B9FCF735FE0120BDE8F08133
:104410003846FCF7F5FDFCF747FEFCF711FE0121DD
:1044200001EB4601C8B2FCF7EBFDFCF73DFE0DE0E9
:10443000012C04D10020FCF7B5FD287003E0012019
:10444000FCF7B0FD28706D1C601EC4B2002CEFD1CB
:10445000FCF710FE0020D9E72DE9F04105460E4695
:1044600017469846FCF7ECFD6906080EFCF7C8FDF8
:10447000FCF71AFE20B9FCF7FDFD0120BDE8F08134
:104480003046FCF7BDFDFCF70FFE00240BE018F8EA
:104490000400FCF7B5FDFCF707FE18B9FCF7EAFDD0
:1044A0000020EBE7641CBC42F1DBFCF7E3FD0020DD
:1044B000E4E770B50546284600F00FF80446E81C0E
:1044C00000F00BF844EAC00084B2A81D00F005F823
:1044D00044EA801084B2204670BD014691F9002064
:1044E000002A01DD00201EE091F90020002A01DAF7
:1044F000042018E091F90120002A01DD012012E0DA
:1045000091F90120002A01DA05200CE091F902203E
:10451000002A01DD022006E091F90220002A01DADA
:10452000062000E007207047FCF79CFFFCF7D0FA5C
:10453000FDF7ABFA13A201210220FDF735F813A213
:1045400001210320FDF730F81BE0FDF76FF911485A
:104550000068FDF7A5FA10480068FDF7BFFA0F489C
:10456000007870B10B48072102680220FDF730F88F
:104570000948082102680320FDF72AF800200749AE
:104580000870E2E7526F6C6C3A2000005069746367
:10459000683A20005C000020580000201400002031
:1045A00070B50446002624F00104184890F8240051
:1045B00008B1002070BD1548807A10B94FF0FF3067
:1045C000F8E71248057C807A2040104908740846B4
:1045D000007CA04202D04FF0FF3600E0002614B964
:1045E0000A48007D18B1012000F0FEFF02E0002023
:1045F00000F0FAFF3CB100F049FB20B1034805741C
:104600004FF0FF30D6E73046D4E700001C00002012
:1046100001461148407A30B1012807D0022808D05D
:1046200003280CD108E0022008700BE00420087079
:1046300008E00820087005E01020087002E04FF044
:10464000FF30704700BF0448C07C18B108784006AE
:10465000000E08700020F4E71C00002001461348FB
:10466000407A30B1012808D002280AD0032810D19E
:104670000BE04FF4804008800EE041F69C7008800B
:104680000AE04FF48050088006E04FF40060088094
:1046900002E04FF0FF30704700BF0448C07C10B10B
:1046A0000888401008800020F5E700001C0000206A
:1046B00001460248007C0870002070471C00002062
:1046C00001460F48007A30B1012807D0022809D0EE
:1046D00003280FD10AE0FA2008800EE04FF4FA70A8
:1046E00008800AE04FF47A70088006E04FF4FA6020
:1046F000088002E00020088000BF00BF0020704753
:104700001C00002001460E48007A30B1012807D075
:10471000022808D003280CD108E00A4808600BE002
:104720000948086008E00948086005E00848086092
:1047300002E04FF0FF30704700BF0020FBE70000B1
:104740001C00002000000343000083423333034277
:104750003333834101461248C07A082817D2DFE874
:1047600000F01704070A0D101318BC20088013E08E
:104770006220088010E02A2008800DE014200880C4
:104780000AE00A20088007E00520088004E000BF56
:1047900000BF0020088000BF00BF0020704700005D
:1047A0001C0000200146064890F8240010B14FF08C
:1047B000FF3070470248C08908800020F9E70000F8
:1047C0001C0000201CB580208DF80000654A12688E
:1047D000917C644A526810786B460122FFF73CFED8
:1047E00010B14FF0FF301CBD6420FEF7D3FC002059
:1047F0008DF800005B4A1268917C5A4A5268107822
:104800006B460122FFF728FE10B14FF0FF30EAE7B8
:10481000544A1268917D534A526810786B460622BA
:10482000FFF7E2FD10B14FF0FF30DCE79DF8050027
:10483000C007400F9DF8031001F0010140EA41005C
:104840009DF8011001F0010140EA010494B1012C2E
:1048500003D101214348C17431E0022C03D100216E
:104860004048C1742BE021463FA0FDF701FC4FF00A
:10487000FF30B8E73B4A1268D1783A4A526810785C
:104880006B460122FFF7B0FD10B14FF0FF30AAE7F1
:104890009DF8000000F00F042CB93D48FDF7E8FB3F
:1048A0004FF0FF309FE7042C06D13AA0FDF7E0FB64
:1048B00001212C48C17402E000212A48C174FF2163
:1048C00028488172FF2027490872FF21254841723C
:1048D000C1724FF6FF71C181FF2101748174012102
:1048E000017380F82210002180F8231041750175B2
:1048F0001630016041608160163880F8241080F81D
:104900002510C1844FF4FA6000F05CFC10B14FF048
:10491000FF3068E7022000F025FB10B14FF0FF30B8
:1049200061E72A2000F0C8FC10B14FF0FF305AE7D1
:10493000322000F003FD10B14FF0FF3053E70020AC
:10494000FFF72EFE10B14FF0FF304CE7002000F0D3
:104950004BFB10B14FF0FF3045E7002000F03CFD6D
:10496000002040E71C000020556E737570706F7258
:1049700074656420736F6674776172652070726FFE
:1049800064756374207265762025642E0A00000029
:10499000F069000848616C662073656E736974691C
:1049A00076697479207061727420666F756E642EFA
:1049B0000D0A00002DE9F04385B005460E469046ED
:1049C0009946294890F8250020B14FF0FF3005B0F6
:1049D000BDE8F08316B94FF0FF30F8E7002423E07C
:1049E000281B102801DD102000E0281B87B2321997
:1049F0003946204600F058FD10B14FF0FF30E6E791
:104A000001AA3946204600F001F910B14FF0FF30FD
:104A1000DDE730193A4601A9FBF7C7FB10B16FF08B
:104A20000100D4E7E01984B2AC42D9DB4FEA282078
:104A30008DF8000008F0FF008DF801000A4A1268A6
:104A4000917E094A526810786B460222FFF704FDF6
:104A500010B14FF0FF30BAE70121034880F825106C
:104A6000A0F826900020B2E71C00002038B50446CC
:104A7000282C02DD4FF0FF3038BDDCB9002000F0FB
:104A8000E5FB00208DF8000007208DF801002E4A7C
:104A90001268917C2C4A526810786B460222FFF70C
:104AA000DBFC10B14FF0FF30E6E70021264801752E
:104AB0000020E1E7012000F0C9FB20208DF8000074
:104AC000012C06D100208DF80100052000F0F4FB38
:104AD00017E0052C06DC01208DF80100052000F010
:104AE000EBFB0EE0142C06DC02208DF801000A20FE
:104AF00000F0E2FB05E003208DF80100142000F037
:104B0000DBFB9DF80100072101EB8010C0B28DF89E
:104B100001000D4A1268917C0B4A526810786B466E
:104B20000222FFF799FC10B14FF0FF30A4E70821F3
:104B30000548817200210173012101750020FFF7F2
:104B40002FFD002098E700001C000020F8B5044667
:104B50000F4616462C4890F8240010B94FF0FF304D
:104B6000F8BD2948807A10B94FF0FF30F8E7264A9F
:104B70001268917A244A526810786B460222FFF735
:104B800033FC10B14FF0FF30EAE79DF801009DF8CB
:104B9000001040EA0125A54203DA00203070401ED3
:104BA000DEE7194840684088B5EB600F17DD164A0C
:104BB0001268517C144A526810786B460122FFF744
:104BC00013FC10B14FF0FF30CAE79DF8000000F071
:104BD000100020B100F05AF86FF00100C0E7E2B217
:104BE000094B1B68D97A084B5B6818783B46FFF77E
:104BF000FBFB10B14FF0FF30B2E795FBF4F0401E25
:104C000030700020ACE700001C000020F8B504461E
:104C10000D46164616B94FF0FF30F8BD1A48807A97
:104C200010B94FF0FF30F8E720128DF80000E0B225
:104C30008DF801009DF8010028441349496849890D
:104C4000884202DD4FF0FF30E7E70F4A1268117E1D
:104C50000D4A526810786B460222FFF7FDFB10B137
:104C60004FF0FF30D9E7EAB2074B1B68597D064B7E
:104C70005B6818783346FFF7B7FB10B14FF0FF3091
:104C8000CBE70020C9E700001C00002008B56D48F4
:104C9000807A10B94FF0FF3008BD00200090694ABB
:104CA0001268D17B674A526810786B460122FFF781
:104CB000D3FB10B14FF0FF30EEE7624A1268517932
:104CC000604A526810786B460122FFF7C5FB10B1AD
:104CD0004FF0FF30E0E75B4A12681179594A526899
:104CE00010786B460122FFF7B7FB10B14FF0FF3091
:104CF000D2E7544890F82400002850D00C200090AF
:104D0000504A126811794F4A526810786B46012256
:104D1000FFF7A2FB10B14FF0FF30BDE7C0200090BD
:104D20004848807A00F0010020B19DF8000040F072
:104D300020000090434A12681179424A5268107864
:104D40006B460122FFF788FB10B14FF0FF30A3E75D
:104D50003C48407C10B10220009001E0002000900F
:104D6000384A1268D17B374A526810786B46012264
:104D7000FFF772FB10B14FF0FF308DE7002000907D
:104D8000304A126851792F4A526810786B460122D6
:104D9000FFF762FB002852D04FF0FF307CE7042081
:104DA0000090284A12681179264A526810786B469A
:104DB0000122FFF751FB10B14FF0FF306CE72148A3
:104DC000807C20B91F48807A00F0010010B9402093
:104DD000009001E0602000901A4A12681179194A87
:104DE000526810786B460122FFF736FB10B14FF086
:104DF000FF3051E71348407C10B10120009001E0E2
:104E0000002000900F4A1268D17B0E4A5268107839
:104E10006B460122FFF720FB10B14FF0FF303BE75C
:104E2000084A12685179074A52681078054B1033C6
:104E30000122FFF711FB10B14FF0FF302CE70020EB
:104E40002AE700001C0000202DE9F04F8DB08346BA
:104E50000F4602200C90424890F8240020B1002018
:104E600000F068F9012600E0002603A8FFF728FCFF
:104E700005A8FFF7CDFB01A8FFF76CFC02A8FFF720
:104E800091FC374890F80AA004A8FFF711FC002411
:104E900007E0002239465846FEF7E6FF00B902E077
:104EA000641C022CF5DB00BF022C01D1002528E098
:104EB000002407E0012206A909A8FEF7D5FF00B9E2
:104EC00002E0641C022CF5DB00BF022C01D100259E
:104ED00017E006A93846FDF7CFFD00F0FF0809A945
:104EE0005846FFF7F9F900F0FF090025B9F1000F66
:104EF00001D145F00105B8F1000F01D145F00205DF
:104F000000BFFF2016490872FF2115484172C17287
:104F10004FF6FF71C181FF2181720174012101737C
:104F2000BDF80C0000F04EF99DF8140000F01AF8DE
:104F3000BDF8040000F0C0F9BDF8080000F0FEF96B
:104F4000504600F049FA9DF81000FFF729FB16B112
:104F5000012000F0EFF828460DB0BDE8F08F00000A
:104F60001C00002038B504461E48807A10B94FF066
:104F7000FF3038BD022C06D0042C07D0082C08D0F6
:104F8000102C0CD108E0002000900BE008200090CD
:104F900008E01020009005E01820009002E04FF09B
:104FA000FF30E6E700BF0F48407A9DF80010B0EBF5
:104FB000E10F01D10020DCE70A4A1268D179094AE1
:104FC000526810786B460122FFF746FA10B14FF095
:104FD000FF30CEE79DF80000C1100248417200206A
:104FE000C7E700001C00002038B504465048807C0C
:104FF000A04201D1002038BD002C46D04C4A126896
:1050000011794B4A526810786B460122FFF7ECF990
:1050100010B14FF0FF30EEE79DF8000020F02000C7
:105020000090434A12681179414A526810786B46E1
:105030000122FFF711FA10B14FF0FF30DBE7032038
:10504000FEF7A8F802200090394890F8220020B11D
:105050009DF8000040F080000090354890F8230053
:1050600020B19DF8000040F030000090304A1268F6
:10507000117D2F4A526810786B460122FFF7ECF938
:10508000002851D04FF0FF30B5E7294A1268117956
:10509000274A526810786B460122FFF7A5F910B134
:1050A0004FF0FF30A7E72248807A00F0010028B1D6
:1050B0009DF8000040F02000009004E09DF8000002
:1050C00020F0200000901A4A12681179184A52689C
:1050D00010786B460122FFF7BFF910B14FF0FF3097
:1050E00089E70320FEF756F8114890F8220010B126
:1050F0008020009001E0002000900D4890F82300EF
:1051000020B19DF8000040F030000090084A12687D
:10511000117D074A526810786B460122FFF79CF90F
:1051200010B14FF0FF3066E701488474002062E759
:105130001C00002038B50446214890F82400A04205
:1051400001D1002038BD24B31D4890F8250010B9C6
:105150004FF0FF30F6E7002000F046FA0020FFF79E
:1051600043FF1749C88C00F0E9F80020009014496B
:10517000496808786B4601222321FFF76DF9012168
:105180000F4880F82410012000F02EFAFFF77EFD72
:1051900013E0002000F028FA0948007C009008493C
:1051A000496808786B4601222321FFF755F9002151
:1051B000034880F82410FFF769FD0020C2E70000D3
:1051C0001C00002038B504461F48807A10B94FF003
:1051D000FF3038BDFA2C09D0B4F5FA7F09D0B4F508
:1051E0007A7F09D0B4F5FA6F0CD108E00020009066
:1051F0000BE00820009008E01020009005E0182047
:10520000009002E04FF0FF30E3E700BF0E48007A65
:105210009DF80010B0EBE10F01D10020D9E70A4A58
:1052200012689179084A526810786B460122FFF79C
:1052300013F910B14FF0FF30CBE79DF80000C0101C
:10524000014908720020C4E71C00002038B504465C
:10525000184890F82300A04201D1002038BD14B1B5
:105260003020009001E0002000901248807C20B1A6
:105270009DF8000040F0020000900E4890F82200D7
:1052800020B19DF8000040F080000090094A1268AB
:10529000117D084A526810786B460122FFF7DCF84E
:1052A00010B14FF0FF30D9E7024880F823400020CA
:1052B000D4E700001C00002038B504461E48807A60
:1052C00010B94FF0FF3038BDBC2C02DB012000903C
:1052D00015E0622C02DB0220009010E02A2C02DB99
:1052E000032000900BE0142C02DB0420009006E069
:1052F0000A2C02DB0520009001E0062000900E48F9
:10530000C07A9DF80010884201D10020DBE70A4AEC
:1053100012689178084A526810786B460122FFF7AC
:105320009BF810B14FF0FF30CDE79DF80010024818
:10533000C1720020C7E700001C00002038B50446F9
:105340002448807A10B94FF0FF3038BD214890F8DA
:10535000240010B14FF0FF30F7E71E48007D50B138
:1053600034B1282C04DCE0B2FFF780FB0020ECE72E
:105370000020FFF77BFB042C01DA042404E0B4F5E1
:105380007A7F01DD4FF47A744FF47A7090FBF4F079
:10539000401EC0B200900F4A126851780D4A526800
:1053A00010786B460122FFF757F810B14FF0FF302D
:1053B000CBE79DF80000401C4FF47A7191FBF0F0B0
:1053C00081B20448C1810146C9894810FFF774FFC2
:1053D0000020BAE71C00002038B5044604F0700035
:1053E00010B10120009005E014B10020009001E010
:1053F000402000902B4A1268917C2A4A526810780B
:105400006B460122FFF728F820B100212548817260
:10541000481E38BD9DF8000020F04001214801736E
:105420000020009004F0400020B99DF8000040F0FA
:105430000400009004F0200020B99DF8000040F026
:105440000200009004F0100020B99DF8000040F028
:105450000100009004F0080020B99DF8000040F021
:10546000380000900F4A1268D17C0E4A52681078BA
:105470006B460122FEF7F0FF20B10021094881723E
:10548000481EC6E724B1082C02D00020FFF7DEFE3C
:1054900004488472002101753220FDF77BFE002054
:1054A000B7E700001C000020F8B504460D4616467C
:1054B00016B94FF0FF30F8BD1A48807A10B94FF096
:1054C000FF30F8E720128DF80000E0B28DF80100FF
:1054D0009DF801002844134949684989884202DD42
:1054E0004FF0FF30E7E70F4A1268117E0D4A52680D
:1054F00010786B460222FEF7AFFF10B14FF0FF307D
:10550000D9E7EAB2074B1B68597D064B5B681878F0
:105510003346FEF7A1FF10B14FF0FF30CBE700207C
:10552000C9E700001C0000207047000070B588B07B
:1055300002A905A8FFF788FC0446072C3FD101A863
:10554000FFF7E0F80598FAF777FF06460199FAF7B2
:1055500091FE0546FAF77EFF05900698FAF76CFF74
:1055600006460199FAF786FE0546FAF773FF06909C
:105570000798FAF761FF06460199FAF77BFE0546A0
:10558000FAF768FF079005A8FEF760F96846FFF78D
:1055900065F8BDF80010029848430290BDF800106D
:1055A000039848430390BDF80010049848430490C2
:1055B00002A8FEF77BF803A0FCF75AFD00BF08B075
:1055C00070BD000073657474696E672062696173F1
:1055D0002073756363657366756C6C79202E2E2E4F
:1055E0002E2E2E0D0A00000038B50446214890F8F2
:1055F0002400C0B114B10220009001E0002000900E
:105600001C4A1268D17B1B4A526810786B460122F3
:10561000FEF722FF10B14FF0FF3038BD9DF80010AB
:105620001448417423E01348807A10B94FF0FF30DA
:10563000F3E724B10F48407C08B10020EDE714B136
:105640000120009001E0002000900A4A1268D17BFE
:10565000084A526810786B460122FEF7FDFE10B131
:105660004FF0FF30D9E79DF8001002484174002048
:10567000D3E700001C0000202DE9F04106460F464C
:10568000FBF7D3F904000D4618BF0120284320F092
:105690000040C0F17F6000F1E040C00F0ED0301C30
:1056A00018BF0120384320F00040C0F17F6000F1B6
:1056B000E040C00F04BF0120FCF78AFD20462946C8
:1056C000BDE8F0816800000476005401F7FD000198
:1056D00075191A0C6A231B1C1F207274433B413836
:1056E000393A6B6C376F06246D6E700083000000D2
:1056F00000080000000100183200050000002041F1
:105700000000D242295C0F3E9A99993E3333733F91
:10571000295C0F3E00007000000000240000000221
:105720000003000000650054FFEF0000FA80000B4A
:1057300012820001030C30C30E8C8CE914D5400298
:1057400013710F8E3883F8833000F883258EF88329
:105750003000F883FFFFFFFF0FFEA9D624000400EE
:105760001A8279A10000003CFFFF00000010000039
:1057700038836FA2003E03304000000002CAE309F4
:105780003E800000200000000000000040000000FB
:1057900060000000000C0000000C186E0000069273
:1057A0000A16C0DFFFFF0256FD8CD377FFE1C496D7
:1057B000E0C5BEAA00000000FFFF0B2B000016573B
:1057C000000003594000000000001DFA00026C1D9B
:1057D000000000003FFFDFEB003EB3B6000D227873
:1057E00000002F3C00000000001942B5000039A263
:1057F0000000B365D90E9FC91DCF4C3430000000A6
:10580000500000003BB67AE80064000000C80000C9
:1058100000000000100000001000FA921000225E4C
:10582000000D229F0001000000320000FF46000032
:1058300063D400001000000004D6000004CC000077
:1058400004CC0000000010720000004000000000C6
:105850000000000000060002000500070000000034
:105860000064000000000000000000050005006466
:1058700000200000000000000000000000004000C8
:105880000000030000000032F8980000FF650000EF
:10589000830F0000FF9BFC000000000000000000E0
:1058A00000000000000000000000000000000000F8
:1058B00000000000000000000000000000000000E8
:1058C0000000100040000000000000060000B26A66
:1058D000000200000001FB830068000000D9FC000A
:1058E0007CF1FF830000000000650000006403E815
:1058F00000640028000000250000000016A0000041
:105900000000100000001000002F0000000001F453
:105910000000100000280000FFFF4581FFFFFA7221
:105920000000000000000000004400050005BAC6A9
:10593000004778A2000000010000000000000600FF
:10594000000000140000254D002F706D000005AE12
:10595000000C02D000000000000000000000000069
:1059600000000000001B000000000000000000001C
:1059700000000000006400000008000000000000BB
:105980000000000000000000000000000000000017
:105990000000000000000000000000000000000007
:1059A00000000000000000000000000000000000F7
:1059B00000000000000000000000000000000000E7
:1059C00000000000000000000000000000000000D7
:1059D00000000000001B00000000000000000000AC
:1059E000000E000E00000AC7000400000000003294
:1059F000FFFFFF9C00000B2B0000000200000001D5
:105A000000000064FFE5000000000000000000004E
:105A10000000000000000001000000000001000084
:105A200000000000000180000001800000018000F3
:105A3000002426D300000000000000000006001033
:105A40000096003C00000000000000000000000084
:105A5000000000000C0A4E68CDCF77095016675938
:105A6000C619CE8200000000000000000000000007
:105A700000000000000000000000000017D78400B4
:105A8000030000000000000000000000C7938F9D8D
:105A90001E1B1C1900000000000000000000000098
:105AA0000000000000000000000000000203188554
:105AB00000004000000000030000000300000000A0
:105AC0000000000040000000000000000000000096
:105AD00000000000000000000000000000000000C6
