:020000040800F2
:100000009804002001010008B5120008990E0008AC
:10001000B1120008CF0A0008211E000800000000ED
:10002000000000000000000000000000351900087A
:10003000650D000800000000C1150008A91A00089D
:100040001B0100081B0100081B0100081B01000820
:100050001B0100081B0100081B0100081B01000810
:100060001B0100081B0100081B0100081B01000800
:100070001B0100081B0100081B0100081B010008F0
:100080001B0100081B0100081B0100081B010008E0
:100090001B0100081B0100081B0100081B010008D0
:1000A0001B0100081B0100081B0100081B010008C0
:1000B0001B0100081B0100081B0100081B010008B0
:1000C0001B0100081B0100081B0100081B010008A0
:1000D0001B0100081B0100081B0100081B01000890
:1000E0001B0100081B0100081B010008DFF80CD0F1
:1000F00000F07AFC00480047AD4200089804002058
:100100000648804706480047FEE7FEE7FEE7FEE7B1
:10011000FEE7FEE7FEE7FEE7FEE7FEE7AD1A0008B2
:10012000ED0000082DE9F0410024061B254671F181
:10013000000605DA01240027D0EB070067EB010178
:10014000161E73F1000605DA0027D2EB070201251F
:1001500067EB030300F0ACFA86460E4617469C4652
:10016000AC4204D00025D0EB050E65EB010624B1AE
:100170000020D2EB000760EB030C704631463A4694
:100180006346BDE8F081D2B201E000F8012B491EC0
:10019000FBD270470022F6E710B513460A46044624
:1001A0001946FFF7F0FF204610BD30B50446002089
:1001B000034600E05B1C934203D2E05CCD5C401B35
:1001C000F8D030BDF0B480EA0102D40F4200B2EBA7
:1001D000410F02D20246084611464A0042D0C30DE2
:1001E000DDB2C1F3C752AD1A202D35DAC1F31601C5
:1001F00041F4000204B15242C5F1200602FA06F1B0
:100200002A411044B3EBD05F23D0C4B1012DA0EB41
:10021000C35009DCF0BC4FF0004202EAC352DBB22B
:1002200000F5000000F09FBA400000F1807000EB84
:10023000C350A0F1807040EAD170490009E049083C
:1002400041EAC071A0EBC35000F50000400800EB8C
:10025000C350F0BC00F07EBA6142012202EB4101C2
:10026000001BF6E7F0BC704781F00041AAE780F080
:100270000040A7E780EA010210B502F00043400009
:1002800022D04A001FD0010E01EB1261C0F35600CC
:10029000C2F3560240F4000042F40002A0FB022028
:1002A00000047F39140400D0401C50EA124001D4ED
:1002B0004000491EC2B20C0604EBD010401C40089E
:1002C000802A02D003E0002010BD20F001000029A8
:1002D00000DA0020184310BD30B480EA010202F0B9
:1002E000004530F0004221F0004013D090B1C30D22
:1002F000D40DC2F31601C0F31600E41A41F4000154
:1003000040F400027D34914201D3641C00E04900B6
:10031000002C02DA30BC002070474FF400000023AC
:10032000914201D3891A034340084FEA4101F7D1B2
:1003300051B1914202D14FF0004105E002D24FF09D
:10034000010101E06FF0010103EBC450284430BC0F
:1003500000F000BA2DE9FE4F804681EA0300C00F8D
:100360000C46009021F0004123F00045B8EB02005C
:10037000A94105D24046214690461C460B460246FE
:1003800023F00040104347D0270DC7F30A00C3F302
:100390000A510290401A019040286BDAC3F313000F
:1003A00040F4801B0098924620B10023D2EB030A50
:1003B00063EB0B0B01985946C0F14002504600F028
:1003C000A8F906460D4650465946019A00F0B0F984
:1003D00010EB08006141002487EA115284EAE773B8
:1003E0001A4340D0009A62B3019A012A4FEA075299
:1003F00015DC001B61EB02014FF0004202EA0752DC
:10040000CDE90042001C41F5801132462B4600F038
:10041000E7F903B0BDE8F08F40462146F9E7001B3D
:1004200061EB0201001C41F5801300185B412018AC
:10043000A2F5001747EB030140EAD570B6196D41EC
:1004400011E06D084FEA360645EAC0754FEA0752DB
:10045000001B61EB0201001C41F5801149084FEAC5
:1004600030000019514132462B4603B0BDE8F04F31
:1004700000F0A7B90098012240000023D0EB02024F
:1004800063EBE073009821464FEAE074B8EB00009C
:1004900061EB0401E9E783F000435BE781F0004191
:1004A00058E72DE9FE4F81EA030404F0004421F0EF
:1004B000004100944FF0000B23F0004350EA010488
:1004C0005ED052EA03045BD0C3F30A54C1F30A5569
:1004D0002C44A4F2F3340194A0FB0254C1F31301A1
:1004E00041F48011C3F3130343F4801301FB02446E
:1004F00000FB034E840A970A44EA815447EA835773
:10050000A4FB076802958D0A05FB07854FEA932C2B
:1005100004FB0C542705029D4FEA065847EA16379C
:10052000B5EB08056EEB070C870E920E47EA8117B4
:1005300042EA8312A7FB0201B6EB0B0164EB000455
:100540002B0D43EA0C335E1844EB1C50DA4651463F
:10055000E7FB0201C5F313044FEA0B3343EA1453DC
:100560004FEA0432019C43EA0603A4F10C0402940E
:10057000009CCDE900B400F033F903B0BDE8F08F82
:1005800000200146F9E7C10F80EAE0700844CA077D
:100590009623002100F0E7B896230022114600F0D0
:1005A000E2B800F0004220F00040C10DC0F3160098
:1005B00040F400007F2901DA00207047962903DC0F
:1005C000C1F19601C84001E096398840002AF4D074
:1005D0004042704720F00040C10DC0F3160040F4C7
:1005E00000007F2901DA00207047962903DCC1F161
:1005F0009601C840704796398840704700F0004225
:1006000030F000400AD0C10D01F56071C0F3160052
:1006100042EA0151C20840071143704700200146D9
:10062000704701F0004330B421F0004150EA01026C
:1006300006D00A0DA2F56072C1F31301002A02DC94
:1006400030BC00207047440F44EAC104C100E018E8
:1006500030BC00EBC25000F07DB80000002801DB88
:10066000C0F10040002901DBC1F100418142704727
:10067000002801DBC0F10040002901DBC1F100418D
:100680008842704730B50B460146002020220124E5
:1006900009E021FA02F59D4205D303FA02F5491B50
:1006A00004FA02F52844151EA2F10102F1DC30BD66
:1006B0002DE9F05F0546002092469B468846064697
:1006C000814640241BE0284641464746224600F02A
:1006D0009DF953465A46C01A914110D31146184607
:1006E000224600F016F82D1A67EB01084F46224605
:1006F0000120002100F00DF817EB00094E41201EEB
:10070000A4F10104DFDC484631462A464346BDE8F1
:10071000F09F202A04DB203A00FA02F10020704703
:100720009140C2F1200320FA03F31943904070472F
:10073000202A06DBCB17203A41FA02F043EAE073A5
:1007400006E041FA02F3D040C2F120029140084392
:10075000194670470029A8BF7047401C490008BFD0
:1007600020F00100704710B4B0FA80FC00FA0CF0E1
:1007700050EA010404BF10BC704749B1CCF1200419
:1007800021FA04F411FA0CF118BF012121430843A6
:10079000A3EB0C01CB1D4FEA00614FEA102042BFD2
:1007A000002010BC704700EBC35010440029A4BFC8
:1007B00010BC7047401C490008BF20F0010010BC6D
:1007C000704710B5141E73F1000408DA401C41F1A3
:1007D000000192185B411A4301D120F0010010BDC5
:1007E0002DE9F04D92469B4611B1B1FA81F202E03B
:1007F000B0FA80F220329046FFF78BFF04460F4696
:1008000040EA0A0041EA0B0153465A46084313D016
:10081000114653EA010019D0C8F14002504600F0D9
:10082000F5F805460E46504659464246FFF771FF19
:10083000084305D0012004E020463946BDE8F08D8C
:100840000020054346EAE0762C4337430A986305C7
:10085000E40AA0EB08000022FD0A44EA47540A30EB
:1008600002D500200146E9E7010510196941DDE9DB
:10087000084500196941BDE8F04DA2E72DE9F04DAA
:1008800081EA030404F0004B21F0004514464FF0C8
:10089000000A23F0004150EA050220D054EA010288
:1008A0001DD0C5F30A570246C5F31303C1F3130065
:1008B000C1F30A5640F4801543F48013A7EB0608F1
:1008C000101BD64608F2FD3873EB050002D308F181
:1008D000010801E092185B41B8F1000F03DA002033
:1008E0000146BDE8F08D00204FF480110646844695
:1008F0000EE0171B73EB050705D3121B63EB050313
:1009000006434CEA010C49084FEA300092185B415B
:1009100050EA0107EDD152EA030012D082EA040046
:1009200083EA0501084305D0101BAB4106D2012222
:10093000002306E000224FF0004302E06FF00102C6
:1009400053101AEB06004CEB085110EB0A0041EB78
:100950000B01BDE8F04DFFF734BF70B521F0004347
:1009600003430CD0C1F30A550024D5EB040564EB16
:100970000403D617AD1AB34102DB0020014670BD57
:10098000201841EB025170BDC1F30A52C1F31301AB
:1009900040F2FF3341F480119A4202DA002001460E
:1009A000704740F233439A42A2F2334202DC524291
:1009B00000F02CB8FFF7ADBE30B5041E71F1000495
:1009C00004DB4FF00044404264EB0101141E73F15C
:1009D000000405DB1C464FF00043524263EB040366
:1009E000994208BF904230BD064C074D06E0E068D2
:1009F00040F0010394E8070098471034AC42F6D366
:100A0000FFF778FB88610008A8610008202A04DB52
:100A1000203A21FA02F00021704721FA02F3D04077
:100A2000C2F1200291400843194670472DE9F04D6C
:100A300000231A461B1A8A4103DB00200146BDE849
:100A4000F08DC1F30A52C1F3130141F480154FF048
:100A5000000BD10702D100186D41521E0027044639
:100A600040F2FF11384601EB620A3E4680460246DC
:100A700000204FF48011FFF7C9FFC2197141BB1864
:100A800046EB0100B4EB030C75EB000C04D3E41A45
:100A900065EB000517460E46241908F101006D416B
:100AA00080463428E3DDF91946EB0600091BA8410E
:100AB00003D24FF0FF32134601E0002213461BEB36
:100AC000070046EB0A51BDE8F04DFFF77ABE00BFC4
:100AD000FEE7000000B585B00121042000F082FD92
:100AE0004FF40070ADF8100018208DF813000320AB
:100AF0008DF8120004A9154800F035F94FF4806014
:100B0000ADF8100004208DF8130004A90F4800F080
:100B10002AF90121880300F065FD4FF4E1300090CF
:100B20000020ADF80400ADF80600ADF80800ADF8FF
:100B30000C000C20ADF80A006946054801F000F9E8
:100B40000121034801F0E2F805B000BD00080140B2
:100B50000038014038B5002000906B460122752115
:100B6000682003F003FB2CA001F05CF99DF8000065
:100B700068280ED000BF3148006800F4E0603049BA
:100B80000843001D2D490860BFF3408F00BF00BF20
:100B9000FEE703F0B3FC00283CD1782004F0B8FA5B
:100BA00010B91DA001F03EF9782003F095FB10B9B3
:100BB00024A001F037F9C82004F05CFA10B92BA08A
:100BC00001F030F902F042FB10B932A001F02AF92D
:100BD0003D4803F030FB044602F092FD10B93BA003
:100BE00001F020F940F2731002F0D8F910B941A0D9
:100BF00001F018F9C82002F0B3FC10B947A001F0C9
:100C000011F904F02FFB012004F030F910B94CA0C9
:100C100001F008F938BD00006D70755F7365745F91
:100C200073656E736F7220636F6D706C6574652091
:100C30002E2E2E2E2E2E0D0A000000000CED00E0B0
:100C40000000FA056D70755F636F6E666967757297
:100C5000655F6669666F20636F6D706C6574652093
:100C60002E2E2E2E2E2E0D0A000000006D70755FA8
:100C70007365745F73616D706C655F72617465201C
:100C8000636F6D706C657465202E2E2E2E2E2E0DCA
:100C90000A000000646D705F6C6F61645F6D6F745B
:100CA000696F6E5F6472697665725F6669726D778F
:100CB00061726520636F6D706C657465202E2E2ED9
:100CC0002E2E2E0D0A0000006C000020646D705F57
:100CD0007365745F6F7269656E746174696F6E209D
:100CE000636F6D706C657465202E2E2E2E2E2E0D6A
:100CF0000A000000646D705F656E61626C655F661E
:100D000065617475726520636F6D706C65746520C4
:100D10002E2E2E2E2E2E0D0A00000000646D705F08
:100D20007365745F6669666F5F7261746520636F77
:100D30006D706C657465202E2E2E2E2E2E0D0A00E1
:100D40006D70755F7365745F646D705F73746174EB
:100D50006520636F6D706C657465202E2E2E2E2EAF
:100D60002E0D0A0070472DE9F041024600250026AD
:100D7000002000230024002791F803C00CF00F0589
:100D800091F803C00CF0100CBCF1000F03D091F8E7
:100D900002C04CEA050591F800C0BCF1000F31D04B
:100DA000146800202BE04FF0010C0CFA00F3B1F8AE
:100DB00000C00CEA03069E4220D183004FF00F0CC6
:100DC0000CFA03F7BC4305FA03FC4CEA040491F85F
:100DD00003C0BCF1280F06D14FF0010C0CFA00FC47
:100DE000C2F814C00AE091F803C0BCF1480F05D165
:100DF0004FF0010C0CFA00FCC2F810C0401C08288F
:100E0000D1D31460B1F800C0BCF1FF0F34DD5468D9
:100E100000202EE000F1080C4FF0010808FA0CF356
:100E2000B1F800C00CEA03069E4221D183004FF0C6
:100E30000F0C0CFA03F7BC4305FA03FC4CEA04045C
:100E400091F803C0BCF1280F05D100F1080C08FA95
:100E50000CF8C2F8148091F803C0BCF1480F07D118
:100E600000F1080C4FF0010808FA0CF8C2F81080E5
:100E7000401C0828CED35460BDE8F0810246002013
:100E800093680B400BB1012000E0002070470AB1CD
:100E9000016100E04161704700BFFEE770B50546A3
:100EA0000E46002400F0CEF8284600F0ABF8641C93
:100EB00000F0FCF8304600F0A5F8641C00F0F6F8ED
:100EC00000F0C0F8691CC8B200F09CF8641C00F087
:100ED000EDF8002000F068F8044600F0CDF8204658
:100EE00070BD000010B500224FF480610A48FFF782
:100EF000CEFF00224FF400610748FFF7C8FF012230
:100F000091020548FFF7C3FF00224FF480610248B9
:100F1000FFF7BDFF10BD0000000C014008B5012126
:100F2000082000F05FFB4FF48060ADF80000142053
:100F30008DF8030003208DF8020069460C48FFF786
:100F400012FF4FF40060ADF8000014208DF803008C
:100F500069460748FFF707FF012291020448FFF79F
:100F600096FF0122D1020248FFF791FF08BD000061
:100F7000000C014010B500224FF480610948FFF7D2
:100F800086FF0122D1020748FFF781FF012291026B
:100F90000448FFF77CFF00224FF480610148FFF70F
:100FA00076FF10BD000C014070B5054600260122F9
:100FB000D1021348FFF76BFF002416E001229102D3
:100FC0000F48FFF764FF4FF400610D48FFF756FF2D
:100FD000012802D180202041064300224FF4806185
:100FE0000748FFF754FF601CC4B2082CE6DB15B1BC
:100FF000FFF778FF01E0FFF7BDFF304670BD00004E
:10100000000C014070B50546002415E08020204109
:1010100000EA05024FF400610948FFF738FF01229A
:1010200091020748FFF733FF00224FF48061044824
:10103000FFF72DFF601C44B2082CE7DB70BD0000F9
:10104000000C014010B50122D1020A48FFF71FFF32
:10105000012291020748FFF71AFF00224FF40061B6
:101060000448FFF714FF00224FF480610148FFF7A6
:101070000EFF10BD000C014010B500224FF480613E
:101080000948FFF704FF00224FF400610648FFF70C
:10109000FEFE012291020448FFF7F9FE0122D1026F
:1010A0000148FFF7F4FE10BD000C014010B500240C
:1010B0000122D1020F48FFF7EAFE012291020D48FA
:1010C000FFF7E5FE07E0601CC4B2322C03DDFFF73A
:1010D000D3FF002010BD4FF400610648FFF7CEFE9D
:1010E0000028F0D100224FF480610248FFF7CFFEC4
:1010F0000120EFE7000C014070B505460E4614468E
:1011000031462846FFF7CAFE2070012070BDF8B5B1
:1011100006460F4614461D466A4639463046FFF7D6
:10112000EBFF2DB10120A0409DF80010084305E021
:101130000120A0409DF8001021EA0000C0B20090FC
:101140009DF800203946304600F036F8F8BD2DE90C
:10115000F8430746884614461D46089E6A4641469F
:101160003846FFF7C9FF28B3601CFF2101FA00F0E1
:10117000C4F108012944491EFF220A41104300F02E
:10118000FF09C5F1080006FA00F0C6B2C4F1070075
:1011900006419DF8000000EA090000909DF800005B
:1011A000304300909DF800204146384600F004F896
:1011B000BDE8F8830020FBE737B504460D4602ABD7
:1011C00001222946204600F001F83EBD2DE9F041FC
:1011D00080460D4616461F460024FFF733FF404663
:1011E000FFF710FFFFF762FF2846FFF70BFFFFF73F
:1011F0005DFF00BF06E0385DFFF704FFFFF756FF15
:10120000601CC4B2B442F6DBFFF736FF0120BDE834
:10121000F08110B5FFF782FE022000F010F80320E5
:1012200000F021F8002000F014F8002000F037F85A
:10123000002000F02BF8002000F01FF810BD38B59A
:101240000446032302226B21D0200094FFF77FFF86
:1012500038BD38B50446022304221C21D020009456
:10126000FFF775FF38BD38B50446022304221B2161
:10127000D0200094FFF76BFF38BD10B5044623461D
:1012800001223721D020FFF742FF10BD10B50446E0
:10129000234605226A21D020FFF739FF10BD10B583
:1012A0000446234606226B21D020FFF730FF10BDF5
:1012B00000BFFEE7704770B500240EE00021204615
:1012C00000F0E5F8002504E0002000F001F9681CBA
:1012D000C5B2802DF8DB601CC4B2082CEEDB70BDFB
:1012E00008B50121082000F07DF94FF48070ADF8B9
:1012F000000014208DF8030003208DF802006946D9
:101300000A48FFF730FD4FF40070ADF80000694661
:101310000648FFF728FD012211020448FFF7B7FD38
:10132000012251020148FFF7B2FD08BD000C014047
:1013300070B50546002415E08020204100EA050232
:101340004FF400710E48FFF7A2FD012211020C4874
:10135000FFF79DFD00224FF480710948FFF797FDCC
:10136000601CC4B2082CE7DB012211020448FFF71D
:101370008EFD00224FF480710148FFF788FD70BD9B
:10138000000C014010B5012251020A48FFF77FFD11
:10139000012211020748FFF77AFD00224FF4007185
:1013A0000448FFF774FD00224FF480710148FFF7F5
:1013B0006EFD10BD000C014010B500224FF400710D
:1013C0000648FFF764FD012211020448FFF75FFDA4
:1013D000012251020148FFF75AFD10BD000C0140E7
:1013E00070B5002406E0002500E06D1CB5F57A7F9D
:1013F000FBD3641CB4F57A7FF5D3FFF771FFAE2001
:1014000000F056F8D52000F053F8802000F050F896
:10141000A82000F04DF83F2000F04AF8D32000F05B
:1014200047F8002000F044F8402000F041F8A120E7
:1014300000F03EF8C82000F03BF8DA2000F038F861
:10144000122000F035F8812000F032F8CF2000F0B3
:101450002FF8D92000F02CF8F12000F029F8DB203B
:1014600000F026F8302000F023F8A42000F020F847
:10147000A62000F01DF88D2000F01AF8142000F0CE
:1014800017F8AF2000F014F8FFF715FF70BD70B526
:1014900005460C4645F0B00000F00AF8102141EA7C
:1014A000141000F005F804F00F0000F001F870BD12
:1014B00010B50446FFF766FF7820FFF739FF0020DC
:1014C000FFF736FF2046FFF733FFFFF775FF10BD2C
:1014D00010B50446FFF756FF7820FFF729FF40209C
:1014E000FFF726FF2046FFF723FFFFF765FF10BD3C
:1014F00008B50121042000F075F80121042000F056
:1015000071F8C020ADF8000018208DF8030003200A
:101510008DF8020069460248FFF725FC08BD00006F
:101520000008014010B5FFF7E3FF00F001F810BD1F
:1015300000B587B00121022000F044F80020ADF88A
:10154000160044F61F60ADF814004720ADF81000F7
:101550000020ADF8120004A90E4800F085FB6020C1
:10156000ADF800000020ADF808000120ADF8020041
:101570000020ADF806006946064800F0D3FA694637
:10158000044800F01BFB0121024800F0BFFA07B03D
:1015900000BD00000004004010B50446214602488A
:1015A00000F05EFB10BD00000004004010B50446D2
:1015B0002146024800F056FB10BD00000004004028
:1015C0007047000029B1064AD2690243044BDA6130
:1015D00004E0034AD2698243014BDA61704700009C
:1015E0000010024029B1064A92690243044B9A61F5
:1015F00004E0034A92698243014B9A6170470000FC
:101600000010024030B500210022002400232D4D9F
:101610006D6805F00C0121B1042905D0082923D1FA
:1016200005E0294D056022E0274D05601FE0254DAE
:101630006D6805F47012234D6D6805F48034022541
:1016400005EB92421CB9214D554305600BE01D4D41
:101650006D6805F400351DB11C4D5543056002E071
:10166000194D5543056002E0174D056000BF00BFEE
:10167000144D6D6805F0F0010909154D6B5C0568A6
:10168000DD4045600F4D6D6805F4E061090A104DBD
:101690006B5C4568DD4085600A4D6D6805F46051FE
:1016A000C90A0B4D6B5C4568DD40C560054D6D6832
:1016B00005F44041890B074D6B5CC568B5FBF3F53C
:1016C000056130BD0010024000127A0000093D00A3
:1016D00000000020100000202DE9F04F8FB00CA872
:1016E00089490DAB08AACDE900108849884801F066
:1016F000B9FD8548008800F4807000287ED00898E5
:10170000FEF741FF04464FF09D41FEF7E5FD81499C
:1017100008600998FEF737FF04464FF09D41FEF739
:10172000DBFD7D4908600A98FEF72DFF04464FF067
:101730009D41FEF7D1FD794908600B98FEF723FF24
:1017400004464FF09D41FEF7C7FD7549086071489A
:1017500001684FF08040FEF78DFD06906F480168EC
:101760000698FEF787FD82466B4801684FF04040BF
:10177000FEF780FD06906A4801680698FEF77AFD3C
:1017800083465146FEF71EFD0790FEF737FF804661
:1017900001F088F806464FF06632624BFEF781FE94
:1017A0000446FEF73EFF604908605C4801684FF060
:1017B0008040FEF75FFD0390584801680398FEF7EC
:1017C00059FD8246544801684FF04040FEF752FDF3
:1017D0000390514801680398FEF74CFD834651463B
:1017E000FEF742FD81464FF07E51FEF7EBFC0446CA
:1017F000FEF704FFCDE90401464800E081E00168FE
:101800004FF08040FEF736FD834643480168584656
:10181000FEF730FD8146414801684FF08040FEF7F9
:1018200029FD83463E4801685846FEF723FD82465F
:101830004946FEF7C7FC0446FEF7E0FE0746DDE931
:10184000042301F077FA4FF06632364BCDE90601FA
:10185000FEF727FE0546FEF7E4FE344908603048EF
:1018600001680068FEF706FD03902C4801680068D7
:10187000FEF700FD0290284801680068FEF7FAFCB8
:101880008346244801680068FEF7F4FC594601903D
:10189000FEF798FC82460299FEF7E6FC8146039922
:1018A000FEF7E2FC0446FEF7A9FECDE904011C4860
:1018B000016818480068FEF7DDFC82461748016899
:1018C00015480068FEF7D6FC83465146FEF77AFCC1
:1018D00081464FF08041FEF7CDFC0446FEF78EFEB8
:1018E0000746DDE9042301F025FA4FF066320D4B7F
:1018F000CDE90601FEF7D5FD0546FEF792FE0C493F
:1019000008600FB0BDE8F08F4C00002046000020BA
:10191000400000205C0000206000002064000020E7
:101920006800002066A64C405000002054000020B3
:1019300058000020704710B5FFF7F4FDFFF769FC71
:10194000FFF708F910BD00002DE9F04104460A49EF
:101950002046FEF7C1FC80460849FEF78BFC07468F
:101960000749FEF72FFC0646FEF734FE85B22846EF
:10197000FFF712FEBDE8F081000034430000FA4496
:101980000080BB442DE9F04104460A492046FEF799
:10199000A3FC80460849FEF76DFC07460749FEF7A1
:1019A00011FC0646FEF716FE85B22846FFF7FEFD3F
:1019B000BDE8F081000034430000FA440080BB44DD
:1019C00010B500F001F810BD0CB50020019000909A
:1019D0003348006840F480303149086000BF304827
:1019E000006800F4003000900198401C01900098BD
:1019F00018B90198B0F5A06FF1D12948006800F43A
:101A0000003010B10120009001E00020009000980B
:101A1000012843D12348006840F0100021490860A4
:101A20000846006820F0030008600846006840F09F
:101A3000020008601A484068194948600846406832
:101A400048600846406840F4806048600846406846
:101A500020F47C1048600846406840F4E810486074
:101A60000846006840F08070086000BF0C480068BD
:101A700000F000700028F9D00948406820F0030009
:101A8000074948600846406840F00200486000BFCF
:101A90000348406800F00C000828F9D10CBD000094
:101AA00000100240002002407047000010B51348AB
:101AB000006840F00100114908600846406810497C
:101AC00008400E494860084600680E4908400B4926
:101AD00008600846006820F48020086008464068D6
:101AE00020F4FE0048604FF41F008860FFF768FF95
:101AF0004FF000600449086010BD00000010024073
:101B00000000FFF8FFFFF6FE08ED00E021B10288BB
:101B100042F00102028004E002884FF6FE731A4090
:101B20000280704770B5002400220023058C4FF618
:101B3000FE7635400584028C8388048B4FF68F75C2
:101B40002C40B51E2C400D882C43751E2A400D8953
:101B50002A434D882A43144DA8420BD0134DA84266
:101B600008D0134DA84205D0124DA84202D0124D04
:101B7000A84213D14FF6F7752A404D892A434FF6F4
:101B8000FB752A408D882A434FF6FF652B404FF6A0
:101B9000FF552B408D892B43CD892B4383800483B4
:101BA000CD888586028470BD002C01400034014040
:101BB00000400140004401400048014070B500244D
:101BC00000220023058C4FF6EF7635400584028C09
:101BD0008388048B48F6FF752C404FF6FF452C4058
:101BE0000D884FF6FF7606EA05252C434FF6DF7584
:101BF0002A400D8906EA05152A434D8806EA05158F
:101C00002A43154DA84202D0144DA8421DD14FF6CB
:101C10007F752A404D894FF6FF7606EA05152A435F
:101C20004FF6BF752A408D8806EA05152A434FF600
:101C3000FF352B404FF2FF752B408D8906EA850555
:101C40002B43CD8906EA85052B4383800483CD8809
:101C50000587028470BD0000002C01400034014063
:101C60008186704701877047002202881D4B984289
:101C70000ED01D4B98420BD0B0F1804F08D01B4BBB
:101C8000984205D01A4B984202D01A4B984204D180
:101C90004FF68F731A404B881A43174B984207D060
:101CA000164B984204D04FF6FF431A40CB881A4394
:101CB00002808B8883850B8803850A4B98420BD062
:101CC000094B984208D00E4B984205D00D4B9842D4
:101CD00002D00D4B984201D10B7A038601238382F7
:101CE00070470000002C0140003401400004004017
:101CF00000080040000C00400010004000140040AC
:101D000000400140004401400048014021B1828967
:101D100042F40052828104E082894DF6FF731A403A
:101D20008281704702460020B1F5007F00D100BFDC
:101D300013880B400BB1012000E000207047000029
:101D40002DE9F04786B005460E460024A24600BFA6
:101D5000A1460027B08900B100BF2F462C8A4CF65F
:101D6000FF700440F08804432C82AC894EF6F310D7
:101D70000440B08831890843718908430443AC8129
:101D8000AC8A4FF6FF400440B0890443AC8201A8FE
:101D9000FFF738FC1F48874202D1DDF810A001E0B0
:101DA000DDF80CA0A88900F4004040B10AEBCA009D
:101DB00000EB0A1031684900B0FBF1F807E00AEBCC
:101DC000CA0000EB0A1031688900B0FBF1F864200A
:101DD000B8FBF0F004012009642101FB1089A889F7
:101DE00000F4004040B1322000EBC900B0FBF1F03C
:101DF00000F00700044308E0322000EB09106421E2
:101E0000B0FBF1F000F00F0004432C8106B0BDE8F8
:101E1000F087000000380140C1F30802828070475B
:101E200000BFFEE70FB4054B10B503A9044A0298A2
:101E300000F04CF910BC5DF814FB0000153B0008E5
:101E40007C000020490050EAC12018BF04204A0D40
:101E500018BF40F0010040F2FF72B2EB515F08BFC3
:101E600040F00200012808BF052070472DE9F0412D
:101E70004F1E00EBC7010446D1E9000115461E467E
:101E800037F006020DD02A463346FEF70AFB7F1EC6
:101E900004EBC703D3E90023FEF75CFA37F0060230
:101EA000F1D1022F25D0042F13D0062F18BFBDE883
:101EB000F0812A463346FEF7F4FAD4E90A23FEF706
:101EC00049FA2A463346FEF7ECFAD4E90823FEF72E
:101ED00041FA2A463346FEF7E4FAD4E90623FEF730
:101EE00039FA2A463346FEF7DCFAD4E90423FEF732
:101EF00031FA2A463346FEF7D4FAD4E90223FEF734
:101F000029FA2A463346FEF7CCFAD4E90023BDE885
:101F1000F041FEF71FBA0122FEF71FBDFEF71ABA05
:101F20000022134610461146FEF7A8BC024A0020C4
:101F30001107FEF712BD000001FDFFFF02E008C817
:101F4000121F08C1002AFAD170477047002001E033
:101F500001C1121F002AFBD170470000014908602F
:101F600070470000800000202DE9FF5FDDE90220BE
:101F7000010DDDF838B0024318D044F61050A1F23C
:101F8000FF3141430D140F98012820D0A5EB0B0021
:101F9000401C5FEA000A4FF00004474EDFF81C9136
:101FA000A046504616D5CAF1000728E00F98012434
:101FB00043A2012808D0002100980F9BC0E900210E
:101FC000C0E90243BDE8FF9F6FEA0B01F4E7CBF1E4
:101FD0000000DEE7074612E0F80707D02246334646
:101FE00040464946FEF75DFA80468946224633461A
:101FF00010461946FEF755FA04460E467F10002F8C
:10200000EAD1DDE90201BAF1000F42464B4602DA9D
:10201000FEF747FA01E0FEF731FC04460E460022C7
:10202000284BFEF7C9FC03D84FF0FF30014607E00C
:102030000022254B20463146FEF78CF9FEF7A4FC22
:10204000102409E0002C0ADB0A220023FEF730FBF3
:10205000019B30321A55641E50EA0102F2D1641C11
:10206000019AC4F1110314440F9A012A03D00122EA
:1020700008430DD10AE0084304D000204FF0110BB3
:102080000F9080E7A3EB0B056D1E0DE05B4504DDB3
:102090004FF0000205F1010504E003DA4FF0000201
:1020A000A5F10105002AECD000980F99C0E9023192
:1020B000C0E9004586E70000000024400000F03F32
:1020C000300000000000F0430000E03F2DE9FF4F2A
:1020D00095B09B468946064600250FE2252877D114
:1020E00000242746F84A0121059400E0044316F82D
:1020F000013F203B01FA03F01042F7D130782A2843
:1021000011D06FF02F033078A0F13002092A16D8D1
:10211000059A44F0020402EB820203EB42021044EF
:10212000761C0590EFE759F8042B0592002A03DA94
:10213000504244F40054059044F00204761C307878
:102140002E2816D116F8010F44F004042A280DD0C9
:102150006FF02F023078A0F13003092B09D807EB7C
:10216000870302EB4303C718761CF3E759F8047B97
:10217000761C30786C280FD006DC4C2817D06828E5
:102180000DD06A2814D104E0742810D07A280FD119
:102190000DE044F400140AE044F4801401E044F437
:1021A00040147278824202D104F58014761C761CA9
:1021B000307866280BD013DC582877D009DC00284B
:1021C00075D04528F6D04628F4D047281AD19DE18D
:1021D00018E0632835D0642879D0652812D195E1BC
:1021E000702873D008DC6728F1D069286FD06E287A
:1021F0000DD06F2806D1B5E073282CD0752875D086
:10220000782874D05A46179990476D1C75E1C4F32D
:102210000250022809D003280DD0D9F80010042854
:102220000DD00D6009F1040967E1D9F80010EA1733
:10223000C1E90052F6E7D9F800100D80F2E70D7001
:10224000F0E719F8041B8DF8001000208DF801004C
:10225000EA46012003E059F804AB4FF0FF30610774
:102260004FF0000102D40DE008F101018846B942A7
:102270000FDA8045F8DB1AF808100029F4D108E0DD
:1022800008F1010188468142FADB1AF8081000299A
:10229000F6D105985B46A0EB080721463846179A09
:1022A00000F094FA284400EB080507E04DE029E12E
:1022B0000DE01AF8010B5A4617999047B8F101083A
:1022C000F7D25B4621463846179A13E142E00A22CC
:1022D0000092C4F302524FF0000A022A08D059F8C3
:1022E00004CB032A4FEAEC710AD00DE029E02AE082
:1022F00009F1070121F00702F2E802C1914609E065
:102300000FFA8CFC4FEAEC71042A03D14FFA8CFCD3
:102310004FEAEC71002907DA0A460021DCF1000CD3
:1023200061EB02012D2202E0220504D52B228DF85B
:102330000420012203E0E20701D02022F7E79046C3
:1023400059E00A2102E010220DE010214FF0000AAE
:1023500000910BE010224FF0000A44F0040408271B
:10236000009203E008224FF0000A0092C4F30252E8
:10237000022A05D059F804CB0021032A08D009E02D
:1023800009F1070121F00702F2E802C1914605E0D8
:102390001FFA8CFC042A01D10CF0FF0C4FF000084E
:1023A000220728D5702806D0009B83F0100353EA3B
:1023B0000A0305D00EE040228DF80420012208E037
:1023C0005CEA010206D030228DF804208DF8050069
:1023D00002229046009B83F0080353EA0A030AD1C5
:1023E0005CEA010201D1620705D530228DF8042094
:1023F0004FF001087F1E582804D034A003900EA887
:1024000002900DE036A0F9E753466046009AFEF7C9
:102410004FF984460398825C0298401E0290027035
:102420005CEA0100F0D1029806A9081A00F1200A1E
:10243000600702D524F4803400E00127574502DD0F
:10244000A7EB0A0000E0002000EB0A0100900598CD
:102450004144401A0590E00306D45B462146179A92
:10246000059800F0B3F90544002706E001A85A4694
:10247000C05D179990476D1C7F1C4745F6DBE00354
:102480000CD55B462146179A059800F09FF9054444
:1024900004E030205A46179990476D1C0099481E59
:1024A00000900029F5DC08E0029802995A4600786D
:1024B000491C0291179990476D1CBAF10001AAF1CD
:1024C000010AF1DC65E100000928010030313233F6
:1024D0003435363738396162636465660000000060
:1024E000303132333435363738394142434445464A
:1024F0000000000000F058F90544761C30780028F0
:102500007FF4ECAD19B02846BDE8F08F620700D427
:10251000062709F1070222F0070CFCE80223E14636
:1025200003F000485FEA080C02D00FF2702C0DE0B7
:102530005FEA045C02D50FF2682C07E05FEAC47C16
:1025400002D00FF2602C01E0AFF2700C4FF0FF38B8
:1025500023F00043CDF850C065280CD006DC452898
:1025600009D046281DD047283DD13DE0662818D027
:1025700067287ED138E00021112F01DB112000E017
:10258000781CCDE9000106A90EA8FFF7EDFCDDE9F6
:102590000F010E9A03910021009207F1010A0491A4
:1025A0004DE04FF000400097CDE9011006A90EA8BC
:1025B000FFF7DAFCDDE90F0203920E9B119900226E
:1025C000DDF80CA00093049211B9791C00EB010A0C
:1025D000B7EB0A0004D4C0F1FF3007F1010A049000
:1025E000AAEB0700019044E0012F00DA0127002147
:1025F000112F01DD112000E03846CDE9000106A9C8
:102600000EA8FFF7B1FCDDE90F010E9A039100213E
:1026100004910092BA4621070CD40399514500DA7F
:102620008A46BAF1010F05DD009AAAF10101515C59
:10263000302908D0B84202DA10F1040F06DA01217D
:10264000CDE9011015E0AAF10101E9E7002805DC58
:10265000049901440491AAEB000102E0411C514598
:1026600000DD8A460499401A401C01904FF000405A
:102670000290200704D40198504501DBCDF8048076
:1026800000208DF84F0002980DF14F07B0F1004F78
:1026900025D02B200E9002984FF0020800280CDA6B
:1026A000404202902D200E9007E00A210298FDF78B
:1026B000E9FF3031029007F8011DB8F10001A8F1DF
:1026C0000108F2DC02980028EFD1791E0E980870FC
:1026D000307800F0200040F0450007F8020D12A805
:1026E000C01B00F107081498007800B1012000EB2E
:1026F0000A01019801EBE07105984144401A401E1F
:102700000590E00306D45B462146179A059800F031
:102710005DF805441498007818B15A461799904707
:102720006D1CE00324D55B462146179A059800F0FE
:102730004DF805441CE00498002807DBDDE903019F
:10274000884203DD0098405C179901E0179930201A
:102750005A469047049805F10105401C04900198E1
:10276000401E019004D12E205A46179990476D1CA7
:10277000BAF10001AAF1010ADDDC05E017F8010B4E
:102780005A46179990476D1CB8F10001A8F101084D
:10279000F4DC5B462146179A0598ABE62D00000055
:1027A0002B000000200000002DE9F0410446002528
:1027B0001E461746880404D405E039462020B04759
:1027C0006D1C641EF9D52846BDE8F0812DE9F04165
:1027D000044600251E469046C80301D5302700E078
:1027E0002027880404D505E041463846B0476D1CD3
:1027F000641EF9D52846BDE8F08100002DE9FE4FA2
:1028000006460F460025684601F096F9002442E08E
:1028100056F8240057F82410A0EB010ABAF1000F73
:1028200001DB514601E0CAF100010846FDF7ABFEAD
:1028300083464FF08F41FDF74FFD80465DF8240041
:102840000021FDF70BFF16D05DF824104046FDF780
:1028500043FD82464FF07E51FDF706FD814629F08B
:10286000004A0F48416A5046FDF702FF12D201208C
:10287000A04005430EE00A48C1694046FDF7EEFE60
:1028800005D30748016A4046FDF7F2FE02D2012057
:10289000A0400543641C032CBADB2846BDE8FE8F2C
:1028A000245400082DE9F04D8D4F21F0004A86B0E8
:1028B00005460C46BA452ADBAAEB070028430AD096
:1028C0008848824501DC1AD1CDB106B02846BDE862
:1028D000F04DFFF720BB844A844B2846FDF7E1FD0D
:1028E00007460E46824A834B28462146FDF7D9FD0E
:1028F00006B03A463346BDE8F04DFDF72BBD01204A
:10290000FFF72CFB06B0BDE8F04DFFF709BB7A4896
:10291000824542DABAF1795F0BDA2846FFF792FA7C
:10292000042808BFFFF702FB284606B02146BDE891
:10293000F08D2A460B461046FDF7B3FD834602464E
:102940006E480E460B4606217844FFF78FFA5A462A
:102950003346FDF7A6FD804669488A465A46334607
:1029600004217844FFF782FA5A463346FDF799FD71
:1029700000223B46FDF7EEFC02460B464046514620
:10298000FDF77CFF2A462346FDF78BFD06B02A465D
:102990002346BDE8F04DFDF7DDBC284624F000419C
:1029A00000223D463B46FDF779FD4FF0FF32FDF733
:1029B000D4FF0646024653480F460B46062178448C
:1029C000FFF754FA32463B46FDF76BFDCDE90001B7
:1029D0004D4832463B4604217844FFF747FA3246D9
:1029E0003B46FDF75EFD00222B46FDF7B3FC834618
:1029F00002913046394602F0DBFC804643480D46E2
:102A0000504517DCDDE900015A46029BFDF736FF11
:102A100042462B46FDF745FD42462B46FDF79AFC04
:102A20000122FDF79AFF304A304BFDF734FD304A62
:102A3000304B4CE04FF0000A52460B464046FDF743
:102A400089FCCDE9031052462B4610461946FDF786
:102A500028FD32463B46FDF721FDDDE90332FDF757
:102A60000DFF06460F46DDE900015A46029BFDF7C1
:102A700005FF83460091012230463946FDF76DFF80
:102A8000194A1A4BFDF70AFD06460F460122404639
:102A90002946FDF762FF5A46009BFDF702FD3246CC
:102AA0003B46FDF7F8FC06460F46012250462946F4
:102AB000FDF753FF0E4DDFF858802A464346FDF7D9
:102AC000EDFC32463B46FDF7E9FC2A464346FDF75E
:102AD000E5FC002CD8BF81F0004106B0BDE8F08DC8
:102AE0000000F03F0000F07F075C143326A6913C05
:102AF000182D4454FB21F93F0000E03FFC36000054
:102B000012370000863600009C3600003333EF3F5A
:102B1000FB21E93F2DE9F84F04460D4621F0004026
:102B200000917349814211DC7249884201DC06D16F
:102B30002CB120462946BDE8F84FFFF7ECB96E48A6
:102B4000002DCCBF6D496E49BDE8F88F6D498142BB
:102B500011DD6D498142D8BF4FF0FF366DDD204653
:102B60002946FFF76FF9042808BFFFF7DFF9204671
:102B70002946BDE8F88F6549654F25F0004581423B
:102B800033DD6449814219DD002632464FF080432F
:102B900020462946FDF7DEFB80468A460122204674
:102BA0002946FDF7DAFE00223B46FDF774FC42465B
:102BB0005346FDF763FE04460D463EE00126002223
:102BC000BA463B4620462946FDF7C4FB80460F46E1
:102BD0000022534620462946FDF75DFC42463B460F
:102BE000FDF74CFE04460D4627E04B4981421BDDB4
:102BF000DFF828A102260022534620462946FDF789
:102C000050FC00223B46FDF7A5FB80460F46002204
:102C1000534620462946FDF73EFC42463B46FDF71B
:102C20002DFE04460D4608E0032622462B460020D2
:102C30003B49FDF723FE04460D4622462B4610462F
:102C40001946FDF72EFC8B46824602460B46FDF7E1
:102C500028FC07460246334888460B46062178443E
:102C6000FFF704F952465B46FDF71BFC82462E48EF
:102C70008B463A46434605217844FFF7F7F83A4633
:102C80004346FDF70EFC02460B46002E50465946C1
:102C90000CDAFDF75FFB22462B46FDF702FC01B084
:102CA00022462B46BDE8F04FFDF7F8BBFDF752FB7F
:102CB00022462B46FDF7F5FB1C4A7A4402EBC6037D
:102CC000D3E90023FDF7E7FB22462B46FDF7E3FBA4
:102CD000174A7A4402EBC603D3E90023FDF7DEFB73
:102CE000009A002AB8BF81F00041BDE8F88F0000CB
:102CF000000010440000F07F182D4454FB21F93FE0
:102D0000FB21F9BF0000DC3F0000203E0000F33F44
:102D10000000F03F0000E63F008003400000F83F65
:102D20000000F0BF9E3400005C340000FA33000065
:102D3000C23300002DE9F04D9446CCF1000423F09D
:102D400000464CEA0404524F46EAD4749A46884638
:102D500021F00042BC4206D8454240EA050442EA5E
:102D6000D474BC4204D9BDE8F04D6246FFF7D6B832
:102D7000AAF14055A5F17F6555EA0C040BD0022459
:102D800004EAAA74434DDFF810E144EAD87452EA29
:102D9000000B04D00CE0BDE8F04DFFF7BBBE002CEB
:102DA00014BF012CBDE8F08D022C30D0032C32D0A2
:102DB00056EA0C0B0AD0BE4220D1BA4209D126F005
:102DC000804622F080423346114617E000291ADB84
:102DD00025E0DFF8C8B0FB44002C04BFDBE90001AC
:102DE000BDE8F08D012C02BFDBE9000181F000415C
:102DF000BDE8F08D022C0AD0032C0CD0BA4212D1BF
:102E0000B8F1000F0BDA23482549BDE8F08D2846BC
:102E10002449BDE8F08D28467146BDE8F08D1D4877
:102E20002149BDE8F08D921B12153C2AC4BF1948F8
:102E30001D490EDCBAF1000FBEBF12F13C0F00209D
:102E4000014606DB6246FDF719FD21F00041FFF760
:102E500061FE002C08BFBDE8F08D012C04BF81F09D
:102E60000041BDE8F08D114A114B022C07D0FDF74F
:102E700012FB2A46BDE8F04D0A4BFDF70CBBFDF7EF
:102E80000AFB2A46BDE8F04D064BFDF707BB0000E4
:102E90000000F07F182D4454FB2109C05633000078
:102EA000FB21F9BFFB210940FB21F93F075C1433EB
:102EB00026A6A13C2DE9F0410446E07800F0C006CA
:102EC000E07800F03F05607800F0010098B1EF1065
:102ED0002846E91705EB5171C910A5EBC101491C42
:102EE00001F0FF080B48006820B10A48414602681B
:102EF0003846904700BF607800F0080030B10548C0
:102F0000406818B1B011034A516888470020BDE8F5
:102F1000F08100008400002000B5034603E04FF478
:102F20007A7000F005F81800A3F10103F7D100BD95
:102F300000EBC001C9004FF0E02251610021916116
:102F40000521116100BF4FF0E021096901F48031D2
:102F50000029F8D004214FF0E0221161704738B504
:102F6000044664B120208DF8000028208DF801006F
:102F700030208DF8020038208DF8030004E0A322F1
:102F800004216846FDF7FFF86A46042140F69E20BA
:102F900002F026F901F016FD38BD00003EB50446EA
:102FA00002208DF80000CA208DF80100E3208DF882
:102FB000020009208DF803006A460421682002F00F
:102FC0000FF9A3208DF8000004F0400048B1C020A4
:102FD0008DF80100C8208DF80200C2208DF8030092
:102FE00006E0A3208DF801008DF802008DF80300A3
:102FF00004F4C07048B1C4208DF80400CC208DF8D2
:103000000500C6208DF8060006E0A3208DF8040018
:103010008DF805008DF80600A3208DF807008DF8C7
:1030200008008DF809006A460A2140F6A72002F040
:10303000D7F804F0030018B120208DF8000002E05A
:10304000D8208DF800006A46012140F6B62002F033
:10305000C7F804F0200018B1012000F0ADF802E03C
:10306000002000F0A9F804F4C07008B304F48070E4
:1030700060B1B2208DF800008B208DF80100B620E1
:103080008DF802009B208DF803000BE0B0208DF836
:10309000000080208DF80100B4208DF802009020FF
:1030A0008DF803006A46042140F6A22002F098F849
:1030B00004F0010020B3F8208DF800006A460121D9
:1030C0004FF40B6002F08CF8FA21072000F02CFC82
:1030D000072000F0F3FB012000F013FC642000F057
:1030E000F3FC4FF4FA7000F002FDC821304800F004
:1030F000A3FB282000F0BCFB0A2000F0CCFB08E07A
:10310000D8208DF800006A4601214FF40B6002F0D0
:1031100067F804F0020018B1D9208DF8000002E031
:10312000D8208DF800006A46012140F23D7002F07F
:1031300057F804F0040018B1012000F069F802E02B
:10314000002000F065F804F0100018B10120FFF72E
:1031500006FF02E00020FFF702FF44F008001549D7
:10316000488101F02FFC00201249887304F04000D0
:1031700018B10846807B801D887304F4C07020B1AC
:103180000C48807B801D0B49887304F0140020B12B
:103190000848807B10300749887304F0030020B191
:1031A0000448807B001D0349887300203EBD000059
:1031B00009E3CA02840000203EB504466CB10EA1AA
:1031C000D1E900208968CDE9002002916A460921F1
:1031D0004FF4976002F004F83EBD0AA2D2E9001055
:1031E0009268CDE9010200916A4609214FF4976087
:1031F00001F0F6FFF0E70000B8AAB38DB4980D35E2
:103200005D000000B8AAAAAAB088C3C5C700000024
:1032100038B5044664B1C0208DF80000C2208DF896
:103220000100C4208DF80200C6208DF8030004E0E0
:103230008B2204216846FCF7A6FF6A46042140F66B
:10324000982001F0CDFF01F0BDFB38BD10B5C823BB
:103250004FF48062024940F6F63001F047FA10BDA3
:103260004C5400082DE9F04F8DB0074688461546AE
:103270009946DDE9166B0024002030806B49887B7D
:103280005A4605A901F0FEFA18B1601E0DB0BDE85E
:10329000F08F6648807A00F01400002867D09DF80F
:1032A000140000069DF8151040EA01409DF8161024
:1032B00040EA01209DF81710084328609DF8180087
:1032C00000069DF8191040EA01409DF81A1040EAE6
:1032D00001209DF81B10084368609DF81C00000643
:1032E0009DF81D1040EA01409DF81E1040EA0120A3
:1032F0009DF81F100843A8609DF8200000069DF867
:10330000211040EA01409DF8221040EA01209DF87A
:1033100023100843E86004F11000C4B228680014C8
:103320000190686800140290A86800140390E8688F
:103330000014049001984043029901FB0100039995
:1033400001FB0100049901FB010ABAF1706F02DB75
:10335000BAF1885F05DD01F035FB00203080401EAA
:1033600094E7B6F9000040F48070308000BF2F4829
:10337000807A00F0400020B305A9601C085C095D5C
:1033800040EA012000B2A8F8000005A9E01C095C91
:1033900005AAA01C105C41EA002000B2A8F80200B7
:1033A00005A9601D095C201D105C41EA002000B2E7
:1033B000A8F80400A01DC4B2B6F9000040F008004F
:1033C00030801A48408900F4C07008B305A9601C19
:1033D000085C095D40EA012000B2388005A9E01CC4
:1033E000095C05AAA01C105C41EA002000B27880AC
:1033F00005A9601D095C201D105C41EA002000B297
:10340000B880A01DC4B2B6F9000040F07000308052
:103410000648807A00F0030018B105A90819FFF7E3
:1034200049FD484601F01CFF00202FE784000020E2
:1034300070B588B0064601A800F0ACFFBDF80400E6
:103440000021C90341EA5045C4034448007A00F012
:10345000030056F8200005904048007A00F0040070
:1034600010B10598404205903C48007AC0F3C10075
:1034700056F8200006903948007A00F0200010B17C
:103480000698404206903548007AC0F3811056F8FD
:10349000200007903148008900F4807010B107982F
:1034A000404207900598C117A0FB042301FB04319B
:1034B00000FB0510810041EA927005900698C11743
:1034C000A0FB042301FB043100FB0510810041EA4D
:1034D000927006900798C117A0FB042301FB0431EA
:1034E00000FB0510810041EA927007900598000EDC
:1034F0008DF808000598000C8DF809000598000A61
:103500008DF80A000598C0B28DF80B000698000EE1
:103510008DF80C000698000C8DF80D000698000A36
:103520008DF80E000698C0B28DF80F000798000EB7
:103530008DF810000798000C8DF811000798000A0C
:103540008DF812000798C0B28DF8130002AA0C2162
:103550004FF4257001F044FE08B070BD84000020D7
:1035600030B585B0044616A207CA02AB07C3C82C03
:1035700003DD4FF0FF3005B030BDC82090FBF4F004
:10358000401E85B2280A8DF80000E8B28DF80100CF
:103590006A46022140F2162001F022FE10B14FF0DF
:1035A000FF30E8E702AA0C2140F6C12001F018FE26
:1035B00010B14FF0FF30DEE7044884810020DAE7E5
:1035C000FEF2ABC4AAF1DFDFBBAFDFDF8400002077
:1035D0001FB504464848007A00F0030054F8200064
:1035E00001904548007A00F0040010B10198404273
:1035F00001904148007AC0F3C10054F820000290C5
:103600003D48007A00F0200010B10298404202903C
:103610003948007AC0F3811054F8200003903648EE
:10362000008900F4807010B1039840420390334940
:10363000019880FB0101800F40EA810001902F4931
:10364000029880FB0110820042EA917002902B499F
:10365000039880FB0110820042EA91700390019868
:10366000000E8DF800000198000C8DF80100019803
:10367000000A8DF802000198C0B28DF803006A4676
:1036800004214FF4747001F0ABFD18B14FF0FF301E
:1036900004B010BD0298000E8DF800000298000CD6
:1036A0008DF801000298000A8DF802000298C0B25D
:1036B0008DF803006A4604214FF4757001F090FD07
:1036C00010B14FF0FF30E3E70398000E8DF80000D3
:1036D0000398000C8DF801000398000A8DF8020091
:1036E0000398C0B28DF803006A4604214FF4767047
:1036F00001F076FDCCE700008400002009E3CA0257
:1037000010B586B0044647A00068039046A0006844
:10371000029046A00068019045A00068009004F067
:10372000030003A9085C8DF8140003A8C4F3C101C9
:10373000405C8DF8150003A8C4F38111405C8DF83E
:10374000160004F0030002A9085C8DF8100002A81E
:10375000C4F3C101405C8DF8110002A8C4F38111CB
:10376000405C8DF8120005AA032140F2264001F0CA
:1037700037FD18B14FF0FF3006B010BD04AA032189
:1037800040F22A4001F02CFD10B14FF0FF30F3E77A
:10379000019805900098049004F0040058B19DF839
:1037A000140040F001008DF814009DF8100040F066
:1037B00001008DF8100004F0200058B19DF81500AC
:1037C00040F001008DF815009DF8110040F0010057
:1037D0008DF8110004F4807058B19DF8160040F087
:1037E00001008DF816009DF8120040F001008DF8E0
:1037F000120005AA03214FF4886001F0F1FC10B11A
:103800004FF0FF30B8E704AA032140F2314001F045
:10381000E7FC10B14FF0FF30AEE70648048100200E
:10382000AAE700004CCD6C000CC92C00365676007F
:103830002646660084000020F8B505460E464FF483
:103840007A7095FBF0F000FB06F4200E8DF8000076
:10385000200C8DF80100200A8DF80200E0B28DF8EE
:1038600003006A4604214FF4AE7001F0B9FCF8BDC4
:1038700038B50446052094FBF0F084B220128DF890
:103880000000E0B28DF801006A4602214FF4AD70ED
:1038900001F0A6FC38BD38B50446052094FBF0F0D5
:1038A00084B220128DF80000E0B28DF801006A4663
:1038B00002214FF4AC7001F093FC38BD38B50446DA
:1038C0000020009004F0010020B19DF8000040F0BD
:1038D0003000009004F0020020B19DF8000040F09C
:1038E0000C00009004F0040020B19DF8000040F0AE
:1038F000030000906A4601214FF4A47001F070FCAF
:1039000038BD38B50446012C01DA012402E0042C4C
:1039100000DD0424601EC0B200906A46012140F21E
:103920004F1001F05DFC38BD2DE9FC4706460F46FF
:1039300006F0070010B1B7F5C86F03DD4FF0FF3098
:10394000BDE8FC873846FCF727FE81465949FCF75D
:10395000C3FC8046684600F0F7FC9DF80000022892
:1039600006D0042816D0082826D0102848D135E0E3
:103970004FF08D414046FCF77DFC8146FCF72AFE66
:1039800084B24D494046FCF775FC8146FCF722FEA7
:1039900085B238E04FF08C414046FCF76BFC814625
:1039A000FCF718FE84B245494046FCF763FC8146AB
:1039B000FCF710FE85B226E04FF08B414046FCF745
:1039C00059FC8146FCF706FE84B23D494046FCF7AF
:1039D00051FC8146FCF7FEFD85B214E04FF08A41B0
:1039E0004046FCF747FC8146FCF7F4FD84B23549BC
:1039F0004046FCF73FFC8146FCF7ECFD85B202E057
:103A00004FF0FF309CE700BF20128DF80400E0B2B9
:103A10008DF8050028128DF80600E8B28DF8070031
:103A200006F00100A0B101AA02214FF4EA7001F0F2
:103A3000D7FB10B14FF0FF3082E70DF106020221F3
:103A40004FF4927001F0CCFB10B14FF0FF3077E7EC
:103A500006F00200A0B101AA02214FF4EC7001F0BF
:103A6000BFFB10B14FF0FF306AE70DF106020221F3
:103A70004FF4947001F0B4FB10B14FF0FF305FE7EA
:103A800006F00400A0B101AA02214FF4EE7001F08B
:103A9000A7FB10B14FF0FF3052E70DF106020221F3
:103AA0004FF4967001F09CFB10B14FF0FF3047E7E8
:103AB000002045E700004843000040460000C045A4
:103AC000000040450000C04438B50446052094FB82
:103AD000F0F085B228128DF80000E8B28DF80100F0
:103AE0006A4602214FF4EF7001F07AFB38BD38B519
:103AF0000446052094FBF0F085B228128DF80000F2
:103B0000E8B28DF801006A4602214FF4ED7001F031
:103B100067FB38BD70B504460D46E1B20548FEF7B7
:103B20007BF900BF80210348FEF7FCF80028F9D09C
:103B3000204670BD003801407CB5054628494968DB
:103B4000087801AB04220D2100F010FB08B107201A
:103B50007CBD9DF80700C0F301109DF8041001F032
:103B6000E00140EAE1008DF800009DF80700C0F395
:103B700081009DF8051001F0E00140EAE1008DF8B8
:103B800001009DF8070000F003009DF8061001F009
:103B9000E00140EAE1008DF8020000241CE01DF87D
:103BA000040018B9002045F8240013E00D4845F83A
:103BB000240006E055F824000B49FCF75BFB45F8B0
:103BC00024001DF80400401EC0B20DF804000028B7
:103BD000F0D100BF601CC4B2032CE0DB0020B7E7CB
:103BE000140000207B14AE3E1D5A843F2DE9F04F97
:103BF00087B005460C46914601208DF81000002044
:103C00008DF81100FE4A1268917CFD4A52681078C6
:103C100004AB022200F0E2FA20B14FF0FF3007B00F
:103C2000BDE8F08FC820FFF777F900208DF810006D
:103C3000F34A1268D17BF24A5268107804AB012231
:103C400000F0CCFA10B14FF0FF30E8E7EC4A126810
:103C50005179EB4A5268107804AB012200F0BEFAA9
:103C600010B14FF0FF30DAE7E54A1268917CE44A80
:103C70005268107804AB012200F0B0FA10B14FF096
:103C8000FF30CCE7DE4A1268D17DDD4A52681078F9
:103C900004AB012200F0A2FA10B14FF0FF30BEE7F2
:103CA000D74A12681179D64A5268107804AB0122BB
:103CB00000F094FA10B14FF0FF30B0E70C208DF80F
:103CC0001000CF4A12681179CD4A5268107804ABBF
:103CD000012200F083FA10B14FF0FF309FE70F2070
:103CE000FFF71AF9C648806A407A8DF81000C44A76
:103CF00012689178C24A5268107804AB012200F031
:103D00006DFA10B14FF0FF3089E7BD48806A007A44
:103D10008DF81000BA4A12685178B94A5268107882
:103D200004AB012200F05AFA10B14FF0FF3076E7F1
:103D3000B9F1000F07D0B248806A807A40F0E00005
:103D40008DF8100004E0AE48806A807A8DF810008B
:103D5000AB4A12689179AA4A5268107804AB0122E2
:103D600000F03CFA10B14FF0FF3058E7B9F1000F06
:103D700007D0A348806AC07A40F0E0008DF81000B8
:103D800003E0A048C07A8DF810009D4A1268D179EE
:103D90009B4A5268107804AB012200F01FFA10B160
:103DA0004FF0FF303BE7B9F1000F02D0C820FFF71A
:103DB000B3F840208DF81000914A12681179904AAA
:103DC0005268107804AB012200F008FA10B14FF0ED
:103DD000FF3024E778208DF81000894A1268517965
:103DE000874A5268107804AB012200F0F7F910B14D
:103DF0004FF0FF3013E783498889FFF78DF80020E3
:103E00008DF810007E4A126851797D4A5268107808
:103E100004AB012200F0E2F910B14FF0FF30FEE6F2
:103E2000774A1268917A764A5268107804AB022277
:103E300000F09CF910B14FF0FF30F0E69DF8110052
:103E40009DF8101040EA012B0C209BFBF0F0C6B24D
:103E50000020A86068602860A060606020608246E2
:103E600065E0674A1268D17A654A5268107804ABF7
:103E70000C2200F07BF910B14FF0FF30CFE69DF837
:103E800011009DF8101040EA012000B2ADF80800C2
:103E90009DF813009DF8121040EA012000B2ADF821
:103EA0000A009DF815009DF8141040EA012000B2A8
:103EB000ADF80C00BDF90810206808442060BDF979
:103EC0000A10606808446060BDF90C10A0680844DE
:103ED000A0609DF817009DF8161040EA012000B27E
:103EE000ADF800009DF819009DF8181040EA012077
:103EF00000B2ADF802009DF81B009DF81A1040EAD0
:103F0000012000B2ADF80400BDF900102868084493
:103F10002860BDF90210686808446860BDF90410A3
:103F2000A8680844A8600AF1010000F0FF0AB24541
:103F300097DB3448D0F800C02868C117090441EA6B
:103F400010410704624600233846FCF7EBF832467E
:103F50000023CDE90201FCF7E5F828602948D0F8F4
:103F600000C06868C117090441EA104107046246AD
:103F700000233846FCF7D6F832460023CDE902018B
:103F8000FCF7D0F868601F48D0F800C0A868C117D7
:103F9000090441EA10410704624600233846FCF751
:103FA000C1F832460023CDE90201FCF7BBF8A86056
:103FB0001448D0F804C02168C817000440EA11482A
:103FC0000F046246002338464146FCF7ABF8324600
:103FD0000023CDE90201FCF7A5F820600948D0F8DC
:103FE00004C06068C117090441EA10410704624631
:103FF00000233846FCF796F83246002304E0000020
:104000001400002024540008CDE90201FCF78AF8CE
:1040100060601148D0F804C0A068C117090441EAE3
:1040200010410704624600233846FCF77BF832460D
:104030000023CDE90201FCF775F8A060A068002814
:1040400004DDA068A0F58030A06003E0A06800F562
:104050008030A0600020E2E5245400082DE9FC5FD8
:1040600006460F4600253D494968087801AB032202
:104070000D2100F07BF810B10720BDE8FC9F9DF8F2
:10408000040000F01F008DF804009DF8050000F00A
:104090001F008DF805009DF8060000F01F008DF848
:1040A0000600002456E056F8240057F82410A0EB30
:1040B000010BBBF1000F01DB594601E0CBF1000120
:1040C0000846FCF760FA4FF08F410090FCF704F9C6
:1040D000814601A8005D68B321490868FCF75CFAD5
:1040E000834659461F48FCF7F7F8804604E01E490E
:1040F0004046FCF7BFF8804601A8005D401EC0B2F4
:1041000001A908550028F2D141464846FCF7E4F8D9
:1041100083464FF07E51FCF7A7F882462AF0004B09
:104120000F4881695846FCF7A3FA12D20120A0403B
:1041300005430EE00A4801694846FCF78FFA05D3AB
:10414000074841694846FCF793FA02D20120A04093
:104150000543641C032CA6DB28468EE714000020D0
:104160002454000800B04C4554E3853F2DE9F0414C
:1041700006460F4614461D46FCF764FF7106080EFE
:10418000FCF740FFFCF792FF20B9FCF775FF012018
:10419000BDE8F0813846FCF735FFFCF787FFFCF7F8
:1041A00051FF012101EB4601C8B2FCF72BFFFCF7E0
:1041B0007DFF0DE0012C04D10020FCF7F5FE2870F6
:1041C00003E00120FCF7F0FE28706D1C601EC4B2F5
:1041D000002CEFD1FCF750FF0020D9E72DE9F0418A
:1041E00005460E4617469846FCF72CFF6906080E52
:1041F000FCF708FFFCF75AFF20B9FCF73DFF012050
:10420000BDE8F0813046FCF7FDFEFCF74FFF0024CF
:104210000BE018F80400FCF7F5FEFCF747FF18B9AF
:10422000FCF72AFF0020EBE7641CBC42F1DBFCF743
:1042300023FF0020E4E770B50546284600F00FF89C
:104240000446E81C00F00BF844EAC00084B2A81D44
:1042500000F005F844EA801084B2204670BD0146A3
:1042600091F90020002A01DD00201EE091F90020D4
:10427000002A01DA042018E091F90120002A01DD6A
:10428000012012E091F90120002A01DA05200CE05A
:1042900091F90220002A01DD022006E091F90220B6
:1042A000002A01DA062000E007207047FDF798F8A1
:1042B000FCF710FCFDF73FFB09E0FDF70DFA0448A1
:1042C0000068FDF741FB03480068FDF75BFBF4E77E
:1042D000540000205000002070B50446002624F051
:1042E0000104184890F8240008B1002070BD15485A
:1042F000807A10B94FF0FF30F8E71248057C807AD9
:104300002040104908740846007CA04202D04FF0BB
:10431000FF3600E0002614B90A48007D18B10120DC
:1043200000F0FEFF02E0002000F0FAFF3CB100F0D8
:1043300049FB20B1034805744FF0FF30D6E7304603
:10434000D4E700001400002001461148407A30B143
:10435000012807D0022808D003280CD108E0022049
:1043600008700BE00420087008E00820087005E0E1
:104370001020087002E04FF0FF30704700BF044883
:10438000C07C18B108784006000E08700020F4E7E1
:104390001400002001461348407A30B1012808D0AB
:1043A00002280AD0032810D10BE04FF48040088087
:1043B0000EE041F69C7008800AE04FF480500880BF
:1043C00006E04FF40060088002E04FF0FF307047D5
:1043D00000BF0448C07C10B108884010088000204D
:1043E000F5E700001400002001460248007C087038
:1043F000002070471400002001460F48007A30B1B9
:10440000012807D0022809D003280FD10AE0FA209A
:1044100008800EE04FF4FA7008800AE04FF47A70DA
:10442000088006E04FF4FA60088002E0002008806F
:1044300000BF00BF002070471400002001460E4856
:10444000007A30B1012807D0022808D003280CD107
:1044500008E00A4808600BE00948086008E00948DD
:10446000086005E00848086002E04FF0FF30704740
:1044700000BF0020FBE70000140000200000034301
:1044800000008342333303423333834101461248F1
:10449000C07A082817D2DFE800F01704070A0D10C9
:1044A0001318BC20088013E06220088010E02A2046
:1044B00008800DE0142008800AE00A20088007E048
:1044C0000520088004E000BF00BF0020088000BF76
:1044D00000BF00207047000014000020014606487D
:1044E00090F8240010B14FF0FF3070470248C089A7
:1044F00008800020F9E70000140000201CB580208F
:104500008DF80000654A1268917C644A5268107800
:104510006B460122FFF762FE10B14FF0FF301CBD69
:104520006420FEF7F9FC00208DF800005B4A126859
:10453000917C5A4A526810786B460122FFF74EFE72
:1045400010B14FF0FF30EAE7544A1268917D534AA8
:10455000526810786B460622FFF708FE10B14FF044
:10456000FF30DCE79DF80500C007400F9DF8031001
:1045700001F0010140EA41009DF8011001F0010144
:1045800040EA010494B1012C03D101214348C174D4
:1045900031E0022C03D100214048C1742BE02146B8
:1045A0003FA0FDF73FFC4FF0FF30B8E73B4A1268F1
:1045B000D1783A4A526810786B460122FFF7D6FD4F
:1045C00010B14FF0FF30AAE79DF8000000F00F0493
:1045D0002CB93D48FDF726FC4FF0FF309FE7042C37
:1045E00006D13AA0FDF71EFC01212C48C17402E05F
:1045F00000212A48C174FF2128488172FF202749E1
:104600000872FF2125484172C1724FF6FF71C181C6
:10461000FF21017481740121017380F822100021AF
:1046200080F823104175017516300160416081608A
:10463000163880F8241080F82510C1844FF4FA60F1
:1046400000F05CFC10B14FF0FF3068E7022000F092
:1046500025FB10B14FF0FF3061E72A2000F0C8FCC5
:1046600010B14FF0FF305AE7322000F003FD10B1D7
:104670004FF0FF3053E70020FFF72EFE10B14FF050
:10468000FF304CE7002000F04BFB10B14FF0FF3043
:1046900045E7002000F03CFD002040E7140000202A
:1046A000556E737570706F7274656420736F667485
:1046B000776172652070726F6475637420726576BD
:1046C0002025642E0A0000003861000848616C66ED
:1046D0002073656E7369746976697479207061728C
:1046E0007420666F756E642E0D0A00002DE9F0438C
:1046F00085B005460E4690469946294890F8250013
:1047000020B14FF0FF3005B0BDE8F08316B94FF08F
:10471000FF30F8E7002423E0281B102801DD1020DB
:1047200000E0281B87B232193946204600F058FDB8
:1047300010B14FF0FF30E6E701AA3946204600F0FD
:1047400001F910B14FF0FF30DDE730193A4601A909
:10475000FBF72BFD10B16FF00100D4E7E01984B234
:10476000AC42D9DB4FEA28208DF8000008F0FF00AA
:104770008DF801000A4A1268917E094A5268107841
:104780006B460222FFF72AFD10B14FF0FF30BAE767
:104790000121034880F82510A0F826900020B2E7F8
:1047A0001400002038B50446282C02DD4FF0FF30FD
:1047B00038BDDCB9002000F0E5FB00208DF80000DA
:1047C00007208DF801002E4A1268917C2C4A52680D
:1047D00010786B460222FFF701FD10B14FF0FF3059
:1047E000E6E70021264801750020E1E7012000F0FE
:1047F000C9FB20208DF80000012C06D100208DF887
:104800000100052000F0F4FB17E0052C06DC012078
:104810008DF80100052000F0EBFB0EE0142C06DC07
:1048200002208DF801000A2000F0E2FB05E00320E1
:104830008DF80100142000F0DBFB9DF8010007213A
:1048400001EB8010C0B28DF801000D4A1268917C16
:104850000B4A526810786B460222FFF7BFFC10B17A
:104860004FF0FF30A4E70821054881720021017351
:10487000012101750020FFF72FFD002098E70000BF
:1048800014000020F8B504460F4616462C4890F850
:10489000240010B94FF0FF30F8BD2948807A10B9D4
:1048A0004FF0FF30F8E7264A1268917A244A52689E
:1048B00010786B460222FFF759FC10B14FF0FF3021
:1048C000EAE79DF801009DF8001040EA0125A542A5
:1048D00003DA00203070401EDEE719484068408847
:1048E000B5EB600F17DD164A1268517C144A526806
:1048F00010786B460122FFF739FC10B14FF0FF3002
:10490000CAE79DF8000000F0100020B100F05AF84E
:104910006FF00100C0E7E2B2094B1B68D97A084B7F
:104920005B6818783B46FFF721FC10B14FF0FF3071
:10493000B2E795FBF4F0401E30700020ACE70000B9
:1049400014000020F8B504460D46164616B94FF07F
:10495000FF30F8BD1A48807A10B94FF0FF30F8E701
:1049600020128DF80000E0B28DF801009DF80100E2
:104970002844134949684989884202DD4FF0FF30D5
:10498000E7E70F4A1268117E0D4A526810786B46AD
:104990000222FFF723FC10B14FF0FF30D9E7EAB253
:1049A000074B1B68597D064B5B6818783346FFF749
:1049B000DDFB10B14FF0FF30CBE70020C9E700006E
:1049C0001400002008B56D48807A10B94FF0FF3010
:1049D00008BD00200090694A1268D17B674A52687E
:1049E00010786B460122FFF7F9FB10B14FF0FF3052
:1049F000EEE7624A12685179604A526810786B4655
:104A00000122FFF7EBFB10B14FF0FF30E0E75B4A0C
:104A100012681179594A526810786B460122FFF7E3
:104A2000DDFB10B14FF0FF30D2E7544890F824007E
:104A3000002850D00C200090504A126811794F4A3B
:104A4000526810786B460122FFF7C8FB10B14FF097
:104A5000FF30BDE7C02000904848807A00F0010098
:104A600020B19DF8000040F020000090434A1268F9
:104A70001179424A526810786B460122FFF7AEFB6B
:104A800010B14FF0FF30A3E73C48407C10B102204A
:104A9000009001E000200090384A1268D17B374A2C
:104AA000526810786B460122FFF798FB10B14FF067
:104AB000FF308DE700200090304A126851792F4A6C
:104AC000526810786B460122FFF788FB002852D00D
:104AD0004FF0FF307CE704200090284A12681179DB
:104AE000264A526810786B460122FFF777FB10B117
:104AF0004FF0FF306CE72148807C20B91F48807A56
:104B000000F0010010B94020009001E0602000900A
:104B10001A4A12681179194A526810786B460122B4
:104B2000FFF75CFB10B14FF0FF3051E71348407CBA
:104B300010B10120009001E0002000900F4A12689F
:104B4000D17B0E4A526810786B460122FFF746FB74
:104B500010B14FF0FF303BE7084A12685179074A1D
:104B600052681078054B10330122FFF737FB10B164
:104B70004FF0FF302CE700202AE70000140000204F
:104B80002DE9F04F8DB083460F4602200C9042482D
:104B900090F8240020B1002000F068F9012600E020
:104BA000002603A8FFF728FC05A8FFF7CDFB01A806
:104BB000FFF76CFC02A8FFF791FC374890F80AA0B9
:104BC00004A8FFF711FC002407E0002239465846EC
:104BD000FFF70CF800B902E0641C022CF5DB00BF03
:104BE000022C01D1002528E0002407E0012206A9BB
:104BF00009A8FEF7FBFF00B902E0641C022CF5DBFC
:104C000000BF022C01D1002517E006A93846FDF7A8
:104C1000F5FD00F0FF0809A95846FFF71FFA00F05C
:104C2000FF090025B9F1000F01D145F00105B8F1E8
:104C3000000F01D145F0020500BFFF2016490872A0
:104C4000FF2115484172C1724FF6FF71C181FF21EA
:104C50008172017401210173BDF80C0000F04EF95E
:104C60009DF8140000F01AF8BDF8040000F0C0F937
:104C7000BDF8080000F0FEF9504600F049FA9DF832
:104C80001000FFF729FB16B1012000F0EFF82846CD
:104C90000DB0BDE8F08F00001400002038B50446C8
:104CA0001E48807A10B94FF0FF3038BD022C06D074
:104CB000042C07D0082C08D0102C0CD108E00020C0
:104CC00000900BE00820009008E01020009005E024
:104CD0001820009002E04FF0FF30E6E700BF0F48D9
:104CE000407A9DF80010B0EBE10F01D10020DCE725
:104CF0000A4A1268D179094A526810786B46012233
:104D0000FFF76CFA10B14FF0FF30CEE79DF80000CE
:104D1000C110024841720020C7E7000014000020C3
:104D200038B504465048807CA04201D1002038BDEF
:104D3000002C46D04C4A126811794B4A52681078C0
:104D40006B460122FFF712FA10B14FF0FF30EEE789
:104D50009DF8000020F020000090434A126811796D
:104D6000414A526810786B460122FFF737FA10B1BA
:104D70004FF0FF30DBE70320FEF7CEF80220009073
:104D8000394890F8220020B19DF8000040F08000E2
:104D90000090354890F8230020B19DF8000040F0C5
:104DA00030000090304A1268117D2F4A5268107806
:104DB0006B460122FFF712FA002851D04FF0FF3066
:104DC000B5E7294A12681179274A526810786B466C
:104DD0000122FFF7CBF910B14FF0FF30A7E72248CF
:104DE000807A00F0010028B19DF8000040F020001A
:104DF000009004E09DF8000020F0200000901A4A86
:104E000012681179184A526810786B460122FFF730
:104E1000E5F910B14FF0FF3089E70320FEF77CF889
:104E2000114890F8220010B18020009001E000208D
:104E300000900D4890F8230020B19DF8000040F04C
:104E400030000090084A1268117D074A52681078B5
:104E50006B460122FFF7C2F910B14FF0FF3066E751
:104E600001488474002062E71400002038B504462D
:104E7000214890F82400A04201D1002038BD24B37D
:104E80001D4890F8250010B94FF0FF30F6E70020DC
:104E900000F046FA0020FFF743FF1749C88C00F0E6
:104EA000E9F8002000901449496808786B4601220F
:104EB0002321FFF793F901210F4880F824100120E6
:104EC00000F02EFAFFF77EFD13E0002000F028FA34
:104ED0000948007C00900849496808786B4601221F
:104EE0002321FFF77BF90021034880F82410FFF706
:104EF00069FD0020C2E700001400002038B5044618
:104F00001F48807A10B94FF0FF3038BDFA2C09D015
:104F1000B4F5FA7F09D0B4F57A7F09D0B4F5FA6F09
:104F20000CD108E0002000900BE00820009008E081
:104F30001020009005E01820009002E04FF0FF30B4
:104F4000E3E700BF0E48007A9DF80010B0EBE10FD8
:104F500001D10020D9E70A4A12689179084A5268BB
:104F600010786B460122FFF739F910B14FF0FF308E
:104F7000CBE79DF80000C010014908720020C4E78B
:104F80001400002038B50446184890F82300A042C9
:104F900001D1002038BD14B13020009001E0002084
:104FA00000901248807C20B19DF8000040F0020083
:104FB00000900E4890F8220020B19DF8000040F0CB
:104FC00080000090094A1268117D084A52681078E2
:104FD0006B460122FFF702F910B14FF0FF30D9E71D
:104FE000024880F823400020D4E70000140000208D
:104FF00038B504461E48807A10B94FF0FF3038BDEE
:10500000BC2C02DB0120009015E0622C02DB0220A8
:10501000009010E02A2C02DB032000900BE0142CFF
:1050200002DB0420009006E00A2C02DB0520009041
:1050300001E0062000900E48C07A9DF800108842DA
:1050400001D10020DBE70A4A12689178084A5268C9
:1050500010786B460122FFF7C1F810B14FF0FF3016
:10506000CDE79DF800100248C1720020C7E700009C
:105070001400002038B504462448807A10B94FF057
:10508000FF3038BD214890F8240010B14FF0FF30B8
:10509000F7E71E48007D50B134B1282C04DCE0B2A3
:1050A000FFF780FB0020ECE70020FFF77BFB042CE0
:1050B00001DA042404E0B4F57A7F01DD4FF47A7458
:1050C0004FF47A7090FBF4F0401EC0B200900F4A8B
:1050D000126851780D4A526810786B460122FFF72A
:1050E0007DF810B14FF0FF30CBE79DF80000401C79
:1050F0004FF47A7191FBF0F081B20448C18101460E
:10510000C9894810FFF774FF0020BAE71400002097
:1051100038B5044604F0700010B10120009005E09D
:1051200014B10020009001E0402000902B4A12684A
:10513000917C2A4A526810786B460122FFF74EF89C
:1051400020B1002125488172481E38BD9DF800001D
:1051500020F04001214801730020009004F040003D
:1051600020B99DF8000040F00400009004F02000F9
:1051700020B99DF8000040F00200009004F01000FB
:1051800020B99DF8000040F00100009004F00800F4
:1051900020B99DF8000040F0380000900F4A1268D6
:1051A000D17C0E4A526810786B460122FFF716F840
:1051B00020B1002109488172481EC6E724B1082C9D
:1051C00002D00020FFF7DEFE044884720021017542
:1051D0003220FDF7A1FE0020B7E7000014000020F8
:1051E000F8B504460D46164616B94FF0FF30F8BD27
:1051F0001A48807A10B94FF0FF30F8E720128DF886
:105200000000E0B28DF801009DF801002844134928
:1052100049684989884202DD4FF0FF30E7E70F4ACD
:105220001268117E0D4A526810786B460222FEF712
:10523000D5FF10B14FF0FF30D9E7EAB2074B1B683A
:10524000597D064B5B6818783346FEF7C7FF10B1EF
:105250004FF0FF30CBE70020C9E70000140000202A
:105260007047000070B588B002A905A8FFF788FC58
:105270000446072C3FD101A8FFF7E0F80598FBF79B
:1052800082F906460199FAF7F5FF0546FBF789F919
:1052900005900698FBF777F906460199FAF7EAFFB9
:1052A0000546FBF77EF906900798FBF76CF9064672
:1052B0000199FAF7DFFF0546FBF773F9079005A898
:1052C000FEF786F96846FFF765F8BDF8001002980A
:1052D00048430290BDF80010039848430390BDF87E
:1052E000001004984843049002A8FEF7A1F803A018
:1052F000FCF798FD00BF08B070BD000073657474C2
:10530000696E672062696173207375636365736694
:10531000756C6C79202E2E2E2E2E2E0D0A0000007C
:1053200038B50446214890F82400C0B114B10220D9
:10533000009001E0002000901C4A1268D17B1B4ABB
:10534000526810786B460122FEF748FF10B14FF00B
:10535000FF3038BD9DF800101448417423E0134815
:10536000807A10B94FF0FF30F3E724B10F48407C4A
:1053700008B10020EDE714B10120009001E0002009
:1053800000900A4A1268D17B084A526810786B462E
:105390000122FEF723FF10B14FF0FF30D9E79DF84F
:1053A0000010024841740020D3E7000014000020E0
:1053B0002DE9F04106460F46FBF738FB04000D4689
:1053C00018BF0120284320F00040C0F17F6000F1A9
:1053D000E040C00F0ED0301C18BF0120384320F031
:1053E0000040C0F17F6000F1E040C00F04BF012029
:1053F000FCF7B4FD20462946BDE8F08168000004B2
:1054000076005401F7FD000175191A0C6A231B1C64
:105410001F207274433B4138393A6B6C376F062456
:105420006D6E70008300000000080000000100188D
:1054300032000500000020410000D242295C0F3EEE
:105440009A99993E3333733F295C0F3E00007000F8
:10545000000000240000000200030000006500546A
:10546000FFEF0000FA80000B12820001030C30C332
:105470000E8C8CE914D5400213710F8E3883F8839B
:105480003000F883258EF8833000F883FFFFFFFF9C
:105490000FFEA9D6240004001A8279A10000003C66
:1054A000FFFF00000010000038836FA2003E0330B1
:1054B0004000000002CAE3093E8000002000000016
:1054C000000000004000000060000000000C000030
:1054D000000C186E000006920A16C0DFFFFF02568D
:1054E000FD8CD377FFE1C496E0C5BEAA00000000A2
:1054F000FFFF0B2B0000165700000359400000006F
:1055000000001DFA00026C1D000000003FFFDFEBF1
:10551000003EB3B6000D227800002F3C00000000D2
:10552000001942B5000039A20000B365D90E9FC929
:105530001DCF4C3430000000500000003BB67AE82C
:105540000064000000C8000000000000100000001F
:105550001000FA921000225E000D229F0001000050
:1055600000320000FF46000063D40000100000007D
:1055700004D6000004CC000004CC0000000010722F
:1055800000000040000000000000000000060002D3
:10559000000500070000000000640000000000009B
:1055A000000000050005006400200000000000006D
:1055B0000000000000004000000003000000003276
:1055C000F8980000FF650000830F0000FF9BFC00BF
:1055D00000000000000000000000000000000000CB
:1055E00000000000000000000000000000000000BB
:1055F000000000000000000000001000400000005B
:10560000000000060000B26A000200000001FB83F7
:105610000068000000D9FC007CF1FF83000000005E
:1056200000650000006403E8006400280000002515
:105630000000000016A00000000010000000100094
:10564000002F0000000001F40000100000280000FE
:10565000FFFF4581FFFFFA7200000000000000001C
:10566000004400050005BAC6004778A2000000010A
:105670000000000000000600000000140000254D9E
:10568000002F706D000005AE000C02D0000000007D
:10569000000000000000000000000000001B0000EF
:1056A0000000000000000000000000000064000096
:1056B00000080000000000000000000000000000E2
:1056C00000000000000000000000000000000000DA
:1056D00000000000000000000000000000000000CA
:1056E00000000000000000000000000000000000BA
:1056F00000000000000000000000000000000000AA
:10570000000000000000000000000000001B00007E
:105710000000000000000000000E000E00000AC79C
:105720000004000000000032FFFFFF9C00000B2B74
:10573000000000020000000100000064FFE500001E
:105740000000000000000000000000000000000158
:1057500000000000000100000000000000018000C7
:105760000001800000018000002426D3000000001A
:1057700000000000000600100096003C0000000041
:105780000000000000000000000000000C0A4E684D
:10579000CDCF770950166759C619CE820000000098
:1057A00000000000000000000000000000000000F9
:1057B0000000000017D78400030000000000000074
:1057C00000000000C7938F9D1E1B1C1900000000E5
:1057D00000000000000000000000000000000000C9
:1057E00000000000020318850000400000000003D4
:1057F0000000000300000000000000004000000066
:105800000000000000000000000000000000000098
:105810000000000000000000000000000000000088
:105820000000000000000000000000000000000078
:10583000677DDF7E72902E554CF6E68800000000F2
:10584000000000000000000000000000D8DCB4B838
:10585000B0D8B9ABF3F8FAB3B7BB8E9EAEF132F560
:105860001BF1B4B8B08097F1A9DFDFDFAADFDFDF7B
:10587000F2AAC5CDC7A90CC92C97F1A989264666FD
:10588000B28999A92D557DB0B08AA896365676F181
:10589000BAA3B4B280C0B8A89711B28398BAA3F0E3
:1058A000240844106418B2B9B49883F1A329557D33
:1058B000BAB5B1A38393F0002850F5B2B6AA83938A
:1058C00028547CF1B9A3829361BAA2DADEDFDB81CE
:1058D0009AB9AEF5606870F1DABAA2DFD9BAA2FA65
:1058E000B9A38292DB31BAA2D9BAA2F8DF85A4D0DB
:1058F000C1BBAD83C2C5C7B8A2DFDFDFBAA0DFDF9F
:10590000DFD8D8F1B8AAB38DB4980D355DB2B6BA68
:10591000AF8C96198F9FA70E161EB49AB8AA872C23
:10592000547CBAA4B08AB691325676B28494A4C894
:1059300008CDD8B8B4B0F19982A82D557D98A80E9D
:10594000161EA22C547C92A4F02C5078F184A898B6
:10595000C4CDFCD80DDBA8FC2DF3D9BAA6F8DABA71
:10596000A6DED8BAB2B68696A6D0F3C841DAA6C8E3
:10597000F8D8B0B4B882A892F52C548898F135D9EB
:10598000F418D8F1A2D0F8F9A884D9C7DFF8F883C1
:10599000C5DADF69DF83C1D8F40114F1A8824EA80B
:1059A00084F311D182F5D992289788F109F41C1C4F
:1059B000D884A8F3C0F9D1D99782F129F40DD8F38E
:1059C000F9F9D1D982F4C203D8DEDF1AD8F1A2FAEC
:1059D000F9A88498D9C7DFF8F8F883C7DADF69DF58
:1059E000F883C3D8F40114F198A8822EA884F31187
:1059F000D182F5D992509788F109F41CD884A8F384
:105A0000C0F8F9D1D99782F149F40DD8F3F9F9D159
:105A1000D982F4C403D8DEDFD8F1AD8898CCA809C8
:105A2000F9D98292A8F57CF1883ACF944A6E98DB36
:105A30006931DAADF2DEF9D88795A8F221D1DAA57D
:105A4000F9F417D9F1AE8ED0C0C3AE82C684C3A814
:105A50008595C8A588F2C0F1F4010EF18E9EA8C606
:105A60003E56F554F18872F40115F19845856EF5AE
:105A70008E9E0488F142985A8E9E068869F4011C15
:105A8000F1981E1108D0F504F11E970202983625F0
:105A9000DBF9D985A5F3C1DA85A5F3DFD88595A80B
:105AA000F309DAA5FAD88292A8F578F1881A849FCA
:105AB00026889821DAF41DF3D8879F39D1AFD9DF32
:105AC000DFFBF9F40CF3D8FAD0F8DAF9F9D0DFD922
:105AD000F9D8F40BD8F3879F39D1AFD9DFDFF41DA4
