:020000040800F2
:100000003004002001010008A70A0008930A000834
:10001000970A0008E5080008D5170008000000004E
:10002000000000000000000000000000DD100008DB
:100030007109000800000000C50F000849120008FF
:100040001B0100081B0100081B0100081B01000820
:100050001B0100081B0100081B0100081B01000810
:100060001B0100081B0100081B0100081B01000800
:100070001B0100081B0100081B0100081B010008F0
:100080001B0100081B0100081B0100081B010008E0
:100090001B0100081B0100081B0100081B010008D0
:1000A0001B0100081B0100081B0100081B010008C0
:1000B0001B0100081B0100081B0100081B010008B0
:1000C0001B0100081B0100081B0100081B010008A0
:1000D0001B0100081B010008AD1400081B010008EB
:1000E0001B0100081B0100081B010008DFF80CD0F1
:1000F00000F058FB004800470121000830040020B0
:100100000648804706480047FEE7FEE7FEE7FEE7B1
:10011000FEE7FEE7FEE7FEE7FEE7FEE74D1200081A
:10012000ED000008D2B201E000F8012B491EFBD21D
:1001300070470022F6E710B513460A4604461946F2
:10014000FFF7F0FF204610BDF0B480EA0102D40FA3
:100150004200B2EB410F02D20246084611464A0065
:1001600042D0C30DDDB2C1F3C752AD1A202D35DA2E
:10017000C1F3160141F4000204B15242C5F1200658
:1001800002FA06F12A411044B3EBD05F23D0C4B188
:10019000012DA0EBC35009DCF0BC4FF0004202EA95
:1001A000C352DBB200F5000000F016B9400000F1C8
:1001B000807000EBC350A0F1807040EAD17049001C
:1001C00009E0490841EAC071A0EBC35000F5000006
:1001D000400800EBC350F0BC00F0F5B861420122CA
:1001E00002EB4101001BF6E7F0BC704781F00041D3
:1001F000AAE780F00040A7E780EA010210B502F00C
:100200000043400022D04A001FD0010E01EB1261D2
:10021000C0F35600C2F3560240F4000042F400025C
:10022000A0FB022000047F39140400D0401C50EAD7
:10023000124001D44000491EC2B20C0604EBD0109B
:10024000401C4008802A02D003E0002010BD20F0AE
:100250000100002900DA0020184310BD30B480EA04
:10026000010202F0004530F0004221F0004013D0BE
:1002700090B1C30DD40DC2F31601C0F31600E41AF9
:1002800041F4000140F400027D34914201D3641C2A
:1002900000E04900002C02DA30BC002070474FF427
:1002A00000000023914201D3891A034340084FEA1A
:1002B0004101F7D151B1914202D14FF0004105E027
:1002C00002D24FF0010101E06FF0010103EBC450D5
:1002D000284430BC00F077B8C10F80EAE0700844D1
:1002E000CA079623002100F077B820F00040C10D26
:1002F000C0F3160040F400007F2901DA00207047A7
:10030000962903DCC1F19601C840704796398840B0
:10031000704700F0004230F000400AD0C10D01F5F6
:100320006071C0F3160042EA0151C2084007114350
:10033000704700200146704730B50B46014600204B
:100340002022012409E021FA02F59D4205D303FA97
:1003500002F5491B04FA02F52844151EA2F1010218
:10036000F1DC30BD2DE9F05F0546002092469B464A
:1003700088460646814640241BE0284641464746BB
:10038000224600F030FA53465A46C01A914110D323
:1003900011461846224600F017FA2D1A67EB01089D
:1003A0004F4622460120002100F00EFA17EB00090B
:1003B0004E41201EA4F10104DFDC484631462A46A6
:1003C0004346BDE8F09F0029A8BF7047401C490084
:1003D00008BF20F00100704710B4B0FA80FC00FAAA
:1003E0000CF050EA010404BF10BC704749B1CCF1D5
:1003F000200421FA04F411FA0CF118BF0121214361
:100400000843A3EB0C01CB1D4FEA00614FEA10201B
:1004100042BF002010BC704700EBC35010440029BD
:10042000A4BF10BC7047401C490008BF20F0010069
:1004300010BC70472DE9FE4F804681EA0300C00FD3
:100440000C46009021F0004123F00045B8EB02007B
:10045000A94105D24046214690461C460B4602461D
:1004600023F00040104347D0270DC7F30A00C3F321
:100470000A510290401A019040286BDAC3F313002E
:1004800040F4801B0098924620B10023D2EB030A6F
:1004900063EB0B0B01985946C0F14002504600F047
:1004A00093F906460D4650465946019A00F0ABF9BD
:1004B00010EB08006141002487EA115284EAE773D7
:1004C0001A4340D0009A62B3019A012A4FEA0752B8
:1004D00015DC001B61EB02014FF0004202EA0752FB
:1004E000CDE90042001C41F5801132462B4600F058
:1004F000ABF903B0BDE8F08F40462146F9E7001B99
:1005000061EB0201001C41F5801300185B412018CB
:10051000A2F5001747EB030140EAD570B6196D410B
:1005200011E06D084FEA360645EAC0754FEA0752FA
:10053000001B61EB0201001C41F5801149084FEAE4
:1005400030000019514132462B4603B0BDE8F04F50
:1005500000F06BB90098012240000023D0EB0202AA
:1005600063EBE073009821464FEAE074B8EB0000BB
:1005700061EB0401E9E783F000435BE781F00041B0
:1005800058E72DE9FE4F81EA030404F0004421F00E
:10059000004100944FF0000B23F0004350EA0104A7
:1005A0005ED052EA03045BD0C3F30A54C1F30A5588
:1005B0002C44A4F2F3340194A0FB0254C1F31301C0
:1005C00041F48011C3F3130343F4801301FB02448D
:1005D00000FB034E840A970A44EA815447EA835792
:1005E000A4FB076802958D0A05FB07854FEA932C4B
:1005F00004FB0C542705029D4FEA065847EA1637BC
:10060000B5EB08056EEB070C870E920E47EA8117D3
:1006100042EA8312A7FB0201B6EB0B0164EB000474
:100620002B0D43EA0C335E1844EB1C50DA4651465E
:10063000E7FB0201C5F313044FEA0B3343EA1453FB
:100640004FEA0432019C43EA0603A4F10C0402942D
:10065000009CCDE900B400F0F7F803B0BDE8F08FDE
:1006600000200146F9E72DE9F04D81EA030404F08A
:10067000004B21F0004514464FF0000A23F00041E2
:1006800050EA050220D054EA01021DD0C5F30A57F2
:100690000246C5F31303C1F31300C1F30A5640F435
:1006A000801543F48013A7EB0608101BD64608F20A
:1006B000FD3873EB050002D308F1010801E0921840
:1006C0005B41B8F1000F03DA00200146BDE8F08D70
:1006D00000204FF48011064684460EE0171B73EB92
:1006E000050705D3121B63EB050306434CEA010C17
:1006F00049084FEA300092185B4150EA0107EDD1FA
:1007000052EA030012D082EA040083EA050108439A
:1007100005D0101BAB4106D20122002306E00022C7
:100720004FF0004302E06FF0010253101AEB060095
:100730004CEB085110EB0A0041EB0B01BDE8F04D0A
:1007400000F073B8C1F30A52C1F3130140F2FF3352
:1007500041F480119A4202DA00200146704740F2CB
:1007600033439A42A2F2334202DC524200F03BB8D9
:1007700000F02AB830B5041E71F1000404DB4FF01C
:100780000044404264EB0101141E73F1000405DBD8
:100790001C464FF00043524263EB0403994208BFEA
:1007A000904230BD064C074D06E0E06840F0010382
:1007B00094E8070098471034AC42F6D3FFF79AFC50
:1007C000EC2700080C280008202A04DB203A00FA55
:1007D00002F1002070479140C2F1200320FA03F398
:1007E000194390407047202A04DB203A21FA02F096
:1007F0000021704721FA02F3D040C2F1200291405B
:10080000084319467047202A06DBCB17203A41FAE5
:1008100002F043EAE07306E041FA02F3D040C2F18D
:100820002002914008431946704710B5141E73F119
:10083000000408DA401C41F1000192185B411A43A0
:1008400001D120F0010010BD2DE9F04D92469B46EC
:1008500011B1B1FA81F202E0B0FA80F22032904692
:10086000FFF7B2FF04460F4640EA0A0041EA0B01D7
:1008700053465A46084313D0114653EA010019D093
:10088000C8F140025046FFF7AEFF05460E465046FF
:1008900059464246FFF798FF084305D0012004E07F
:1008A00020463946BDE8F08D0020054346EAE07653
:1008B0002C4337430A986305E40AA0EB08000022A2
:1008C000FD0A44EA47540A3002D500200146E9E710
:1008D000010510196941DDE9084500196941BDE8C4
:1008E000F04DA2E700BFFEE708B50121042000F0AB
:1008F0007BFB4FF40070ADF8000018208DF803006A
:1009000003208DF802006946074800F032F84FF4E2
:100910008060ADF8000048208DF803006946024869
:1009200000F027F808BD0000000801401FB5FFF7E0
:10093000DBFF0121880300F057FB4FF4E13000900A
:100940000020ADF80C000C20ADF80A000020ADF836
:100950000800ADF80600ADF804006946034800F051
:100960006DFE0121014800F000FE1FBD003801406E
:1009700070472DE9F04102460025002600200023A3
:100980000024002791F803C00CF00F0591F803C074
:100990000CF0100CBCF1000F03D091F802C04CEA2F
:1009A000050591F800C0BCF1000F31D0146800209B
:1009B0002BE04FF0010C0CFA00F3B1F800C00CEA88
:1009C00003069E4220D183004FF00F0C0CFA03F770
:1009D000BC4305FA03FC4CEA040491F803C0BCF1E3
:1009E000280F06D14FF0010C0CFA00FCC2F814C01D
:1009F0000AE091F803C0BCF1480F05D14FF0010C9B
:100A00000CFA00FCC2F810C0401C0828D1D31460B6
:100A1000B1F800C0BCF1FF0F34DD546800202EE0B7
:100A200000F1080C4FF0010808FA0CF3B1F800C00F
:100A30000CEA03069E4221D183004FF00F0C0CFA02
:100A400003F7BC4305FA03FC4CEA040491F803C025
:100A5000BCF1280F05D100F1080C08FA0CF8C2F817
:100A6000148091F803C0BCF1480F07D100F1080CC5
:100A70004FF0010808FA0CF8C2F81080401C082852
:100A8000CED35460BDE8F0810AB1016100E041615C
:100A9000704700BFFEE700BFFEE710B500F0CCF9DD
:100AA000FFF744FF10BD704770B5002100230F22EF
:100AB000C47804B3154C246804F4E064C4F5E0641D
:100AC000210AC1F10403CA40447804FA03F184788E
:100AD0001440214309010E4C0678A155047804F016
:100AE0001F050124AC4005786D11AD0005F1E0252E
:100AF000C5F8004109E0047804F01F050124AC406A
:100B0000044D0678761145F8264070BD0CED00E0E6
:100B100000E400E080E100E002490143024A116084
:100B2000704700000000FA050CED00E070B50024ED
:100B30000EE00021204600F0E6F8002504E0002049
:100B400000F06AF9681CC5B2802DF8DB601CC4B2E5
:100B5000082CEEDB70BD000008B50121082000F074
:100B600043FA4FF48070ADF8000014208DF80300B4
:100B700003208DF8020069460A48FFF7FAFE4FF499
:100B80000070ADF8000069460648FFF7F2FE01224A
:100B900011020448FFF778FF012251020148FFF7D4
:100BA00073FF08BD000C014070B50546002415E038
:100BB0008020204100EA05024FF400710E48FFF743
:100BC00063FF012211020C48FFF75EFF00224FF481
:100BD00080710948FFF758FF601CC4B2082CE7DB9E
:100BE000012211020448FFF74FFF00224FF48071E9
:100BF0000148FFF749FF70BD000C014010B501220C
:100C000051020A48FFF740FF012211020748FFF78F
:100C10003BFF00224FF400710448FFF735FF00222C
:100C20004FF480710148FFF72FFF10BD000C014009
:100C300010B500224FF400710648FFF725FF01228E
:100C400011020448FFF720FF012251020148FFF77B
:100C50001BFF10BD000C014070B5002406E000250C
:100C600000E06D1CB5F57A7FFBD3641CB4F57A7F88
:100C7000F5D3FFF771FFAE2000F0BEF8D52000F0ED
:100C8000BBF8802000F0B8F8A82000F0B5F83F20AD
:100C900000F0B2F8D32000F0AFF8002000F0ACF87C
:100CA000402000F0A9F8A12000F0A6F8C82000F02C
:100CB000A3F8DA2000F0A0F8122000F09DF88120BF
:100CC00000F09AF8CF2000F097F8D92000F094F8BF
:100CD000F12000F091F8DB2000F08EF8302000F0D9
:100CE0008BF8A42000F088F8A62000F085F88D206D
:100CF00000F082F8142000F07FF8AF2000F07CF8BC
:100D0000FFF714FF70BD70B505460C4645F0B00006
:100D100000F072F8102141EA141000F06DF804F0B0
:100D20000F0000F069F870BD2DE9F04105460E4650
:100D30001746721ED206110E6A1E5206100EFFF7DB
:100D4000E2FF002409E0A7F12001134A02EB0111A0
:100D5000085D00F061F8601CC4B2082CF3DB721E61
:100D6000D206110E6A1E012303EB4202D0B2FFF736
:100D7000CAFF00240BE0A7F12001074A02EB011291
:100D800004F10801505C00F047F8601CC4B2082C64
:100D9000F1DBBDE8F0810000FC2100082DE9F04105
:100DA00007460E461546002407E02A5D3019C1B2F9
:100DB0003846FFF7B9FF601CC4B2285D0028F4D1A3
:100DC000BDE8F0812DE9F8430546884614462046E3
:100DD000FFF79FFA064632460B4605A1684600F02B
:100DE0000BFD6A4641462846FFF7D8FFBDE8F88369
:100DF000252E31662020200010B50446FFF7FEFEA8
:100E00007820FFF7D1FE0020FFF7CEFE2046FFF747
:100E1000CBFEFFF70DFF10BD10B50446FFF7EEFE49
:100E20007820FFF7C1FE4020FFF7BEFE2046FFF707
:100E3000BBFEFFF7FDFE10BD1FB500F027F8012136
:100E4000480400F0C1F84FF4E13000900020ADF804
:100E50000C000C20ADF80A000020ADF80800ADF839
:100E60000600ADF804006946074800F0E7FB00F013
:100E70002DF8012240F22551034800F0B9FB012171
:100E8000014800F072FB1FBD0044004008B501217D
:100E9000042000F0A9F80420ADF8000018208DF817
:100EA000030003208DF8020069460748FFF761FD43
:100EB0000820ADF8000048208DF80300694602487C
:100EC000FFF757FD08BD00000008014008B54FF4CA
:100ED000A060FFF721FE26208DF8000001208DF88C
:100EE000030002208DF801008DF802006846FFF72C
:100EF000DBFD08BD08B50121042000F075F80121D3
:100F0000042000F071F8C020ADF8000018208DF822
:100F1000030003208DF8020069460248FFF729FD0F
:100F200008BD00000008014010B5FFF7E3FF00F026
:100F300001F810BD00B587B00121022000F044F88F
:100F40000020ADF8160044F61F60ADF814004720ED
:100F5000ADF810000020ADF8120004A90E4800F012
:100F600053FA6020ADF800000020ADF80800012021
:100F7000ADF802000020ADF806006946064800F012
:100F8000A1F96946044800F0E9F90121024800F09E
:100F90008DF907B000BD00000004004010B5044604
:100FA0002146024800F02CFA10BD00000004004069
:100FB00010B504462146024800F024FA10BD000096
:100FC000000400407047000029B1064AD26902437C
:100FD000044BDA6104E0034AD2698243014BDA61CF
:100FE000704700000010024029B1064A926902438E
:100FF000044B9A6104E0034A92698243014B9A616F
:10100000704700000010024030B50021002200248B
:1010100000232D4D6D6805F00C0121B1042905D088
:10102000082923D105E0294D056022E0274D056000
:101030001FE0254D6D6805F47012234D6D6805F4B1
:101040008034022505EB92421CB9214D55430560C1
:101050000BE01D4D6D6805F400351DB11C4D554369
:10106000056002E0194D5543056002E0174D05602B
:1010700000BF00BF144D6D6805F0F0010909154D62
:101080006B5C0568DD4045600F4D6D6805F4E061FF
:10109000090A104D6B5C4568DD4085600A4D6D683E
:1010A00005F46051C90A0B4D6B5C4568DD40C560B5
:1010B000054D6D6805F44041890B074D6B5CC568B3
:1010C000B5FBF3F5056130BD0010024000127A0057
:1010D00000093D00090000201900002070470000B1
:1010E0002DE9F047044684F000490A494846FFF7D5
:1010F000B5F880460849FFF77FF807460749FFF72C
:1011000023F80646FFF7F1F885B22846FFF746FFB9
:10111000BDE8F087000034430000FA440080BB447F
:101120002DE9F047044684F000490A494846FFF794
:1011300095F880460849FFF75FF807460749FFF72B
:1011400003F80646FFF7D1F885B22846FFF730FFCF
:10115000BDE8F087000034430000FA440080BB443F
:1011600010B500F001F810BD0CB500200190009002
:101170003348006840F480303149086000BF30488F
:10118000006800F4003000900198401C0190009825
:1011900018B90198B0F5A06FF1D12948006800F4A2
:1011A000003010B10120009001E000200090009874
:1011B000012843D12348006840F01000214908600D
:1011C0000846006820F0030008600846006840F008
:1011D000020008601A48406819494860084640689B
:1011E00048600846406840F48060486008464068AF
:1011F00020F47C1048600846406840F4E8104860DD
:101200000846006840F08070086000BF0C48006825
:1012100000F000700028F9D00948406820F0030071
:10122000074948600846406840F00200486000BF37
:101230000348406800F00C000828F9D10CBD0000FC
:1012400000100240002002407047000010B5134813
:10125000006840F0010011490860084640681049E4
:1012600008400E494860084600680E4908400B498E
:1012700008600846006820F480200860084640683E
:1012800020F4FE0048604FF41F008860FFF768FFFD
:101290004FF000600449086010BD000000100240DB
:1012A0000000FFF8FFFFF6FE08ED00E021B1028824
:1012B00042F00102028004E002884FF6FE731A40F9
:1012C0000280704770B5002400220023058C4FF681
:1012D000FE7635400584028C8388048B4FF68F752B
:1012E0002C40B51E2C400D882C43751E2A400D89BC
:1012F0002A434D882A43144DA8420BD0134DA842CF
:1013000008D0134DA84205D0124DA84202D0124D6C
:10131000A84213D14FF6F7752A404D892A434FF65C
:10132000FB752A408D882A434FF6FF652B404FF608
:10133000FF552B408D892B43CD892B43838004831C
:10134000CD888586028470BD002C014000340140A8
:1013500000400140004401400048014070B50024B5
:1013600000220023058C4FF6EF7635400584028C71
:101370008388048B48F6FF752C404FF6FF452C40C0
:101380000D884FF6FF7606EA05252C434FF6DF75EC
:101390002A400D8906EA05152A434D8806EA0515F7
:1013A0002A43154DA84202D0144DA8421DD14FF634
:1013B0007F752A404D894FF6FF7606EA05152A43C8
:1013C0004FF6BF752A408D8806EA05152A434FF669
:1013D000FF352B404FF2FF752B408D8906EA8505BE
:1013E0002B43CD8906EA85052B4383800483CD8872
:1013F0000587028470BD0000002C014000340140CC
:101400008186704701877047002202881D4B9842F1
:101410000ED01D4B98420BD0B0F1804F08D01B4B23
:10142000984205D01A4B984202D01A4B984204D1E8
:101430004FF68F731A404B881A43174B984207D0C8
:10144000164B984204D04FF6FF431A40CB881A43FC
:1014500002808B8883850B8803850A4B98420BD0CA
:10146000094B984208D00E4B984205D00D4B98423C
:1014700002D00D4B984201D10B7A0386012383825F
:1014800070470000002C014000340140000400407F
:1014900000080040000C0040001000400014004014
:1014A00000400140004401400048014010B540F2B6
:1014B0002551214800F072F801283CD11E4800F067
:1014C00029F9C4B21D48007848B9552C03D1012030
:1014D0001A49087029E000201849087025E01748CB
:1014E0000078012809D1532C03D102201349087038
:1014F0001BE000201149087017E01048007802280E
:1015000013D10F480F49097844540E480078401C05
:101510000C49087008460078062806DB0020087091
:101520000649087001200849087040F22551024818
:1015300000F00CF800BF10BD004400400700002080
:1015400000000020080000200600002010B5002246
:10155000002340F66A14A14200D100BF0A12012400
:101560009440A3B2DC43048010BD21B1828942F4CF
:101570000052828104E082894DF6FF731A40828115
:10158000704702460020B1F5007F00D100BF1388EC
:101590000B400BB1012000E00020704770B50246FF
:1015A000002400230025002040F66A16B14200D135
:1015B00000BFC1F3421501F01F03012606FA03F331
:1015C000012D02D19689334006E0022D02D1168A00
:1015D000334001E0968A33400C12012606FA04F4E7
:1015E0001688344013B10CB1012000E0002070BD1A
:1015F000F0B50346002400260025002040F66A17B7
:10160000B94200D100BF1846C1F3421401F01F06D1
:10161000012707FA06F5012C01D10C3004E0022C59
:1016200001D1103000E014301AB107682F43076071
:1016300002E00768AF430760F0BD00002DE9F04706
:1016400086B005460E460024A24600BFA1460027EC
:10165000B08900B100BF2F462C8A4CF6FF700440C1
:10166000F08804432C82AC894EF6F3100440B08815
:1016700031890843718908430443AC81AC8A4FF631
:10168000FF400440B0890443AC8201A8FFF7BCFCD2
:101690001F48874202D1DDF810A001E0DDF80CA060
:1016A000A88900F4004040B10AEBCA0000EB0A1020
:1016B00031684900B0FBF1F807E00AEBCA0000EB23
:1016C0000A1031688900B0FBF1F86420B8FBF0F033
:1016D00004012009642101FB1089A88900F400405D
:1016E00040B1322000EBC900B0FBF1F000F0070080
:1016F000044308E0322000EB09106421B0FBF1F054
:1017000000F00F0004432C8106B0BDE8F087000014
:101710000038014001468888C0F308007047C1F3D3
:10172000080282807047000070B5264800780128C2
:1017300045D125490978244A527841EA022108B264
:10174000FEF7CAFD05464FF08E41FEF787FD0446C1
:101750001E49FEF751FD1E4908601B4989781A4A47
:10176000D27841EA022108B2FEF7B6FD05464FF0F5
:101770008E41FEF773FD04461449FEF73DFD144902
:10178000486011490979104A527941EA022108B2A8
:10179000FEF7A2FD05464FF08E41FEF75FFD0446C1
:1017A0000A49FEF729FD0A498860062200210648F9
:1017B000FEF7B8FC002003490870012070BD00202E
:1017C000FCE7000006000020000000200000344379
:1017D0002400002000BFFEE70FB4054B10B503A99D
:1017E000044A029800F0DEF810BC5DF814FB00001B
:1017F000DD200008200000200FB4084B10B504A91C
:1018000002AA039800F0CEF8044602A9002000F0D6
:1018100060FC204610BC5DF814FB0000D3200008DB
:1018200002E008C8121F08C1002AFAD170477047A9
:10183000002001E001C1121F002AFBD17047000007
:101840002DE9FF5FDDE90220010DDDF838B002432C
:1018500018D044F61050A1F2FF3141430D140F98F7
:10186000012820D0A5EB0B00401C5FEA000A4FF0D6
:101870000004474EDFF81C91A046504616D5CAF129
:10188000000728E00F98012443A2012808D0002176
:1018900000980F9BC0E90021C0E90243BDE8FF9F0B
:1018A0006FEA0B01F4E7CBF10000DEE7074612E038
:1018B000F80707D02246334640464946FEF761FE08
:1018C000804689462246334610461946FEF759FEA1
:1018D00004460E467F10002FEAD1DDE90201BAF17D
:1018E000000F42464B4602DAFEF74BFE01E0FEF7E0
:1018F000BAFE04460E460022284BFEF73BFF03D8F3
:101900004FF0FF30014607E00022254B20463146CC
:10191000FEF790FDFEF716FF102409E0002C0ADB0D
:101920000A220023FEF71EFD019B30321A55641E69
:1019300050EA0102F2D1641C019AC4F1110314446B
:101940000F9A012A03D0012208430DD10AE008436F
:1019500004D000204FF0110B0F9080E7A3EB0B0594
:101960006D1E0DE05B4504DD4FF0000205F1010541
:1019700004E003DA4FF00002A5F10105002AECD0E3
:1019800000980F99C0E90231C0E9004586E70000E0
:10199000000024400000F03F300000000000F04351
:1019A0000000E03F2DE9FF4F95B09B468946064673
:1019B00000250FE2252877D100242746F84A012187
:1019C000059400E0044316F8013F203B01FA03F0C0
:1019D0001042F7D130782A2811D06FF02F033078D9
:1019E000A0F13002092A16D8059A44F0020402EB4D
:1019F000820203EB42021044761C0590EFE759F88F
:101A0000042B0592002A03DA504244F40054059056
:101A100044F00204761C30782E2816D116F8010FF7
:101A200044F004042A280DD06FF02F023078A0F182
:101A30003003092B09D807EB870302EB4303C718D0
:101A4000761CF3E759F8047B761C30786C280FD0AD
:101A500006DC4C2817D068280DD06A2814D104E081
:101A6000742810D07A280FD10DE044F400140AE055
:101A700044F4801401E044F440147278824202D1AC
:101A800004F58014761C761C307866280BD013DCA5
:101A9000582877D009DC002875D04528F6D046288C
:101AA000F4D047281AD19DE118E0632835D0642886
:101AB00079D0652812D195E1702873D008DC6728A9
:101AC000F1D069286FD06E280DD06F2806D1B5E00F
:101AD00073282CD0752875D0782874D05A46179959
:101AE00090476D1C75E1C4F30250022809D0032809
:101AF0000DD0D9F8001004280DD00D6009F10409AB
:101B000067E1D9F80010EA17C1E90052F6E7D9F801
:101B100000100D80F2E70D70F0E719F8041B8DF846
:101B2000001000208DF80100EA46012003E059F87A
:101B300004AB4FF0FF3061074FF0000102D40DE01D
:101B400008F101018846B9420FDA8045F8DB1AF83E
:101B500008100029F4D108E008F10101884681420B
:101B6000FADB1AF808100029F6D105985B46A0EBBD
:101B7000080721463846179A00F094FA284400EBEB
:101B8000080507E04DE029E10DE01AF8010B5A467F
:101B900017999047B8F10108F7D25B4621463846BD
:101BA000179A13E142E00A220092C4F302524FF066
:101BB000000A022A08D059F804CB032A4FEAEC7134
:101BC0000AD00DE029E02AE009F1070121F007021F
:101BD000F2E802C1914609E00FFA8CFC4FEAEC7181
:101BE000042A03D14FFA8CFC4FEAEC71002907DA82
:101BF0000A460021DCF1000C61EB02012D2202E01B
:101C0000220504D52B228DF80420012203E0E207EF
:101C100001D02022F7E7904659E00A2102E0102285
:101C20000DE010214FF0000A00910BE010224FF060
:101C3000000A44F004040827009203E008224FF051
:101C4000000A0092C4F30252022A05D059F804CBCC
:101C50000021032A08D009E009F1070121F0070259
:101C6000F2E802C1914605E01FFA8CFC042A01D17A
:101C70000CF0FF0C4FF00008220728D5702806D082
:101C8000009B83F0100353EA0A0305D00EE04022C4
:101C90008DF80420012208E05CEA010206D030221F
:101CA0008DF804208DF8050002229046009B83F0F9
:101CB000080353EA0A030AD15CEA010201D1620770
:101CC00005D530228DF804204FF001087F1E5828DA
:101CD00004D034A003900EA802900DE036A0F9E7DE
:101CE00053466046009AFEF73DFB84460398825CAB
:101CF0000298401E029002705CEA0100F0D1029846
:101D000006A9081A00F1200A600702D524F48034DD
:101D100000E00127574502DDA7EB0A0000E00020A4
:101D200000EB0A01009005984144401A0590E00339
:101D300006D45B462146179A059800F0B3F905448E
:101D4000002706E001A85A46C05D179990476D1C10
:101D50007F1C4745F6DBE0030CD55B462146179A0E
:101D6000059800F09FF9054404E030205A46179981
:101D700090476D1C0099481E00900029F5DC08E092
:101D8000029802995A460078491C02911799904787
:101D90006D1CBAF10001AAF1010AF1DC65E1000055
:101DA0000928010030313233343536373839616231
:101DB00063646566000000003031323334353637F5
:101DC00038394142434445460000000000F058F9CC
:101DD0000544761C307800287FF4ECAD19B0284615
:101DE000BDE8F08F620700D4062709F1070222F050
:101DF000070CFCE80223E14603F000485FEA080C08
:101E000002D00FF2702C0DE05FEA045C02D50FF2F5
:101E1000682C07E05FEAC47C02D00FF2602C01E07E
:101E2000AFF2700C4FF0FF3823F00043CDF850C0F4
:101E300065280CD006DC452809D046281DD0472847
:101E40003DD13DE0662818D067287ED138E00021DA
:101E5000112F01DB112000E0781CCDE9000106A95B
:101E60000EA8FFF7EDFCDDE90F010E9A03910021AA
:101E7000009207F1010A04914DE04FF000400097F5
:101E8000CDE9011006A90EA8FFF7DAFCDDE90F0283
:101E900003920E9B11990022DDF80CA0009304928E
:101EA00011B9791C00EB010AB7EB0A0004D4C0F1A8
:101EB000FF3007F1010A0490AAEB0700019044E00B
:101EC000012F00DA01270021112F01DD112000E090
:101ED0003846CDE9000106A90EA8FFF7B1FCDDE9FF
:101EE0000F010E9A0391002104910092BA46210736
:101EF0000CD40399514500DA8A46BAF1010F05DD89
:101F0000009AAAF10101515C302908D0B84202DAE6
:101F100010F1040F06DA0121CDE9011015E0AAF154
:101F20000101E9E7002805DC049901440491AAEBCA
:101F3000000102E0411C514500DD8A460499401A27
:101F4000401C01904FF000400290200704D40198FB
:101F5000504501DBCDF8048000208DF84F00029839
:101F60000DF14F07B0F1004F25D02B200E900298B5
:101F70004FF0020800280CDA404202902D200E900B
:101F800007E00A210298FEF7D7F93031029007F8EE
:101F9000011DB8F10001A8F10108F2DC0298002847
:101FA000EFD1791E0E980870307800F0200040F0D4
:101FB000450007F8020D12A8C01B00F1070814988D
:101FC000007800B1012000EB0A01019801EBE071FB
:101FD00005984144401A401E0590E00306D45B4634
:101FE0002146179A059800F05DF80544149800788A
:101FF00018B15A46179990476D1CE00324D55B46EB
:102000002146179A059800F04DF805441CE0049805
:10201000002807DBDDE90301884203DD0098405C0E
:10202000179901E0179930205A469047049805F116
:102030000105401C04900198401E019004D12E20FF
:102040005A46179990476D1CBAF10001AAF1010A8E
:10205000DDDC05E017F8010B5A46179990476D1C17
:10206000B8F10001A8F10108F4DC5B462146179A9B
:102070000598ABE62D0000002B00000020000000BA
:102080002DE9F041044600251E461746880404D475
:1020900005E039462020B0476D1C641EF9D528465E
:1020A000BDE8F0812DE9F041044600251E4690462A
:1020B000C80301D5302700E02027880404D505E0B7
:1020C00041463846B0476D1C641EF9D52846BDE828
:1020D000F0810A68531C0B601070704770B504469D
:1020E0000D46E1B20548FFF71AFB00BF8021034807
:1020F000FFF747FA0028F9D0204670BD00380140AC
:10210000FEF7AAFDFEF7C9FCFEF70EFF27A201218C
:102110000220FEF743FE27A201210320FEF73EFE28
:1021200026A201210420FEF739FE26A0FFF754FB6A
:102130003BE0FFF7F9FA01282FD124480821026873
:102140000220FEF73FFE2148082142680320FEF7E7
:1021500039FE1E48082182680420FEF733FE1B4921
:102160000868FEF7D6F8044622460B4618A0FFF78B
:1021700033FB16494868FEF7CCF8044622460B4666
:1021800017A0FFF729FB11498868FEF7C2F804463B
:1021900022460B4616A0FFF71FFB0C490868FEF706
:1021A0009FFF0A494868FEF7BBFFC2E7526F6C6C9D
:1021B0003A20200050697463683A20005961773AE8
:1021C0002020200048656C6C6F0A0000240000206D
:1021D000526F6C6C203D20252E31660A00000000F5
:1021E0005069746368203D20252E31660A00000086
:1021F000596177203D20252E31660A00000000003D
:10220000000000000000000000000000000000F8D6
:1022100000000000000000333000000000100C0639
:10222000100C0600000000000000000040C07840D4
:10223000C0784000043F04043F040400007088FCA0
:1022400008300000001820FF211E0000F008F000F8
:10225000E018000000211C031E211E0000F0088869
:10226000700000001E2123241927211010160E00D3
:10227000000000000000000000000000000000E07E
:102280001804020000000007182040000002041893
:10229000E00000000040201807000000404080F0EF
:1022A000804040000202010F01020200000000F025
:1022B000000000000101011F0101010000000000F9
:1022C0000000000080B0700000000000000000006E
:1022D00000000000000101010101010100000000F7
:1022E000000000000030300000000000000000008E
:1022F00080601804006018060100000000E010086B
:102300000810E000000F102020100F00001010F83F
:10231000000000000020203F20200000007008087E
:1023200008887000003028242221300000300888FE
:10233000884830000018202020110E000000C02026
:1023400010F8000000070424243F240000F8088847
:10235000880808000019212020110E0000E01088D4
:1023600088180000000F112020110E000038080806
:10237000C83808000000003F000000000070880816
:1023800008887000001C222121221C0000E0100897
:102390000810E0000000312222110F00000000C0F0
:1023A000C00000000000003030000000000000808D
:1023B000000000000000806000000000000080407D
:1023C0002010080000010204081020004040404096
:1023D00040404000040404040404040000081020E9
:1023E000408000000020100804020100007048082E
:1023F0000808F0000000003036010000C030C82896
:10240000E810E0000718272423140B000000C03850
:10241000E0000000203C23020227382008F88888CA
:1024200088700000203F202020110E00C0300808D6
:1024300008083800071820202010080008F80808AD
:102440000810E000203F202020100F0008F88888A6
:10245000E8081000203F20202320180008F8888872
:10246000E8081000203F200003000000C0300808EA
:102470000838000007182020221E020008F8080073
:102480000008F808203F210101213F20000808F83A
:10249000080800000020203F20200000000008085D
:1024A000F8080800C08080807F00000008F888C01D
:1024B00028180800203F20012638200008F80800CE
:1024C00000000000203F20202020300008F8F80005
:1024D000F8F80800203F003F003F200008F830C017
:1024E0000008F808203F200007183F00E010080807
:1024F0000810E0000F10202020100F0008F8080836
:102500000808F000203F210101010000E010080848
:102510000810E0000F18242438504F0008F888886D
:1025200088887000203F2000030C3020007088084D
:10253000080838000038202121221C00180808F85B
:10254000080818000000203F2000000008F80800DC
:102550000008F808001F202020201F0008788800AD
:1025600000C83808000007380E010000F80800F81D
:102570000008F800033C0700073C030008186880C7
:102580008068180820302C03032C30200838C8003D
:10259000C83808000000203F20000000100808088C
:1025A000C83808002038262120201800000000FE2E
:1025B000020202000000007F40404000000C30C0DA
:1025C00000000000000000010638C0000002020206
:1025D000FE000000004040407F00000000000402B8
:1025E00002020400000000000000000000000000E3
:1025F00000000000808080808080808000020204D3
:1026000000000000000000000000000000008080CA
:10261000808000000019242222223F2008F8008038
:1026200080000000003F112020110E0000000080FB
:1026300080800000000E112020201100000000808A
:102640008088F800000E112020103F2000008080BC
:1026500080800000001F222222221300008080F0D0
:10266000888888180020203F2020000000008080FB
:1026700080808000006B94949493600008F8008040
:1026800080800000203F210000203F20008098989B
:10269000000000000020203F2020000000000080FB
:1026A0009898000000C08080807F000008F800003B
:1026B00080808000203F24022D302000000808F890
:1026C000000000000020203F20200000808080804B
:1026D00080808000203F20003F20003F80800080DD
:1026E00080800000203F210000203F2000008080EB
:1026F00080800000001F202020201F00808000809C
:102700008000000080FFA12020110E00000000804A
:1027100080808000000E112020A0FF80808080003B
:102720008080800020203F21200001000000808068
:10273000808080000033242424241900008080E05D
:10274000808000000000001F20200000808000002A
:1027500000808000001F202020103F20808080000B
:102760000080808000010E3008060100808000801B
:10277000008080800F300C030C300F000080800040
:10278000808080000020312E0E312000808080006B
:102790000080808080818E7018060100008080801B
:1027A000808080000021302C2221300000000000B9
:1027B000807C020200000000003F4040000000005A
:1027C000FF00000000000000FF0000000002027C8B
:1027D000800000000040403F0000000000060101B2
:1027E0000202040400000000000000000C280008A1
:1027F00000000020240000002018000830280008F5
:10280000240000200C040000301800080000000024
:1028100000000000000000000001020304010203A8
:102820000406070809020406080000000000000072
:04000005080000ED02
:00000001FF
